{
  "contractName": "Authorizable",
  "abi": [
    {
      "constant": true,
      "inputs": [],
      "name": "owner",
      "outputs": [
        {
          "name": "",
          "type": "address"
        }
      ],
      "payable": false,
      "stateMutability": "view",
      "type": "function"
    },
    {
      "constant": true,
      "inputs": [
        {
          "name": "",
          "type": "uint256"
        }
      ],
      "name": "employeesAccounts",
      "outputs": [
        {
          "name": "",
          "type": "address"
        }
      ],
      "payable": false,
      "stateMutability": "view",
      "type": "function"
    },
    {
      "constant": true,
      "inputs": [
        {
          "name": "",
          "type": "address"
        }
      ],
      "name": "employees",
      "outputs": [
        {
          "name": "dni",
          "type": "bytes32"
        },
        {
          "name": "name",
          "type": "bytes32"
        },
        {
          "name": "isAdministrator",
          "type": "bool"
        },
        {
          "name": "isEmployee",
          "type": "bool"
        }
      ],
      "payable": false,
      "stateMutability": "view",
      "type": "function"
    },
    {
      "constant": false,
      "inputs": [
        {
          "name": "_newOwner",
          "type": "address"
        }
      ],
      "name": "transferOwnership",
      "outputs": [],
      "payable": false,
      "stateMutability": "nonpayable",
      "type": "function"
    },
    {
      "anonymous": false,
      "inputs": [
        {
          "indexed": true,
          "name": "previousOwner",
          "type": "address"
        },
        {
          "indexed": true,
          "name": "_newOwner",
          "type": "address"
        }
      ],
      "name": "OwnershipTransferred",
      "type": "event"
    },
    {
      "constant": true,
      "inputs": [
        {
          "name": "_employeeAddress",
          "type": "address"
        }
      ],
      "name": "isEmployee",
      "outputs": [
        {
          "name": "",
          "type": "bool"
        }
      ],
      "payable": false,
      "stateMutability": "view",
      "type": "function"
    },
    {
      "constant": true,
      "inputs": [
        {
          "name": "_employeeAddress",
          "type": "address"
        }
      ],
      "name": "isAdministrator",
      "outputs": [
        {
          "name": "",
          "type": "bool"
        }
      ],
      "payable": false,
      "stateMutability": "view",
      "type": "function"
    },
    {
      "constant": true,
      "inputs": [],
      "name": "getEmployeesCount",
      "outputs": [
        {
          "name": "",
          "type": "uint256"
        }
      ],
      "payable": false,
      "stateMutability": "view",
      "type": "function"
    },
    {
      "constant": true,
      "inputs": [
        {
          "name": "_employeeAddress",
          "type": "address"
        }
      ],
      "name": "getEmployee",
      "outputs": [
        {
          "name": "",
          "type": "bytes32"
        },
        {
          "name": "",
          "type": "bytes32"
        },
        {
          "name": "",
          "type": "bool"
        },
        {
          "name": "",
          "type": "bool"
        }
      ],
      "payable": false,
      "stateMutability": "view",
      "type": "function"
    },
    {
      "constant": false,
      "inputs": [
        {
          "name": "_toAdd",
          "type": "address"
        },
        {
          "name": "_dni",
          "type": "bytes32"
        },
        {
          "name": "_name",
          "type": "bytes32"
        }
      ],
      "name": "setAdministrator",
      "outputs": [],
      "payable": false,
      "stateMutability": "nonpayable",
      "type": "function"
    },
    {
      "constant": false,
      "inputs": [
        {
          "name": "_toRemove",
          "type": "address"
        }
      ],
      "name": "removeAdministrator",
      "outputs": [],
      "payable": false,
      "stateMutability": "nonpayable",
      "type": "function"
    },
    {
      "constant": false,
      "inputs": [
        {
          "name": "_toAdd",
          "type": "address"
        },
        {
          "name": "_dni",
          "type": "bytes32"
        },
        {
          "name": "_name",
          "type": "bytes32"
        }
      ],
      "name": "setEmployee",
      "outputs": [],
      "payable": false,
      "stateMutability": "nonpayable",
      "type": "function"
    },
    {
      "constant": false,
      "inputs": [
        {
          "name": "_toRemove",
          "type": "address"
        }
      ],
      "name": "removeEmployee",
      "outputs": [],
      "payable": false,
      "stateMutability": "nonpayable",
      "type": "function"
    }
  ],
  "bytecode": "0x608060405260008054600160a060020a03191633179055610baf806100256000396000f3006080604052600436106100b95763ffffffff7c01000000000000000000000000000000000000000000000000000000006000350416630a2eb30181146100be57806314a5d6da146100f357806332648e091461011c57806368fa81341461016557806375b78426146101865780638da5cb5b146101ad578063a7536ce7146101de578063d0678947146101f6578063d108177a14610217578063ea66543f14610238578063ed13e2a814610259578063f2fde38b14610280575b600080fd5b3480156100ca57600080fd5b506100df600160a060020a03600435166102a1565b604080519115158252519081900360200190f35b3480156100ff57600080fd5b5061011a600160a060020a03600435166024356044356102c3565b005b34801561012857600080fd5b5061013d600160a060020a03600435166104c6565b6040805194855260208501939093529015158383015215156060830152519081900360800190f35b34801561017157600080fd5b5061011a600160a060020a0360043516610500565b34801561019257600080fd5b5061019b61060f565b60408051918252519081900360200190f35b3480156101b957600080fd5b506101c2610615565b60408051600160a060020a039092168252519081900360200190f35b3480156101ea57600080fd5b506101c2600435610624565b34801561020257600080fd5b5061013d600160a060020a036004351661064c565b34801561022357600080fd5b5061011a600160a060020a0360043516610678565b34801561024457600080fd5b506100df600160a060020a03600435166107a8565b34801561026557600080fd5b5061011a600160a060020a03600435166024356044356107cf565b34801561028c57600080fd5b5061011a600160a060020a03600435166109f1565b600160a060020a03166000908152600260208190526040909120015460ff1690565b600054600160a060020a0316331461034b576040805160e560020a62461bcd02815260206004820152602e60248201527f596f7520617265206e6f7420746865206f776e65722e20596f7520617265206e60448201527f6f7420617574686f72697a65642e000000000000000000000000000000000000606482015290519081900360840190fd5b600160a060020a03831615156103ad576040805160e560020a62461bcd0281526020600482015260306024820152600080516020610b448339815191526044820152600080516020610b64833981519152606482015290519081900360840190fd5b600160a060020a03831660009081526002602081905260409091200154610100900460ff161561040357600160a060020a038316600090815260026020819052604090912001805460ff191660011790556104c1565b604080516080810182528381526020808201848152600183850181815260608501828152600160a060020a038a166000818152600296879052978820965187559351868401559051949093018054935115156101000261ff001995151560ff199095169490941794909416929092179092558054808201825592527fb10e2d527612073b26eecdfd717e6a320cf44b4afac2b0732d9fcbe2b7fa0cf6909101805473ffffffffffffffffffffffffffffffffffffffff191690911790555b505050565b600160a060020a031660009081526002602081905260409091208054600182015491909201549192909160ff808216926101009092041690565b600054600160a060020a03163314610588576040805160e560020a62461bcd02815260206004820152602e60248201527f596f7520617265206e6f7420746865206f776e65722e20596f7520617265206e60448201527f6f7420617574686f72697a65642e000000000000000000000000000000000000606482015290519081900360840190fd5b600160a060020a03811615156105ea576040805160e560020a62461bcd0281526020600482015260306024820152600080516020610b448339815191526044820152600080516020610b64833981519152606482015290519081900360840190fd5b600160a060020a0316600090815260026020819052604090912001805460ff19169055565b60015490565b600054600160a060020a031681565b600180548290811061063257fe5b600091825260209091200154600160a060020a0316905081565b600260208190526000918252604090912080546001820154919092015460ff8082169161010090041684565b336000908152600260208190526040909120015460ff16806106a45750600054600160a060020a031633145b1515610720576040805160e560020a62461bcd02815260206004820152603460248201527f596f7520617265206e6f7420612061646d696e6973747261746f722e20596f7560448201527f20617265206e6f7420617574686f72697a65642e000000000000000000000000606482015290519081900360840190fd5b600160a060020a0381161515610782576040805160e560020a62461bcd0281526020600482015260306024820152600080516020610b448339815191526044820152600080516020610b64833981519152606482015290519081900360840190fd5b600160a060020a0316600090815260026020819052604090912001805461ff0019169055565b600160a060020a031660009081526002602081905260409091200154610100900460ff1690565b336000908152600260208190526040909120015460ff16806107fb5750600054600160a060020a031633145b1515610877576040805160e560020a62461bcd02815260206004820152603460248201527f596f7520617265206e6f7420612061646d696e6973747261746f722e20596f7560448201527f20617265206e6f7420617574686f72697a65642e000000000000000000000000606482015290519081900360840190fd5b600160a060020a03831615156108d9576040805160e560020a62461bcd0281526020600482015260306024820152600080516020610b448339815191526044820152600080516020610b64833981519152606482015290519081900360840190fd5b600160a060020a03831660009081526002602081905260409091200154610100900460ff161561093157600160a060020a038316600090815260026020819052604090912001805461ff0019166101001790556104c1565b6040805160808101825283815260208082018481526000838501818152600160608601818152600160a060020a038b16808552600296879052978420965187559351868201559051949093018054925115156101000261ff001995151560ff199094169390931794909416919091179092558054808201825591527fb10e2d527612073b26eecdfd717e6a320cf44b4afac2b0732d9fcbe2b7fa0cf601805473ffffffffffffffffffffffffffffffffffffffff19169091179055505050565b600054600160a060020a03163314610a79576040805160e560020a62461bcd02815260206004820152602e60248201527f596f7520617265206e6f7420746865206f776e65722e20596f7520617265206e60448201527f6f7420617574686f72697a65642e000000000000000000000000000000000000606482015290519081900360840190fd5b600160a060020a0381161515610adb576040805160e560020a62461bcd0281526020600482015260306024820152600080516020610b448339815191526044820152600080516020610b64833981519152606482015290519081900360840190fd5b60008054604051600160a060020a03808516939216917f8be0079c531659141344cd1fd0a4f28419497f9722a3daafe3b4186f6b6457e091a36000805473ffffffffffffffffffffffffffffffffffffffff1916600160a060020a03929092169190911790555600596f7520617474656d7074656420746f20616464207065726d697373696f6e7320746f2030783020616464726573732e00000000000000000000000000000000a165627a7a7230582040fd0773a28e0097fcbda7b86098151dcf0f213b1909af7ca2caebc6befd37ce0029",
  "source": "pragma solidity ^0.4.24;\n\nimport \"./ownable.sol\";\n\n/**\n * @title Authorizable\n * @dev The Authorizable contract allows the owner to manage permissions.\n */\ncontract Authorizable is Ownable {\n\n    struct Employee {\n        bytes32 dni;\n        bytes32 name;\n        bool isAdministrator;\n        bool isEmployee;\n    }\n\n    address[] public employeesAccounts;\n    mapping (address => Employee) public employees;\n    \n\n    modifier onlyAdministrator() {\n        require(employees[msg.sender].isAdministrator || owner == msg.sender, \"You are not a administrator. You are not authorized.\");\n        _;\n    }\n\n    modifier onlyEmployee() {\n        require(employees[msg.sender].isEmployee || owner == msg.sender, \"You are not a employee. You are not authorized.\");\n        _;\n    }\n\n    function isEmployee(address _employeeAddress)\n    public view returns (bool) {\n        return employees[_employeeAddress].isEmployee;\n    }\n\n    function isAdministrator(address _employeeAddress)\n    public view returns (bool) {\n        return employees[_employeeAddress].isAdministrator;\n    }\n\n    function getEmployeesCount() \n    public view returns (uint) {\n        return employeesAccounts.length;\n    }\n\n    function getEmployee(address _employeeAddress) \n    public view returns (bytes32, bytes32, bool, bool) {\n        Employee storage employee = employees[_employeeAddress];\n        return (employee.dni, employee.name, employee.isAdministrator, employee.isEmployee);\n    }\n\n    function setAdministrator(address _toAdd, bytes32 _dni, bytes32 _name) \n    public onlyOwner {\n        require(_toAdd != address(0), \"You attempted to add permissions to 0x0 address.\");\n\n        if(employees[_toAdd].isEmployee) {\n            employees[_toAdd].isAdministrator = true;\n        } else {\n            employees[_toAdd] = Employee(_dni, _name, true, true);\n            employeesAccounts.push(_toAdd);\n        }\n    }\n\n    function removeAdministrator(address _toRemove)\n    public onlyOwner {\n        require(_toRemove != address(0), \"You attempted to add permissions to 0x0 address.\");\n        employees[_toRemove].isAdministrator = false;\n    }\n\n    function setEmployee(address _toAdd, bytes32 _dni, bytes32 _name) \n    public onlyAdministrator {\n        require(_toAdd != address(0), \"You attempted to add permissions to 0x0 address.\");\n\n        if(employees[_toAdd].isEmployee) {\n            employees[_toAdd].isEmployee = true;\n        } else {\n            employees[_toAdd] = Employee(_dni, _name, false, true);\n            employeesAccounts.push(_toAdd);\n        }\n    }\n\n    function removeEmployee(address _toRemove) \n    public onlyAdministrator {\n        require(_toRemove != address(0), \"You attempted to add permissions to 0x0 address.\");\n        employees[_toRemove].isEmployee = false;\n    }\n}",
  "sourcePath": "/Users/kenkina/Desktop/Dev/Ethereum/crypto-vehicle-npm/src/smartContracts/contracts/authorizable.sol",
  "compiler": {
    "name": "solc",
    "version": "0.4.24+commit.e67f0147.Emscripten.clang"
  },
  "schemaVersion": "2.0.1",
  "updatedAt": "2018-09-04T15:11:03.802Z"
}