{
  "contractName": "Authorizable",
  "abi": [
    {
      "constant": true,
      "inputs": [],
      "name": "owner",
      "outputs": [
        {
          "name": "",
          "type": "address"
        }
      ],
      "payable": false,
      "stateMutability": "view",
      "type": "function"
    },
    {
      "constant": true,
      "inputs": [
        {
          "name": "",
          "type": "uint256"
        }
      ],
      "name": "employeesAccounts",
      "outputs": [
        {
          "name": "",
          "type": "address"
        }
      ],
      "payable": false,
      "stateMutability": "view",
      "type": "function"
    },
    {
      "constant": true,
      "inputs": [
        {
          "name": "",
          "type": "address"
        }
      ],
      "name": "employees",
      "outputs": [
        {
          "name": "dni",
          "type": "bytes32"
        },
        {
          "name": "name",
          "type": "bytes32"
        },
        {
          "name": "isAdministrator",
          "type": "bool"
        },
        {
          "name": "isEmployee",
          "type": "bool"
        },
        {
          "name": "isInArray",
          "type": "bool"
        }
      ],
      "payable": false,
      "stateMutability": "view",
      "type": "function"
    },
    {
      "constant": false,
      "inputs": [
        {
          "name": "_newOwner",
          "type": "address"
        }
      ],
      "name": "transferOwnership",
      "outputs": [],
      "payable": false,
      "stateMutability": "nonpayable",
      "type": "function"
    },
    {
      "anonymous": false,
      "inputs": [
        {
          "indexed": true,
          "name": "previousOwner",
          "type": "address"
        },
        {
          "indexed": true,
          "name": "_newOwner",
          "type": "address"
        }
      ],
      "name": "OwnershipTransferred",
      "type": "event"
    },
    {
      "constant": true,
      "inputs": [
        {
          "name": "_employeeAddress",
          "type": "address"
        }
      ],
      "name": "isEmployee",
      "outputs": [
        {
          "name": "",
          "type": "bool"
        }
      ],
      "payable": false,
      "stateMutability": "view",
      "type": "function"
    },
    {
      "constant": true,
      "inputs": [
        {
          "name": "_employeeAddress",
          "type": "address"
        }
      ],
      "name": "isAdministrator",
      "outputs": [
        {
          "name": "",
          "type": "bool"
        }
      ],
      "payable": false,
      "stateMutability": "view",
      "type": "function"
    },
    {
      "constant": true,
      "inputs": [],
      "name": "getEmployeesAdress",
      "outputs": [
        {
          "name": "",
          "type": "address[]"
        }
      ],
      "payable": false,
      "stateMutability": "view",
      "type": "function"
    },
    {
      "constant": true,
      "inputs": [],
      "name": "getEmployeesCount",
      "outputs": [
        {
          "name": "",
          "type": "uint256"
        }
      ],
      "payable": false,
      "stateMutability": "view",
      "type": "function"
    },
    {
      "constant": true,
      "inputs": [
        {
          "name": "_employeeAddress",
          "type": "address"
        }
      ],
      "name": "getEmployee",
      "outputs": [
        {
          "name": "",
          "type": "bytes32"
        },
        {
          "name": "",
          "type": "bytes32"
        },
        {
          "name": "",
          "type": "bool"
        },
        {
          "name": "",
          "type": "bool"
        }
      ],
      "payable": false,
      "stateMutability": "view",
      "type": "function"
    },
    {
      "constant": false,
      "inputs": [
        {
          "name": "_toAdd",
          "type": "address"
        },
        {
          "name": "_dni",
          "type": "bytes32"
        },
        {
          "name": "_name",
          "type": "bytes32"
        }
      ],
      "name": "setAdministrator",
      "outputs": [],
      "payable": false,
      "stateMutability": "nonpayable",
      "type": "function"
    },
    {
      "constant": false,
      "inputs": [
        {
          "name": "_toRemove",
          "type": "address"
        }
      ],
      "name": "removeAdministrator",
      "outputs": [],
      "payable": false,
      "stateMutability": "nonpayable",
      "type": "function"
    },
    {
      "constant": false,
      "inputs": [
        {
          "name": "_toAdd",
          "type": "address"
        },
        {
          "name": "_dni",
          "type": "bytes32"
        },
        {
          "name": "_name",
          "type": "bytes32"
        }
      ],
      "name": "setEmployee",
      "outputs": [],
      "payable": false,
      "stateMutability": "nonpayable",
      "type": "function"
    },
    {
      "constant": false,
      "inputs": [
        {
          "name": "_toRemove",
          "type": "address"
        }
      ],
      "name": "removeEmployee",
      "outputs": [],
      "payable": false,
      "stateMutability": "nonpayable",
      "type": "function"
    }
  ],
  "bytecode": "0x608060405260008054600160a060020a03191633179055610d7b806100256000396000f3006080604052600436106100c45763ffffffff7c01000000000000000000000000000000000000000000000000000000006000350416630a2eb30181146100c957806314a5d6da146100fe57806332648e091461012757806368fa81341461017057806375b78426146101915780638da5cb5b146101b8578063a7536ce7146101e9578063d067894714610201578063d108177a14610251578063d65a62e314610272578063ea66543f146102d7578063ed13e2a8146102f8578063f2fde38b1461031f575b600080fd5b3480156100d557600080fd5b506100ea600160a060020a0360043516610340565b604080519115158252519081900360200190f35b34801561010a57600080fd5b50610125600160a060020a0360043516602435604435610362565b005b34801561013357600080fd5b50610148600160a060020a0360043516610615565b6040805194855260208501939093529015158383015215156060830152519081900360800190f35b34801561017c57600080fd5b50610125600160a060020a036004351661064f565b34801561019d57600080fd5b506101a661075e565b60408051918252519081900360200190f35b3480156101c457600080fd5b506101cd610764565b60408051600160a060020a039092168252519081900360200190f35b3480156101f557600080fd5b506101cd600435610773565b34801561020d57600080fd5b50610222600160a060020a036004351661079b565b604080519586526020860194909452911515848401521515606084015215156080830152519081900360a00190f35b34801561025d57600080fd5b50610125600160a060020a03600435166107d1565b34801561027e57600080fd5b50610287610901565b60408051602080825283518183015283519192839290830191858101910280838360005b838110156102c35781810151838201526020016102ab565b505050509050019250505060405180910390f35b3480156102e357600080fd5b506100ea600160a060020a0360043516610963565b34801561030457600080fd5b50610125600160a060020a036004351660243560443561098a565b34801561032b57600080fd5b50610125600160a060020a0360043516610bbd565b600160a060020a03166000908152600260208190526040909120015460ff1690565b600054600160a060020a031633146103ea576040805160e560020a62461bcd02815260206004820152602e60248201527f596f7520617265206e6f7420746865206f776e65722e20596f7520617265206e60448201527f6f7420617574686f72697a65642e000000000000000000000000000000000000606482015290519081900360840190fd5b600160a060020a038316151561044c576040805160e560020a62461bcd0281526020600482015260306024820152600080516020610d108339815191526044820152600080516020610d30833981519152606482015290519081900360840190fd5b600160a060020a03831660009081526002602081905260409091200154610100900460ff16801561049a5750600160a060020a0383166000908152600260208190526040909120015460ff16155b156104cb57600160a060020a038316600090815260026020819052604090912001805460ff19166001179055610610565b600160a060020a0383166000908152600260208190526040909120015462010000900460ff16151561056f57600180548082019091557fb10e2d527612073b26eecdfd717e6a320cf44b4afac2b0732d9fcbe2b7fa0cf6018054600160a060020a03851673ffffffffffffffffffffffffffffffffffffffff199091168117909155600090815260026020819052604090912001805462ff00001916620100001790555b6040805160a0810182528381526020808201848152600183850181815260608501828152600160a060020a038a1660008181526002808852988120808a0180546201000080820460ff16151560808d01908152959094529a9098529751885594519690930195909555519351905160ff199095169315159390931761ff001916610100931515939093029290921762ff000019169215159091029190911790555b505050565b600160a060020a031660009081526002602081905260409091208054600182015491909201549192909160ff808216926101009092041690565b600054600160a060020a031633146106d7576040805160e560020a62461bcd02815260206004820152602e60248201527f596f7520617265206e6f7420746865206f776e65722e20596f7520617265206e60448201527f6f7420617574686f72697a65642e000000000000000000000000000000000000606482015290519081900360840190fd5b600160a060020a0381161515610739576040805160e560020a62461bcd0281526020600482015260306024820152600080516020610d108339815191526044820152600080516020610d30833981519152606482015290519081900360840190fd5b600160a060020a0316600090815260026020819052604090912001805460ff19169055565b60015490565b600054600160a060020a031681565b600180548290811061078157fe5b600091825260209091200154600160a060020a0316905081565b600260208190526000918252604090912080546001820154919092015460ff808216916101008104821691620100009091041685565b336000908152600260208190526040909120015460ff16806107fd5750600054600160a060020a031633145b1515610879576040805160e560020a62461bcd02815260206004820152603460248201527f596f7520617265206e6f7420612061646d696e6973747261746f722e20596f7560448201527f20617265206e6f7420617574686f72697a65642e000000000000000000000000606482015290519081900360840190fd5b600160a060020a03811615156108db576040805160e560020a62461bcd0281526020600482015260306024820152600080516020610d108339815191526044820152600080516020610d30833981519152606482015290519081900360840190fd5b600160a060020a0316600090815260026020819052604090912001805461ff0019169055565b6060600180548060200260200160405190810160405280929190818152602001828054801561095957602002820191906000526020600020905b8154600160a060020a0316815260019091019060200180831161093b575b5050505050905090565b600160a060020a031660009081526002602081905260409091200154610100900460ff1690565b336000908152600260208190526040909120015460ff16806109b65750600054600160a060020a031633145b1515610a32576040805160e560020a62461bcd02815260206004820152603460248201527f596f7520617265206e6f7420612061646d696e6973747261746f722e20596f7560448201527f20617265206e6f7420617574686f72697a65642e000000000000000000000000606482015290519081900360840190fd5b600160a060020a0383161515610a94576040805160e560020a62461bcd0281526020600482015260306024820152600080516020610d108339815191526044820152600080516020610d30833981519152606482015290519081900360840190fd5b6040805160a0810182528381526020808201848152600160a060020a03871660008181526002808552868220808201805460ff80821615159a8a019a8b52600160608b01818152620100008085048416151560808e019081529990985295909952985183559551969091019590955595519551915160ff199093169515159590951761ff001916610100911515919091021762ff00001916901515840217908190559190910416151561061057600180548082019091557fb10e2d527612073b26eecdfd717e6a320cf44b4afac2b0732d9fcbe2b7fa0cf6018054600160a060020a03851673ffffffffffffffffffffffffffffffffffffffff199091168117909155600090815260026020819052604090912001805462ff0000191662010000179055505050565b600054600160a060020a03163314610c45576040805160e560020a62461bcd02815260206004820152602e60248201527f596f7520617265206e6f7420746865206f776e65722e20596f7520617265206e60448201527f6f7420617574686f72697a65642e000000000000000000000000000000000000606482015290519081900360840190fd5b600160a060020a0381161515610ca7576040805160e560020a62461bcd0281526020600482015260306024820152600080516020610d108339815191526044820152600080516020610d30833981519152606482015290519081900360840190fd5b60008054604051600160a060020a03808516939216917f8be0079c531659141344cd1fd0a4f28419497f9722a3daafe3b4186f6b6457e091a36000805473ffffffffffffffffffffffffffffffffffffffff1916600160a060020a03929092169190911790555600596f7520617474656d7074656420746f20616464207065726d697373696f6e7320746f2030783020616464726573732e00000000000000000000000000000000a165627a7a723058209ae2de6d5a3d6a949cccdb1c65002633dbaa957a3d7546a24c0054331e94345e0029",
  "source": "pragma solidity ^0.4.24;\n\nimport \"./ownable.sol\";\n\n/**\n * @title Authorizable\n * @dev The Authorizable contract allows the owner to manage permissions.\n */\ncontract Authorizable is Ownable {\n\n    struct Employee {\n        bytes32 dni;\n        bytes32 name;\n        bool isAdministrator;\n        bool isEmployee;\n        bool isInArray;\n    }\n\n    address[] public employeesAccounts;\n    mapping (address => Employee) public employees;\n    \n\n    modifier onlyAdministrator() {\n        require(employees[msg.sender].isAdministrator || owner == msg.sender, \"You are not a administrator. You are not authorized.\");\n        _;\n    }\n\n    modifier onlyEmployee() {\n        require(employees[msg.sender].isEmployee || owner == msg.sender, \"You are not a employee. You are not authorized.\");\n        _;\n    }\n\n    function isEmployee(address _employeeAddress)\n    public view returns (bool) {\n        return employees[_employeeAddress].isEmployee;\n    }\n\n    function isAdministrator(address _employeeAddress)\n    public view returns (bool) {\n        return employees[_employeeAddress].isAdministrator;\n    }\n\n    function getEmployeesAdress()\n    public view returns (address[]){\n        return employeesAccounts;\n    }\n\n    function getEmployeesCount() \n    public view returns (uint) {\n        return employeesAccounts.length;\n    }\n\n    function getEmployee(address _employeeAddress) \n    public view returns (bytes32, bytes32, bool, bool) {\n        Employee storage employee = employees[_employeeAddress];\n        return (employee.dni, employee.name, employee.isAdministrator, employee.isEmployee);\n    }\n\n    function setAdministrator(address _toAdd, bytes32 _dni, bytes32 _name) \n    public onlyOwner {\n        require(_toAdd != address(0), \"You attempted to add permissions to 0x0 address.\");\n\n        if(employees[_toAdd].isEmployee && !employees[_toAdd].isAdministrator) {\n            employees[_toAdd].isAdministrator = true;\n        } else {\n            if(!employees[_toAdd].isInArray) {\n                employeesAccounts.push(_toAdd);\n                employees[_toAdd].isInArray = true;\n            }\n            employees[_toAdd] = Employee(_dni, _name, true, true, employees[_toAdd].isInArray);\n        }\n    }\n\n    function removeAdministrator(address _toRemove) \n    public onlyOwner {\n        require(_toRemove != address(0), \"You attempted to add permissions to 0x0 address.\");\n        employees[_toRemove].isAdministrator = false;\n    }\n\n    function setEmployee(address _toAdd, bytes32 _dni, bytes32 _name) \n    public onlyAdministrator {\n        require(_toAdd != address(0), \"You attempted to add permissions to 0x0 address.\");\n\n        employees[_toAdd] = Employee(_dni, _name, employees[_toAdd].isAdministrator, true, employees[_toAdd].isInArray);\n        if(!employees[_toAdd].isInArray) {\n            employeesAccounts.push(_toAdd);\n            employees[_toAdd].isInArray = true;\n        }\n        \n    }\n\n    function removeEmployee(address _toRemove) \n    public onlyAdministrator {\n        require(_toRemove != address(0), \"You attempted to add permissions to 0x0 address.\");\n        employees[_toRemove].isEmployee = false;\n        //employees[_toRemove].isAdministrator = false;\n    }\n}",
  "sourcePath": "/Users/helmutcutipa/Desktop/Desarrollo/blockchain/crypto-vehicle/src/smartContracts/contracts/authorizable.sol",
  "compiler": {
    "name": "solc",
    "version": "0.4.24+commit.e67f0147.Emscripten.clang"
  },
  "schemaVersion": "2.0.1",
  "updatedAt": "2018-09-27T04:54:28.202Z"
}