{
  "contractName": "VehicleFactory",
  "abi": [
    {
      "constant": true,
      "inputs": [
        {
          "name": "_employeeAddress",
          "type": "address"
        }
      ],
      "name": "isAdministrator",
      "outputs": [
        {
          "name": "",
          "type": "bool"
        }
      ],
      "payable": false,
      "stateMutability": "view",
      "type": "function"
    },
    {
      "constant": false,
      "inputs": [
        {
          "name": "_toAdd",
          "type": "address"
        },
        {
          "name": "_dni",
          "type": "bytes32"
        },
        {
          "name": "_name",
          "type": "bytes32"
        }
      ],
      "name": "setAdministrator",
      "outputs": [],
      "payable": false,
      "stateMutability": "nonpayable",
      "type": "function"
    },
    {
      "constant": true,
      "inputs": [
        {
          "name": "_employeeAddress",
          "type": "address"
        }
      ],
      "name": "getEmployee",
      "outputs": [
        {
          "name": "",
          "type": "bytes32"
        },
        {
          "name": "",
          "type": "bytes32"
        },
        {
          "name": "",
          "type": "bool"
        },
        {
          "name": "",
          "type": "bool"
        }
      ],
      "payable": false,
      "stateMutability": "view",
      "type": "function"
    },
    {
      "constant": false,
      "inputs": [
        {
          "name": "_toRemove",
          "type": "address"
        }
      ],
      "name": "removeAdministrator",
      "outputs": [],
      "payable": false,
      "stateMutability": "nonpayable",
      "type": "function"
    },
    {
      "constant": true,
      "inputs": [],
      "name": "getEmployeesCount",
      "outputs": [
        {
          "name": "",
          "type": "uint256"
        }
      ],
      "payable": false,
      "stateMutability": "view",
      "type": "function"
    },
    {
      "constant": true,
      "inputs": [],
      "name": "owner",
      "outputs": [
        {
          "name": "",
          "type": "address"
        }
      ],
      "payable": false,
      "stateMutability": "view",
      "type": "function"
    },
    {
      "constant": true,
      "inputs": [
        {
          "name": "",
          "type": "uint256"
        }
      ],
      "name": "employeesAccounts",
      "outputs": [
        {
          "name": "",
          "type": "address"
        }
      ],
      "payable": false,
      "stateMutability": "view",
      "type": "function"
    },
    {
      "constant": true,
      "inputs": [
        {
          "name": "",
          "type": "address"
        }
      ],
      "name": "employees",
      "outputs": [
        {
          "name": "dni",
          "type": "bytes32"
        },
        {
          "name": "name",
          "type": "bytes32"
        },
        {
          "name": "isAdministrator",
          "type": "bool"
        },
        {
          "name": "isEmployee",
          "type": "bool"
        },
        {
          "name": "isInArray",
          "type": "bool"
        }
      ],
      "payable": false,
      "stateMutability": "view",
      "type": "function"
    },
    {
      "constant": false,
      "inputs": [
        {
          "name": "_toRemove",
          "type": "address"
        }
      ],
      "name": "removeEmployee",
      "outputs": [],
      "payable": false,
      "stateMutability": "nonpayable",
      "type": "function"
    },
    {
      "constant": true,
      "inputs": [],
      "name": "getEmployeesAdress",
      "outputs": [
        {
          "name": "",
          "type": "address[]"
        }
      ],
      "payable": false,
      "stateMutability": "view",
      "type": "function"
    },
    {
      "constant": true,
      "inputs": [
        {
          "name": "_employeeAddress",
          "type": "address"
        }
      ],
      "name": "isEmployee",
      "outputs": [
        {
          "name": "",
          "type": "bool"
        }
      ],
      "payable": false,
      "stateMutability": "view",
      "type": "function"
    },
    {
      "constant": false,
      "inputs": [
        {
          "name": "_toAdd",
          "type": "address"
        },
        {
          "name": "_dni",
          "type": "bytes32"
        },
        {
          "name": "_name",
          "type": "bytes32"
        }
      ],
      "name": "setEmployee",
      "outputs": [],
      "payable": false,
      "stateMutability": "nonpayable",
      "type": "function"
    },
    {
      "constant": false,
      "inputs": [
        {
          "name": "_newOwner",
          "type": "address"
        }
      ],
      "name": "transferOwnership",
      "outputs": [],
      "payable": false,
      "stateMutability": "nonpayable",
      "type": "function"
    },
    {
      "anonymous": false,
      "inputs": [
        {
          "indexed": true,
          "name": "numberPlate",
          "type": "bytes32"
        },
        {
          "indexed": false,
          "name": "brand",
          "type": "bytes32"
        },
        {
          "indexed": false,
          "name": "model",
          "type": "bytes32"
        },
        {
          "indexed": false,
          "name": "color",
          "type": "bytes32"
        },
        {
          "indexed": false,
          "name": "serialNumber",
          "type": "bytes32"
        },
        {
          "indexed": false,
          "name": "motorNumber",
          "type": "bytes32"
        },
        {
          "indexed": false,
          "name": "reason",
          "type": "bytes32"
        },
        {
          "indexed": false,
          "name": "photos",
          "type": "string"
        },
        {
          "indexed": false,
          "name": "documents",
          "type": "string"
        },
        {
          "indexed": false,
          "name": "ownersId",
          "type": "bytes32[]"
        },
        {
          "indexed": false,
          "name": "ownersNames",
          "type": "bytes32[]"
        },
        {
          "indexed": true,
          "name": "employeeAddress",
          "type": "address"
        }
      ],
      "name": "VehicleRegistered",
      "type": "event"
    },
    {
      "anonymous": false,
      "inputs": [
        {
          "indexed": true,
          "name": "numberPlate",
          "type": "bytes32"
        },
        {
          "indexed": false,
          "name": "color",
          "type": "bytes32"
        },
        {
          "indexed": false,
          "name": "serialNumber",
          "type": "bytes32"
        },
        {
          "indexed": false,
          "name": "motorNumber",
          "type": "bytes32"
        },
        {
          "indexed": false,
          "name": "reason",
          "type": "bytes32"
        },
        {
          "indexed": false,
          "name": "photos",
          "type": "string"
        },
        {
          "indexed": false,
          "name": "documents",
          "type": "string"
        },
        {
          "indexed": false,
          "name": "ownersId",
          "type": "bytes32[]"
        },
        {
          "indexed": false,
          "name": "ownersNames",
          "type": "bytes32[]"
        },
        {
          "indexed": true,
          "name": "employeeAddress",
          "type": "address"
        }
      ],
      "name": "VehicleUpdated",
      "type": "event"
    },
    {
      "anonymous": false,
      "inputs": [
        {
          "indexed": true,
          "name": "previousOwner",
          "type": "address"
        },
        {
          "indexed": true,
          "name": "_newOwner",
          "type": "address"
        }
      ],
      "name": "OwnershipTransferred",
      "type": "event"
    },
    {
      "constant": true,
      "inputs": [],
      "name": "getVehiclesCount",
      "outputs": [
        {
          "name": "",
          "type": "uint256"
        }
      ],
      "payable": false,
      "stateMutability": "view",
      "type": "function"
    },
    {
      "constant": true,
      "inputs": [],
      "name": "getVehicles",
      "outputs": [
        {
          "name": "",
          "type": "bytes32[]"
        }
      ],
      "payable": false,
      "stateMutability": "view",
      "type": "function"
    },
    {
      "constant": true,
      "inputs": [
        {
          "name": "_numberPlate",
          "type": "bytes32"
        },
        {
          "name": "_brand",
          "type": "bytes32"
        },
        {
          "name": "_model",
          "type": "bytes32"
        },
        {
          "name": "_color",
          "type": "bytes32"
        }
      ],
      "name": "getVehiclesFiltered",
      "outputs": [
        {
          "name": "",
          "type": "bytes32[]"
        }
      ],
      "payable": false,
      "stateMutability": "view",
      "type": "function"
    },
    {
      "constant": true,
      "inputs": [
        {
          "name": "_numberPlate",
          "type": "string"
        },
        {
          "name": "_brand",
          "type": "string"
        },
        {
          "name": "_model",
          "type": "string"
        },
        {
          "name": "_color",
          "type": "string"
        }
      ],
      "name": "getVehiclesFilteredWithContains",
      "outputs": [
        {
          "name": "",
          "type": "bytes32[]"
        }
      ],
      "payable": false,
      "stateMutability": "view",
      "type": "function"
    },
    {
      "constant": true,
      "inputs": [
        {
          "name": "_numberPlate",
          "type": "bytes32"
        }
      ],
      "name": "getVehicle",
      "outputs": [
        {
          "name": "",
          "type": "bytes32"
        },
        {
          "name": "",
          "type": "bytes32"
        },
        {
          "name": "",
          "type": "bytes32"
        },
        {
          "name": "",
          "type": "bytes32"
        },
        {
          "name": "",
          "type": "bytes32"
        },
        {
          "name": "",
          "type": "bytes32"
        },
        {
          "name": "",
          "type": "bytes32"
        }
      ],
      "payable": false,
      "stateMutability": "view",
      "type": "function"
    },
    {
      "constant": true,
      "inputs": [
        {
          "name": "_numberPlate",
          "type": "bytes32"
        }
      ],
      "name": "getVehicleDetail",
      "outputs": [
        {
          "name": "",
          "type": "string"
        },
        {
          "name": "",
          "type": "string"
        },
        {
          "name": "",
          "type": "bytes32[]"
        },
        {
          "name": "",
          "type": "bytes32[]"
        },
        {
          "name": "",
          "type": "address"
        }
      ],
      "payable": false,
      "stateMutability": "view",
      "type": "function"
    },
    {
      "constant": true,
      "inputs": [
        {
          "name": "_numberPlate",
          "type": "bytes32"
        }
      ],
      "name": "getVehicleFiltered",
      "outputs": [
        {
          "name": "",
          "type": "bytes32"
        },
        {
          "name": "",
          "type": "bytes32"
        },
        {
          "name": "",
          "type": "bytes32"
        },
        {
          "name": "",
          "type": "string"
        }
      ],
      "payable": false,
      "stateMutability": "view",
      "type": "function"
    },
    {
      "constant": true,
      "inputs": [
        {
          "name": "_numberPlate",
          "type": "bytes32"
        }
      ],
      "name": "vehicleExists",
      "outputs": [
        {
          "name": "",
          "type": "bool"
        }
      ],
      "payable": false,
      "stateMutability": "view",
      "type": "function"
    },
    {
      "constant": true,
      "inputs": [
        {
          "name": "_serialNumber",
          "type": "bytes32"
        }
      ],
      "name": "serialNumberExists",
      "outputs": [
        {
          "name": "",
          "type": "bool"
        }
      ],
      "payable": false,
      "stateMutability": "view",
      "type": "function"
    },
    {
      "constant": true,
      "inputs": [
        {
          "name": "_motorNumber",
          "type": "bytes32"
        }
      ],
      "name": "motorNumberExists",
      "outputs": [
        {
          "name": "",
          "type": "bool"
        }
      ],
      "payable": false,
      "stateMutability": "view",
      "type": "function"
    },
    {
      "constant": true,
      "inputs": [
        {
          "name": "_numberPlate",
          "type": "bytes32"
        },
        {
          "name": "_serialNumber",
          "type": "bytes32"
        }
      ],
      "name": "serialNumberSelfExists",
      "outputs": [
        {
          "name": "",
          "type": "bool"
        }
      ],
      "payable": false,
      "stateMutability": "view",
      "type": "function"
    },
    {
      "constant": true,
      "inputs": [
        {
          "name": "_numberPlate",
          "type": "bytes32"
        },
        {
          "name": "_motorNumber",
          "type": "bytes32"
        }
      ],
      "name": "motorNumberSelfExists",
      "outputs": [
        {
          "name": "",
          "type": "bool"
        }
      ],
      "payable": false,
      "stateMutability": "view",
      "type": "function"
    },
    {
      "constant": false,
      "inputs": [
        {
          "name": "_numberPlate",
          "type": "bytes32"
        },
        {
          "name": "_brand",
          "type": "bytes32"
        },
        {
          "name": "_model",
          "type": "bytes32"
        },
        {
          "name": "_color",
          "type": "bytes32"
        },
        {
          "name": "_serialNumber",
          "type": "bytes32"
        },
        {
          "name": "_motorNumber",
          "type": "bytes32"
        },
        {
          "name": "_reason",
          "type": "bytes32"
        },
        {
          "name": "_photos",
          "type": "string"
        },
        {
          "name": "_documents",
          "type": "string"
        },
        {
          "name": "_ownersId",
          "type": "bytes32[]"
        },
        {
          "name": "_ownersNames",
          "type": "bytes32[]"
        }
      ],
      "name": "registerVehicle",
      "outputs": [
        {
          "name": "",
          "type": "bool"
        }
      ],
      "payable": false,
      "stateMutability": "nonpayable",
      "type": "function"
    },
    {
      "constant": false,
      "inputs": [
        {
          "name": "_numberPlate",
          "type": "bytes32"
        },
        {
          "name": "_color",
          "type": "bytes32"
        },
        {
          "name": "_serialNumber",
          "type": "bytes32"
        },
        {
          "name": "_motorNumber",
          "type": "bytes32"
        },
        {
          "name": "_reason",
          "type": "bytes32"
        },
        {
          "name": "_photos",
          "type": "string"
        },
        {
          "name": "_documents",
          "type": "string"
        },
        {
          "name": "_ownersId",
          "type": "bytes32[]"
        },
        {
          "name": "_ownersNames",
          "type": "bytes32[]"
        }
      ],
      "name": "updateVehicle",
      "outputs": [
        {
          "name": "",
          "type": "bool"
        }
      ],
      "payable": false,
      "stateMutability": "nonpayable",
      "type": "function"
    },
    {
      "constant": false,
      "inputs": [
        {
          "name": "_numberPlate",
          "type": "bytes32"
        },
        {
          "name": "_photos",
          "type": "string"
        }
      ],
      "name": "updateVehiclePhotos",
      "outputs": [
        {
          "name": "",
          "type": "bool"
        }
      ],
      "payable": false,
      "stateMutability": "nonpayable",
      "type": "function"
    },
    {
      "constant": false,
      "inputs": [
        {
          "name": "_numberPlate",
          "type": "bytes32"
        },
        {
          "name": "_documents",
          "type": "string"
        }
      ],
      "name": "updateVehicleDocuments",
      "outputs": [
        {
          "name": "",
          "type": "bool"
        }
      ],
      "payable": false,
      "stateMutability": "nonpayable",
      "type": "function"
    },
    {
      "constant": false,
      "inputs": [
        {
          "name": "_numberPlate",
          "type": "bytes32"
        },
        {
          "name": "_ownersId",
          "type": "bytes32[]"
        },
        {
          "name": "_ownersNames",
          "type": "bytes32[]"
        }
      ],
      "name": "updateVehicleOwner",
      "outputs": [
        {
          "name": "",
          "type": "bool"
        }
      ],
      "payable": false,
      "stateMutability": "nonpayable",
      "type": "function"
    },
    {
      "constant": true,
      "inputs": [
        {
          "name": "word",
          "type": "string"
        },
        {
          "name": "filter",
          "type": "string"
        }
      ],
      "name": "contains",
      "outputs": [
        {
          "name": "",
          "type": "bool"
        }
      ],
      "payable": false,
      "stateMutability": "pure",
      "type": "function"
    },
    {
      "constant": true,
      "inputs": [
        {
          "name": "word",
          "type": "string"
        }
      ],
      "name": "isEmpty",
      "outputs": [
        {
          "name": "",
          "type": "bool"
        }
      ],
      "payable": false,
      "stateMutability": "pure",
      "type": "function"
    }
  ],
  "bytecode": "0x608060405260008054600160a060020a0319163317905561321e806100256000396000f3006080604052600436106101955763ffffffff7c01000000000000000000000000000000000000000000000000000000006000350416630a2eb301811461019a57806314a5d6da146101cf578063177c4940146101f8578063197fa4b5146102105780631f8787dc14610337578063249c76fd1461035e57806327341c8a146103765780632a96ab90146103cf57806332648e091461042d5780633fb18aec14610476578063501df3f11461050d578063528b70211461055d5780635823aaef146105f05780635f3ced4e1461060b57806363794755146107a057806368fa81341461084957806375b784261461086a57806376287d341461087f5780637c3fa493146109e25780638da5cb5b14610a035780639890369b14610a34578063a7536ce714610a4f578063a8cb9d0314610a67578063b77c8f7014610b83578063c68ea5cd14610b9b578063d067894714610bf9578063d108177a14610c49578063d65a62e314610c6a578063e6b7e20714610c7f578063ea66543f14610c94578063ed13e2a814610cb5578063f2fde38b14610cdc575b600080fd5b3480156101a657600080fd5b506101bb600160a060020a0360043516610cfd565b604080519115158252519081900360200190f35b3480156101db57600080fd5b506101f6600160a060020a0360043516602435604435610d1f565b005b34801561020457600080fd5b506101bb600435610fd2565b34801561021c57600080fd5b50604080516020600460e43581810135601f81018490048402850184019095528484526101bb94823594602480359560443595606435956084359560a4359560c4359536956101049492939190920191819084018382808284375050604080516020601f89358b018035918201839004830284018301909452808352979a999881019791965091820194509250829150840183828082843750506040805187358901803560208181028481018201909552818452989b9a998901989297509082019550935083925085019084908082843750506040805187358901803560208181028481018201909552818452989b9a9989019892975090820195509350839250850190849080828437509497506110369650505050505050565b34801561034357600080fd5b5061034c6114e5565b60408051918252519081900360200190f35b34801561036a57600080fd5b506101bb6004356114ec565b34801561038257600080fd5b506040805160206004803580820135601f81018490048402850184019095528484526101bb9436949293602493928401919081908401838280828437509497506114ff9650505050505050565b3480156103db57600080fd5b5060408051602060046024803582810135601f81018590048502860185019096528585526101bb9583359536956044949193909101919081908401838280828437509497506115189650505050505050565b34801561043957600080fd5b5061044e600160a060020a0360043516611667565b6040805194855260208501939093529015158383015215156060830152519081900360800190f35b34801561048257600080fd5b506040805160206004803580820135601f81018490048402850184019095528484526101bb94369492936024939284019190819084018382808284375050604080516020601f89358b018035918201839004830284018301909452808352979a9998810197919650918201945092508291508401838280828437509497506116a19650505050505050565b34801561051957600080fd5b506105256004356116c4565b604080519788526020880196909652868601949094526060860192909252608085015260a084015260c0830152519081900360e00190f35b34801561056957600080fd5b506040805160206004602480358281013584810280870186019097528086526101bb96843596369660449591949091019291829185019084908082843750506040805187358901803560208181028481018201909552818452989b9a9989019892975090820195509350839250850190849080828437509497506117019650505050505050565b3480156105fc57600080fd5b506101bb6004356024356118d0565b34801561061757600080fd5b506106236004356118e9565b604051808060200180602001806020018060200186600160a060020a0316600160a060020a0316815260200185810385528a818151815260200191508051906020019080838360005b8381101561068457818101518382015260200161066c565b50505050905090810190601f1680156106b15780820380516001836020036101000a031916815260200191505b5085810384528951815289516020918201918b019080838360005b838110156106e45781810151838201526020016106cc565b50505050905090810190601f1680156107115780820380516001836020036101000a031916815260200191505b508581038352885181528851602091820191808b01910280838360005b8381101561074657818101518382015260200161072e565b50505050905001858103825287818151815260200191508051906020019060200280838360005b8381101561078557818101518382015260200161076d565b50505050905001995050505050505050505060405180910390f35b3480156107ac57600080fd5b506107b8600435611afc565b60408051858152602080820186905291810184905260806060820181815284519183019190915283519192909160a084019185019080838360005b8381101561080b5781810151838201526020016107f3565b50505050905090810190601f1680156108385780820380516001836020036101000a031916815260200191505b509550505050505060405180910390f35b34801561085557600080fd5b506101f6600160a060020a0360043516611bc2565b34801561087657600080fd5b5061034c611cd1565b34801561088b57600080fd5b506040805160206004803580820135601f810184900484028501840190955284845261099294369492936024939284019190819084018382808284375050604080516020601f89358b018035918201839004830284018301909452808352979a99988101979196509182019450925082915084018382808284375050604080516020601f89358b018035918201839004830284018301909452808352979a99988101979196509182019450925082915084018382808284375050604080516020601f89358b018035918201839004830284018301909452808352979a999881019791965091820194509250829150840183828082843750949750611cd79650505050505050565b60408051602080825283518183015283519192839290830191858101910280838360005b838110156109ce5781810151838201526020016109b6565b505050509050019250505060405180910390f35b3480156109ee57600080fd5b50610992600435602435604435606435611f8d565b348015610a0f57600080fd5b50610a186121c0565b60408051600160a060020a039092168252519081900360200190f35b348015610a4057600080fd5b506101bb6004356024356121cf565b348015610a5b57600080fd5b50610a186004356121e6565b348015610a7357600080fd5b50604080516020600460a43581810135601f81018490048402850184019095528484526101bb9482359460248035956044359560643595608435953695929460c494920191819084018382808284375050604080516020601f89358b018035918201839004830284018301909452808352979a999881019791965091820194509250829150840183828082843750506040805187358901803560208181028481018201909552818452989b9a998901989297509082019550935083925085019084908082843750506040805187358901803560208181028481018201909552818452989b9a99890198929750908201955093508392508501908490808284375094975061220e9650505050505050565b348015610b8f57600080fd5b506101bb60043561261f565b348015610ba757600080fd5b5060408051602060046024803582810135601f81018590048502860185019096528585526101bb95833595369560449491939091019190819084018382808284375094975061267c9650505050505050565b348015610c0557600080fd5b50610c1a600160a060020a03600435166127c1565b604080519586526020860194909452911515848401521515606084015215156080830152519081900360a00190f35b348015610c5557600080fd5b506101f6600160a060020a03600435166127f7565b348015610c7657600080fd5b50610992612927565b348015610c8b57600080fd5b50610992612989565b348015610ca057600080fd5b506101bb600160a060020a03600435166129e1565b348015610cc157600080fd5b506101f6600160a060020a0360043516602435604435612a08565b348015610ce857600080fd5b506101f6600160a060020a0360043516612c3b565b600160a060020a03166000908152600260208190526040909120015460ff1690565b600054600160a060020a03163314610da7576040805160e560020a62461bcd02815260206004820152602e60248201527f596f7520617265206e6f7420746865206f776e65722e20596f7520617265206e60448201527f6f7420617574686f72697a65642e000000000000000000000000000000000000606482015290519081900360840190fd5b600160a060020a0383161515610e09576040805160e560020a62461bcd02815260206004820152603060248201526000805160206131338339815191526044820152600080516020613173833981519152606482015290519081900360840190fd5b600160a060020a03831660009081526002602081905260409091200154610100900460ff168015610e575750600160a060020a0383166000908152600260208190526040909120015460ff16155b15610e8857600160a060020a038316600090815260026020819052604090912001805460ff19166001179055610fcd565b600160a060020a0383166000908152600260208190526040909120015462010000900460ff161515610f2c57600180548082019091557fb10e2d527612073b26eecdfd717e6a320cf44b4afac2b0732d9fcbe2b7fa0cf6018054600160a060020a03851673ffffffffffffffffffffffffffffffffffffffff199091168117909155600090815260026020819052604090912001805462ff00001916620100001790555b6040805160a0810182528381526020808201848152600183850181815260608501828152600160a060020a038a1660008181526002808852988120808a0180546201000080820460ff16151560808d01908152959094529a9098529751885594519690930195909555519351905160ff199095169315159390931761ff001916610100931515939093029290921762ff000019169215159091029190911790555b505050565b600080805b60035481101561102f57836000191660046000600384815481101515610ff957fe5b600091825260208083209091015483528201929092526040019020600501541415611027576001915061102f565b600101610fd7565b5092915050565b336000908152600260208190526040822001548190610100900460ff16806110685750600054600160a060020a031633145b15156110c0576040805160e560020a62461bcd02815260206004820152602f60248201526000805160206131d38339815191526044820152600080516020613153833981519152606482015290519081900360840190fd5b60008d11611106576040805160e560020a62461bcd02815260206004820152601e60248201526000805160206131b3833981519152604482015290519081900360640190fd5b60008d8152600460205260408120541115611191576040805160e560020a62461bcd02815260206004820152602260248201527f5468652076656869636c6520697320616c72656164792072656769737465726560448201527f642e000000000000000000000000000000000000000000000000000000000000606482015290519081900360840190fd5b82518451146111ea576040805160e560020a62461bcd02815260206004820152601b60248201527f4f776e657273206461746120646f6573206e6f74206d617463682e0000000000604482015290519081900360640190fd5b5060008c81526004602081815260409092208e8155600181018e9055600281018d9055600381018c90559081018a905560058101899055600681018890558651909161123d916007840191890190613046565b5084516112539060088301906020880190613046565b50835161126990600983019060208701906130c4565b50825161127f90600a83019060208601906130c4565b503381600b0160006101000a815481600160a060020a030219169083600160a060020a0316021790555060038d908060018154018082558091505090600182039060005260206000200160009091929091909150906000191690555033600160a060020a03168d600019167f5adf0cfe500edb47a40576e1399771b724a14e37497b17a7cc841cfa443722c88e8e8e8e8e8e8e8e8e8e604051808b600019166000191681526020018a60001916600019168152602001896000191660001916815260200188600019166000191681526020018760001916600019168152602001866000191660001916815260200180602001806020018060200180602001858103855289818151815260200191508051906020019080838360005b838110156113b257818101518382015260200161139a565b50505050905090810190601f1680156113df5780820380516001836020036101000a031916815260200191505b5085810384528851815288516020918201918a019080838360005b838110156114125781810151838201526020016113fa565b50505050905090810190601f16801561143f5780820380516001836020036101000a031916815260200191505b508581038352875181528751602091820191808a01910280838360005b8381101561147457818101518382015260200161145c565b50505050905001858103825286818151815260200191508051906020019060200280838360005b838110156114b357818101518382015260200161149b565b505050509050019e50505050505050505050505050505060405180910390a35060019c9b505050505050505050505050565b6003545b90565b6000908152600460205260408120541190565b600061151261150d83612d8d565b612db3565b92915050565b33600090815260026020819052604082200154610100900460ff16806115485750600054600160a060020a031633145b15156115a0576040805160e560020a62461bcd02815260206004820152602f60248201526000805160206131d38339815191526044820152600080516020613153833981519152606482015290519081900360840190fd5b600083116115e6576040805160e560020a62461bcd02815260206004820152601e60248201526000805160206131b3833981519152604482015290519081900360640190fd5b60008381526004602052604081205411611638576040805160e560020a62461bcd02815260206004820152601e6024820152600080516020613193833981519152604482015290519081900360640190fd5b6000838152600460209081526040909120835161165d92600890920191850190613046565b5060019392505050565b600160a060020a031660009081526002602081905260409091208054600182015491909201549192909160ff808216926101009092041690565b60006116bd6116af84612d8d565b6116b884612d8d565b612db8565b9392505050565b6000908152600460208190526040909120805460018201546002830154600384015494840154600585015460069095015493969295919491939092565b33600090815260026020819052604082200154610100900460ff16806117315750600054600160a060020a031633145b1515611789576040805160e560020a62461bcd02815260206004820152602f60248201526000805160206131d38339815191526044820152600080516020613153833981519152606482015290519081900360840190fd5b600084116117cf576040805160e560020a62461bcd02815260206004820152601e60248201526000805160206131b3833981519152604482015290519081900360640190fd5b60008481526004602052604081205411611821576040805160e560020a62461bcd02815260206004820152601e6024820152600080516020613193833981519152604482015290519081900360640190fd5b815183511461187a576040805160e560020a62461bcd02815260206004820152601b60248201527f4f776e657273206461746120646f6573206e6f74206d617463682e0000000000604482015290519081900360640190fd5b6000848152600460209081526040909120845161189f926009909201918601906130c4565b50600084815260046020908152604090912083516118c592600a909201918501906130c4565b506001949350505050565b6000918252600460208190526040909220909101541490565b6000818152600460209081526040808320600b8101546007820180548451601f60026001841615610100026000190190931692909204918201879004870281018701909552808552606096879687968796929592949360088601936009870193600a880193600160a060020a039092169287918301828280156119ad5780601f10611982576101008083540402835291602001916119ad565b820191906000526020600020905b81548152906001019060200180831161199057829003601f168201915b5050875460408051602060026001851615610100026000190190941693909304601f8101849004840282018401909252818152959a5089945092508401905082828015611a3b5780601f10611a1057610100808354040283529160200191611a3b565b820191906000526020600020905b815481529060010190602001808311611a1e57829003601f168201915b5050505050935082805480602002602001604051908101604052809291908181526020018280548015611a8e57602002820191906000526020600020905b81548152600190910190602001808311611a79575b5050505050925081805480602002602001604051908101604052809291908181526020018280548015611ae157602002820191906000526020600020905b81548152600190910190602001808311611acc575b50505050509150955095509550955095505091939590929450565b6000818152600460209081526040808320805460018083015460028085015460078601805488516000199682161561010002969096011692909204601f810189900489028501890190975286845288978897606097969592939291839190830182828015611bab5780601f10611b8057610100808354040283529160200191611bab565b820191906000526020600020905b815481529060010190602001808311611b8e57829003601f168201915b505050505090509450945094509450509193509193565b600054600160a060020a03163314611c4a576040805160e560020a62461bcd02815260206004820152602e60248201527f596f7520617265206e6f7420746865206f776e65722e20596f7520617265206e60448201527f6f7420617574686f72697a65642e000000000000000000000000000000000000606482015290519081900360840190fd5b600160a060020a0381161515611cac576040805160e560020a62461bcd02815260206004820152603060248201526000805160206131338339815191526044820152600080516020613173833981519152606482015290519081900360840190fd5b600160a060020a0316600090815260026020819052604090912001805460ff19169055565b60015490565b60608060008060608060608060606000600380549050604051908082528060200260200182016040528015611d16578160200160208202803883390190505b509850600097508796505b600354871015611ede57611d626004600060038a815481101515611d4157fe5b60009182526020808320909101548352820192909252604001902054612ddf565b9550611d9e6004600060038a815481101515611d7a57fe5b60009182526020808320909101548352820192909252604001902060010154612ddf565b9450611dda6004600060038a815481101515611db657fe5b60009182526020808320909101548352820192909252604001902060020154612ddf565b9350611e166004600060038a815481101515611df257fe5b60009182526020808320909101548352820192909252604001902060030154612ddf565b9250611e218e6114ff565b158015611e335750611e33868f6116a1565b80611e545750611e428d6114ff565b158015611e545750611e54858e6116a1565b80611e755750611e638c6114ff565b158015611e755750611e75848d6116a1565b80611e965750611e848b6114ff565b158015611e965750611e96838c6116a1565b15611ed3576003805488908110611ea957fe5b90600052602060002001548988815181101515611ec257fe5b602090810290910101526001909701965b600190960195611d21565b87604051908082528060200260200182016040528015611f08578160200160208202803883390190505b50915060009050600096505b8851871015611f7c5788516000908a9089908110611f2e57fe5b6020908102909101015114611f71578887815181101515611f4b57fe5b906020019060200201518282815181101515611f6357fe5b602090810290910101526001015b600190960195611f14565b509c9b505050505050505050505050565b60608060008060606000600380549050604051908082528060200260200182016040528015611fc6578160200160208202803883390190505b509450600093508392505b60035483101561211557896000191660046000600386815481101515611ff357fe5b60009182526020808320909101548352820192909252604001902054148061204f575088600019166004600060038681548110151561202e57fe5b60009182526020808320909101548352820192909252604001902060010154145b8061208e575087600019166004600060038681548110151561206d57fe5b60009182526020808320909101548352820192909252604001902060020154145b806120cd57508660001916600460006003868154811015156120ac57fe5b60009182526020808320909101548352820192909252604001902060030154145b1561210a5760038054849081106120e057fe5b906000526020600020015485848151811015156120f957fe5b602090810290910101526001909301925b600190920191611fd1565b8360405190808252806020026020018201604052801561213f578160200160208202803883390190505b50915060009050600092505b84518310156121b357845160009086908590811061216557fe5b60209081029091010151146121a857848381518110151561218257fe5b90602001906020020151828281518110151561219a57fe5b602090810290910101526001015b60019092019161214b565b5098975050505050505050565b600054600160a060020a031681565b600091825260046020526040909120600501541490565b60018054829081106121f457fe5b600091825260209091200154600160a060020a0316905081565b336000908152600260208190526040822001548190610100900460ff16806122405750600054600160a060020a031633145b1515612298576040805160e560020a62461bcd02815260206004820152602f60248201526000805160206131d38339815191526044820152600080516020613153833981519152606482015290519081900360840190fd5b60008b116122de576040805160e560020a62461bcd02815260206004820152601e60248201526000805160206131b3833981519152604482015290519081900360640190fd5b60008b81526004602052604081205411612330576040805160e560020a62461bcd02815260206004820152601e6024820152600080516020613193833981519152604482015290519081900360640190fd5b8251845114612389576040805160e560020a62461bcd02815260206004820152601b60248201527f4f776e657273206461746120646f6573206e6f74206d617463682e0000000000604482015290519081900360640190fd5b5060008a8152600460208181526040909220600381018c90559081018a90556005810189905560068101889055865190916123cb916007840191890190613046565b5084516123e19060088301906020880190613046565b5083516123f790600983019060208701906130c4565b50825161240d90600a83019060208601906130c4565b503381600b0160006101000a815481600160a060020a030219169083600160a060020a0316021790555033600160a060020a03168b600019167fb18ff714db266186b00d156a6fbcb98d7d286375a19f3dc9b189eca961aaa4808c8c8c8c8c8c8c8c60405180896000191660001916815260200188600019166000191681526020018760001916600019168152602001866000191660001916815260200180602001806020018060200180602001858103855289818151815260200191508051906020019080838360005b838110156124f05781810151838201526020016124d8565b50505050905090810190601f16801561251d5780820380516001836020036101000a031916815260200191505b5085810384528851815288516020918201918a019080838360005b83811015612550578181015183820152602001612538565b50505050905090810190601f16801561257d5780820380516001836020036101000a031916815260200191505b508581038352875181528751602091820191808a01910280838360005b838110156125b257818101518382015260200161259a565b50505050905001858103825286818151815260200191508051906020019060200280838360005b838110156125f15781810151838201526020016125d9565b505050509050019c5050505050505050505050505060405180910390a35060019a9950505050505050505050565b600080805b60035481101561102f5783600019166004600060038481548110151561264657fe5b600091825260208083209091015483528201929092526040019020600401541415612674576001915061102f565b600101612624565b33600090815260026020819052604082200154610100900460ff16806126ac5750600054600160a060020a031633145b1515612704576040805160e560020a62461bcd02815260206004820152602f60248201526000805160206131d38339815191526044820152600080516020613153833981519152606482015290519081900360840190fd5b6000831161274a576040805160e560020a62461bcd02815260206004820152601e60248201526000805160206131b3833981519152604482015290519081900360640190fd5b6000838152600460205260408120541161279c576040805160e560020a62461bcd02815260206004820152601e6024820152600080516020613193833981519152604482015290519081900360640190fd5b6000838152600460209081526040909120835161165d92600790920191850190613046565b600260208190526000918252604090912080546001820154919092015460ff808216916101008104821691620100009091041685565b336000908152600260208190526040909120015460ff16806128235750600054600160a060020a031633145b151561289f576040805160e560020a62461bcd02815260206004820152603460248201527f596f7520617265206e6f7420612061646d696e6973747261746f722e20596f7560448201527f20617265206e6f7420617574686f72697a65642e000000000000000000000000606482015290519081900360840190fd5b600160a060020a0381161515612901576040805160e560020a62461bcd02815260206004820152603060248201526000805160206131338339815191526044820152600080516020613173833981519152606482015290519081900360840190fd5b600160a060020a0316600090815260026020819052604090912001805461ff0019169055565b6060600180548060200260200160405190810160405280929190818152602001828054801561297f57602002820191906000526020600020905b8154600160a060020a03168152600190910190602001808311612961575b5050505050905090565b6060600380548060200260200160405190810160405280929190818152602001828054801561297f57602002820191906000526020600020905b815481526001909101906020018083116129c3575050505050905090565b600160a060020a031660009081526002602081905260409091200154610100900460ff1690565b336000908152600260208190526040909120015460ff1680612a345750600054600160a060020a031633145b1515612ab0576040805160e560020a62461bcd02815260206004820152603460248201527f596f7520617265206e6f7420612061646d696e6973747261746f722e20596f7560448201527f20617265206e6f7420617574686f72697a65642e000000000000000000000000606482015290519081900360840190fd5b600160a060020a0383161515612b12576040805160e560020a62461bcd02815260206004820152603060248201526000805160206131338339815191526044820152600080516020613173833981519152606482015290519081900360840190fd5b6040805160a0810182528381526020808201848152600160a060020a03871660008181526002808552868220808201805460ff80821615159a8a019a8b52600160608b01818152620100008085048416151560808e019081529990985295909952985183559551969091019590955595519551915160ff199093169515159590951761ff001916610100911515919091021762ff000019169015158402179081905591909104161515610fcd57600180548082019091557fb10e2d527612073b26eecdfd717e6a320cf44b4afac2b0732d9fcbe2b7fa0cf6018054600160a060020a03851673ffffffffffffffffffffffffffffffffffffffff199091168117909155600090815260026020819052604090912001805462ff0000191662010000179055505050565b600054600160a060020a03163314612cc3576040805160e560020a62461bcd02815260206004820152602e60248201527f596f7520617265206e6f7420746865206f776e65722e20596f7520617265206e60448201527f6f7420617574686f72697a65642e000000000000000000000000000000000000606482015290519081900360840190fd5b600160a060020a0381161515612d25576040805160e560020a62461bcd02815260206004820152603060248201526000805160206131338339815191526044820152600080516020613173833981519152606482015290519081900360840190fd5b60008054604051600160a060020a03808516939216917f8be0079c531659141344cd1fd0a4f28419497f9722a3daafe3b4186f6b6457e091a36000805473ffffffffffffffffffffffffffffffffffffffff1916600160a060020a0392909216919091179055565b612d95613101565b50604080518082019091528151815260209182019181019190915290565b511590565b6020808301518351835192840151600093612dd69291849190612f8d565b14159392505050565b6040805160208082528183019092526060918291600091829182918591908082016104008038833901905050945060009350600092505b6020831015612ea3576008830260020a870291507fff00000000000000000000000000000000000000000000000000000000000000821615612e9857818585815181101515612e6157fe5b9060200101907effffffffffffffffffffffffffffffffffffffffffffffffffffffffffffff1916908160001a9053506001909301925b600190920191612e16565b836040519080825280601f01601f191660200182016040528015612ed1578160200160208202803883390190505b509050600092505b83831015612f83578483815181101515612eef57fe5b9060200101517f010000000000000000000000000000000000000000000000000000000000000090047f0100000000000000000000000000000000000000000000000000000000000000028184815181101515612f4857fe5b9060200101907effffffffffffffffffffffffffffffffffffffffffffffffffffffffffffff1916908160001a905350600190920191612ed9565b9695505050505050565b60008080808080808a89116130345760208911612fff5760018960200360080260020a03196001029450848851169350888b8b010395508486511692505b828414612ff557898611612fe157899650613038565b600019909501805190959085169250612fcb565b8886019650613038565b8888209150888b038a0195505b898610613034575087852081811415613029578886019650613038565b60018603955061300c565b8996505b505050505050949350505050565b828054600181600116156101000203166002900490600052602060002090601f016020900481019282601f1061308757805160ff19168380011785556130b4565b828001600101855582156130b4579182015b828111156130b4578251825591602001919060010190613099565b506130c0929150613118565b5090565b8280548282559060005260206000209081019282156130b4579160200282015b828111156130b457825182556020909201916001909101906130e4565b604080518082019091526000808252602082015290565b6114e991905b808211156130c0576000815560010161311e5600596f7520617474656d7074656420746f20616464207065726d697373696f6e736e6f7420617574686f72697a65642e000000000000000000000000000000000020746f2030783020616464726573732e000000000000000000000000000000005468652076656869636c65206973206e6f7420726567697374657265642e00004e756d62657220706c6174652063616e206e6f7420626520656d7074792e0000596f7520617265206e6f74206120656d706c6f7965652e20596f752061726520a165627a7a72305820dc1da062c00cb234b2b26549d882d76a1569139fa29347b17b24f340708d11980029",
  "source": "pragma solidity ^0.4.24;\n//pragma experimental ABIEncoderV2;\n\nimport \"./strings.sol\";\nimport \"./authorizable.sol\";\n\n\ncontract VehicleFactory is Authorizable {\n\n    using Strings for *;\n\n    // Structs\n    struct Vehicle {\n        // Inmutable\n        bytes32 numberPlate;\n        bytes32 brand;\n        bytes32 model;\n\n        // Mutable\n        bytes32 color;\n        bytes32 serialNumber; // chassis\n        bytes32 motorNumber;\n        bytes32 reason;\n\n        string photos;\n        string documents;\n        bytes32[] ownersIds;\n        bytes32[] ownersNames;\n\n        address employeeAddress;\n    }\n\n    // Global variables\n    bytes32[] private vehiclesNumberPlate;\n    mapping (bytes32 => Vehicle) private vehicles;\n    \n    // Events\n    event VehicleRegistered\n    (\n        bytes32 indexed numberPlate, bytes32 brand, bytes32 model,\n        bytes32 color, bytes32 serialNumber, bytes32 motorNumber, bytes32 reason,\n        string photos, string documents, bytes32[] ownersId, bytes32[] ownersNames,\n        address indexed employeeAddress\n    );\n\n    event VehicleUpdated\n    (\n        bytes32 indexed numberPlate,\n        bytes32 color, bytes32 serialNumber, bytes32 motorNumber, bytes32 reason,\n        string photos, string documents, bytes32[] ownersId, bytes32[] ownersNames,\n        address indexed employeeAddress\n    );\n\n\n    // Methods: GET\n    function getVehiclesCount() \n    public view returns (uint) {\n        return vehiclesNumberPlate.length;\n    }\n\n    function getVehicles() \n    public view returns (bytes32[]) {\n        return vehiclesNumberPlate;\n    }\n\n    function getVehiclesFiltered\n    (\n        bytes32 _numberPlate, \n        bytes32 _brand, bytes32 _model,\n        bytes32 _color\n    )\n    public view returns (bytes32[]) {\n        bytes32[] memory vehiclesFiltered = new bytes32[](vehiclesNumberPlate.length);\n        uint count = 0;\n        uint i = 0;\n        for(i = 0; i<vehiclesNumberPlate.length; i++) {\n            if( vehicles[vehiclesNumberPlate[i]].numberPlate == _numberPlate ||\n                vehicles[vehiclesNumberPlate[i]].brand == _brand ||\n                vehicles[vehiclesNumberPlate[i]].model == _model ||\n                vehicles[vehiclesNumberPlate[i]].color == _color) {\n                vehiclesFiltered[i] = vehiclesNumberPlate[i];\n                count++;\n            }\n        }\n\n        bytes32[] memory vehiclesResult = new bytes32[](count);\n        uint j = 0;\n        for(i = 0; i<vehiclesFiltered.length; i++) {\n            if(vehiclesFiltered[i] != bytes32(0)) {\n                vehiclesResult[j] = vehiclesFiltered[i];\n                j++;\n            }\n        }\n        return vehiclesResult;\n    }\n\n    function getVehiclesFilteredWithContains\n    (\n        string _numberPlate, \n        string _brand, string _model,\n        string _color\n    )\n    public view returns (bytes32[]) {\n        bytes32[] memory vehiclesFiltered = new bytes32[](vehiclesNumberPlate.length);\n        uint count = 0;\n        uint i = 0;\n        for(i = 0; i<vehiclesNumberPlate.length; i++) {\n            string memory numberPlate = bytes32ToString(vehicles[vehiclesNumberPlate[i]].numberPlate);\n            string memory brand = bytes32ToString(vehicles[vehiclesNumberPlate[i]].brand);\n            string memory model = bytes32ToString(vehicles[vehiclesNumberPlate[i]].model);\n            string memory color = bytes32ToString(vehicles[vehiclesNumberPlate[i]].color);\n\n            if(!isEmpty(_numberPlate) && contains(numberPlate, _numberPlate) ||\n                !isEmpty(_brand) && contains(brand, _brand) ||\n                !isEmpty(_model) && contains(model, _model) ||\n                !isEmpty(_color) && contains(color, _color)) {\n                vehiclesFiltered[i] = vehiclesNumberPlate[i];\n                count++;\n            }\n        }\n\n        bytes32[] memory vehiclesResult = new bytes32[](count);\n        uint j = 0;\n        for(i = 0; i<vehiclesFiltered.length; i++) {\n            if(vehiclesFiltered[i] != bytes32(0)) {\n                vehiclesResult[j] = vehiclesFiltered[i];\n                j++;\n            }\n        }\n        return vehiclesResult;\n    }\n\n    function getVehicle\n    (\n        bytes32 _numberPlate\n    )\n    public view returns \n    (\n        bytes32, bytes32, bytes32,\n        bytes32, bytes32, bytes32, bytes32\n    ) {\n        Vehicle storage vehicle = vehicles[_numberPlate];\n        return (\n            vehicle.numberPlate, vehicle.brand, vehicle.model,\n            vehicle.color, vehicle.serialNumber, vehicle.motorNumber, vehicle.reason\n        );\n    }\n\n    function getVehicleDetail\n    (\n        bytes32 _numberPlate\n    )\n    public view returns\n    (\n        string, string, bytes32[], bytes32[],\n        address\n    ) {\n        Vehicle storage vehicle = vehicles[_numberPlate];\n        return (\n            vehicle.photos, vehicle.documents, vehicle.ownersIds, vehicle.ownersNames,\n            vehicle.employeeAddress\n        );\n    }\n\n    function getVehicleFiltered\n    (\n        bytes32 _numberPlate\n    )\n    public view returns \n    (\n        bytes32, bytes32, bytes32, string\n    ) {\n        Vehicle storage vehicle = vehicles[_numberPlate];\n        return (\n            vehicle.numberPlate, vehicle.brand, vehicle.model, vehicle.photos\n        );\n    }\n\n    // Methods: EXISTS\n    function vehicleExists\n    (\n        bytes32 _numberPlate\n    )\n    public view returns (bool) {\n        return vehicles[_numberPlate].numberPlate > 0;\n    }\n\n    function serialNumberExists\n    (\n        bytes32 _serialNumber\n    )\n    public view returns (bool) {\n        bool exists;\n        uint i = 0;\n        for(i = 0; i<vehiclesNumberPlate.length; i++) {\n            if( vehicles[vehiclesNumberPlate[i]].serialNumber == _serialNumber) {\n                exists = true;\n                break;\n            }\n        }\n        return exists;\n    }\n\n    function motorNumberExists\n    (\n        bytes32 _motorNumber\n    )\n    public view returns (bool) {\n        bool exists;\n        uint i = 0;\n        for(i = 0; i<vehiclesNumberPlate.length; i++) {\n            if( vehicles[vehiclesNumberPlate[i]].motorNumber == _motorNumber) {\n                exists = true;\n                break;\n            }\n        }\n        return exists;\n    }\n\n    function serialNumberSelfExists\n    (\n        bytes32 _numberPlate, bytes32 _serialNumber\n    )\n    public view returns (bool) {\n        return vehicles[_numberPlate].serialNumber == _serialNumber;\n    }\n\n    function motorNumberSelfExists\n    (\n        bytes32 _numberPlate, bytes32 _motorNumber\n    )\n    public view returns (bool) {\n        return vehicles[_numberPlate].motorNumber == _motorNumber;\n    }\n\n    // Methods: POST\n    function registerVehicle\n    (\n        bytes32 _numberPlate, bytes32 _brand, bytes32 _model,\n        bytes32 _color, bytes32 _serialNumber, bytes32 _motorNumber, bytes32 _reason,\n        string _photos, string _documents, bytes32[] _ownersId, bytes32[] _ownersNames\n    )\n    public onlyEmployee returns (bool) {\n        require(_numberPlate > 0, \"Number plate can not be empty.\");\n        require(vehicles[_numberPlate].numberPlate <= 0, \"The vehicle is already registered.\");\n        require(_ownersId.length == _ownersNames.length, \"Owners data does not match.\");\n\n        Vehicle storage vehicle = vehicles[_numberPlate];\n        vehicle.numberPlate = _numberPlate;\n        vehicle.brand = _brand;\n        vehicle.model = _model;\n\n        vehicle.color = _color;\n        vehicle.serialNumber = _serialNumber;\n        vehicle.motorNumber = _motorNumber;\n        vehicle.reason = _reason;\n\n        vehicle.photos = _photos;\n        vehicle.documents = _documents;\n        vehicle.ownersIds = _ownersId;\n        vehicle.ownersNames = _ownersNames;\n\n        vehicle.employeeAddress = msg.sender;\n\n        vehiclesNumberPlate.push(_numberPlate);\n\n        emit VehicleRegistered(\n            _numberPlate, _brand, _model, _color, _serialNumber, _motorNumber, _reason,\n            _photos, _documents, _ownersId, _ownersNames, msg.sender\n        );\n        return true;\n    }\n    \n    function updateVehicle\n    (\n        bytes32 _numberPlate,\n        bytes32 _color, bytes32 _serialNumber, bytes32 _motorNumber, bytes32 _reason,\n        string _photos, string _documents, bytes32[] _ownersId, bytes32[] _ownersNames\n    )\n    public onlyEmployee returns (bool) {\n        require(_numberPlate > 0, \"Number plate can not be empty.\");\n        require(vehicles[_numberPlate].numberPlate > 0, \"The vehicle is not registered.\");\n        require(_ownersId.length == _ownersNames.length, \"Owners data does not match.\");\n\n        Vehicle storage vehicle = vehicles[_numberPlate];\n        vehicle.color = _color;\n        vehicle.serialNumber = _serialNumber;\n        vehicle.motorNumber = _motorNumber;\n        vehicle.reason = _reason;\n\n        vehicle.photos = _photos;\n        vehicle.documents = _documents;\n        vehicle.ownersIds = _ownersId;\n        vehicle.ownersNames = _ownersNames;\n\n        vehicle.employeeAddress = msg.sender;\n\n        emit VehicleUpdated(\n            _numberPlate, _color, _serialNumber, _motorNumber, _reason,\n            _photos, _documents, _ownersId, _ownersNames,\n            msg.sender\n        );\n        return true;\n    }\n\n    function updateVehiclePhotos\n    (\n        bytes32 _numberPlate,\n        string _photos\n    )\n    public onlyEmployee returns (bool) {\n        require(_numberPlate > 0, \"Number plate can not be empty.\");\n        require(vehicles[_numberPlate].numberPlate > 0, \"The vehicle is not registered.\");\n\n        vehicles[_numberPlate].photos = _photos;\n        return true;\n    }\n\n    function updateVehicleDocuments\n    (\n        bytes32 _numberPlate,\n        string _documents\n    )\n    public onlyEmployee returns (bool) {\n        require(_numberPlate > 0, \"Number plate can not be empty.\");\n        require(vehicles[_numberPlate].numberPlate > 0, \"The vehicle is not registered.\");\n\n        vehicles[_numberPlate].documents = _documents;\n        return true;\n    }\n\n    function updateVehicleOwner\n    (\n        bytes32 _numberPlate,\n        bytes32[] _ownersId, bytes32[] _ownersNames\n    )\n    public onlyEmployee returns (bool) {\n        require(_numberPlate > 0, \"Number plate can not be empty.\");\n        require(vehicles[_numberPlate].numberPlate > 0, \"The vehicle is not registered.\");\n        require(_ownersId.length == _ownersNames.length, \"Owners data does not match.\");\n\n        vehicles[_numberPlate].ownersIds = _ownersId;\n        vehicles[_numberPlate].ownersNames = _ownersNames;\n        return true;\n    }\n\n\n    // Methods: UTILS\n    function bytes32ToString(bytes32 x) internal pure returns (string) {\n        bytes memory bytesString = new bytes(32);\n        uint charCount = 0;\n        for (uint j = 0; j < 32; j++) {\n            byte char = byte(bytes32(uint(x) * 2 ** (8 * j)));\n            if (char != 0) {\n                bytesString[charCount] = char;\n                charCount++;\n            }\n        }\n        bytes memory bytesStringTrimmed = new bytes(charCount);\n        for (j = 0; j < charCount; j++) {\n            bytesStringTrimmed[j] = bytesString[j];\n        }\n        return string(bytesStringTrimmed);\n    }\n\n    function contains\n    (\n        string word, string filter\n    )\n    public pure returns (bool) {\n        return Strings.contains(Strings.toSlice(word), Strings.toSlice(filter));\n    }\n\n    function isEmpty\n    (\n        string word\n    )\n    public pure returns (bool) {\n        return Strings.empty(Strings.toSlice(word));\n    }\n}",
  "sourcePath": "/Users/kenkina/Desktop/Dev/Ethereum/feature2/crypto-vehicle/src/smartContracts/contracts/VehicleFactory.sol",
  "compiler": {
    "name": "solc",
    "version": "0.4.24+commit.e67f0147.Emscripten.clang"
  },
  "schemaVersion": "2.0.1",
  "updatedAt": "2018-09-27T02:00:28.605Z"
}