{
  "contractName": "VehicleFactory",
  "abi": [
    {
      "constant": true,
      "inputs": [
        {
          "name": "_employeeAddress",
          "type": "address"
        }
      ],
      "name": "isAdministrator",
      "outputs": [
        {
          "name": "",
          "type": "bool"
        }
      ],
      "payable": false,
      "stateMutability": "view",
      "type": "function"
    },
    {
      "constant": false,
      "inputs": [
        {
          "name": "_toAdd",
          "type": "address"
        },
        {
          "name": "_dni",
          "type": "bytes32"
        },
        {
          "name": "_name",
          "type": "bytes32"
        }
      ],
      "name": "setAdministrator",
      "outputs": [],
      "payable": false,
      "stateMutability": "nonpayable",
      "type": "function"
    },
    {
      "constant": true,
      "inputs": [
        {
          "name": "_employeeAddress",
          "type": "address"
        }
      ],
      "name": "getEmployee",
      "outputs": [
        {
          "name": "",
          "type": "bytes32"
        },
        {
          "name": "",
          "type": "bytes32"
        },
        {
          "name": "",
          "type": "bool"
        },
        {
          "name": "",
          "type": "bool"
        }
      ],
      "payable": false,
      "stateMutability": "view",
      "type": "function"
    },
    {
      "constant": false,
      "inputs": [
        {
          "name": "_toRemove",
          "type": "address"
        }
      ],
      "name": "removeAdministrator",
      "outputs": [],
      "payable": false,
      "stateMutability": "nonpayable",
      "type": "function"
    },
    {
      "constant": true,
      "inputs": [],
      "name": "getEmployeesCount",
      "outputs": [
        {
          "name": "",
          "type": "uint256"
        }
      ],
      "payable": false,
      "stateMutability": "view",
      "type": "function"
    },
    {
      "constant": true,
      "inputs": [],
      "name": "owner",
      "outputs": [
        {
          "name": "",
          "type": "address"
        }
      ],
      "payable": false,
      "stateMutability": "view",
      "type": "function"
    },
    {
      "constant": true,
      "inputs": [
        {
          "name": "",
          "type": "uint256"
        }
      ],
      "name": "employeesAccounts",
      "outputs": [
        {
          "name": "",
          "type": "address"
        }
      ],
      "payable": false,
      "stateMutability": "view",
      "type": "function"
    },
    {
      "constant": true,
      "inputs": [
        {
          "name": "",
          "type": "address"
        }
      ],
      "name": "employees",
      "outputs": [
        {
          "name": "dni",
          "type": "bytes32"
        },
        {
          "name": "name",
          "type": "bytes32"
        },
        {
          "name": "isAdministrator",
          "type": "bool"
        },
        {
          "name": "isEmployee",
          "type": "bool"
        }
      ],
      "payable": false,
      "stateMutability": "view",
      "type": "function"
    },
    {
      "constant": false,
      "inputs": [
        {
          "name": "_toRemove",
          "type": "address"
        }
      ],
      "name": "removeEmployee",
      "outputs": [],
      "payable": false,
      "stateMutability": "nonpayable",
      "type": "function"
    },
    {
      "constant": true,
      "inputs": [
        {
          "name": "_employeeAddress",
          "type": "address"
        }
      ],
      "name": "isEmployee",
      "outputs": [
        {
          "name": "",
          "type": "bool"
        }
      ],
      "payable": false,
      "stateMutability": "view",
      "type": "function"
    },
    {
      "constant": false,
      "inputs": [
        {
          "name": "_toAdd",
          "type": "address"
        },
        {
          "name": "_dni",
          "type": "bytes32"
        },
        {
          "name": "_name",
          "type": "bytes32"
        }
      ],
      "name": "setEmployee",
      "outputs": [],
      "payable": false,
      "stateMutability": "nonpayable",
      "type": "function"
    },
    {
      "constant": false,
      "inputs": [
        {
          "name": "_newOwner",
          "type": "address"
        }
      ],
      "name": "transferOwnership",
      "outputs": [],
      "payable": false,
      "stateMutability": "nonpayable",
      "type": "function"
    },
    {
      "anonymous": false,
      "inputs": [
        {
          "indexed": true,
          "name": "previousOwner",
          "type": "address"
        },
        {
          "indexed": true,
          "name": "_newOwner",
          "type": "address"
        }
      ],
      "name": "OwnershipTransferred",
      "type": "event"
    },
    {
      "constant": true,
      "inputs": [],
      "name": "getVehiclesCount",
      "outputs": [
        {
          "name": "",
          "type": "uint256"
        }
      ],
      "payable": false,
      "stateMutability": "view",
      "type": "function"
    },
    {
      "constant": true,
      "inputs": [],
      "name": "getVehicles",
      "outputs": [
        {
          "name": "",
          "type": "bytes32[]"
        }
      ],
      "payable": false,
      "stateMutability": "view",
      "type": "function"
    },
    {
      "constant": true,
      "inputs": [
        {
          "name": "_numberPlate",
          "type": "bytes32"
        },
        {
          "name": "_brand",
          "type": "bytes32"
        },
        {
          "name": "_model",
          "type": "bytes32"
        },
        {
          "name": "_color",
          "type": "bytes32"
        }
      ],
      "name": "getVehiclesFiltered",
      "outputs": [
        {
          "name": "",
          "type": "bytes32[]"
        }
      ],
      "payable": false,
      "stateMutability": "view",
      "type": "function"
    },
    {
      "constant": true,
      "inputs": [
        {
          "name": "_numberPlate",
          "type": "bytes32"
        }
      ],
      "name": "getVehicle",
      "outputs": [
        {
          "name": "",
          "type": "bytes32"
        },
        {
          "name": "",
          "type": "bytes32"
        },
        {
          "name": "",
          "type": "bytes32"
        },
        {
          "name": "",
          "type": "bytes32"
        },
        {
          "name": "",
          "type": "bytes32"
        },
        {
          "name": "",
          "type": "bytes32"
        },
        {
          "name": "",
          "type": "bytes32"
        }
      ],
      "payable": false,
      "stateMutability": "view",
      "type": "function"
    },
    {
      "constant": true,
      "inputs": [
        {
          "name": "_numberPlate",
          "type": "bytes32"
        }
      ],
      "name": "getVehicleDetail",
      "outputs": [
        {
          "name": "",
          "type": "string"
        },
        {
          "name": "",
          "type": "string"
        },
        {
          "name": "",
          "type": "bytes32[]"
        },
        {
          "name": "",
          "type": "bytes32[]"
        },
        {
          "name": "",
          "type": "address"
        }
      ],
      "payable": false,
      "stateMutability": "view",
      "type": "function"
    },
    {
      "constant": true,
      "inputs": [
        {
          "name": "_numberPlate",
          "type": "bytes32"
        }
      ],
      "name": "vehicleExists",
      "outputs": [
        {
          "name": "",
          "type": "bool"
        }
      ],
      "payable": false,
      "stateMutability": "view",
      "type": "function"
    },
    {
      "constant": true,
      "inputs": [
        {
          "name": "_serialNumber",
          "type": "bytes32"
        }
      ],
      "name": "serialNumberExists",
      "outputs": [
        {
          "name": "",
          "type": "bool"
        }
      ],
      "payable": false,
      "stateMutability": "view",
      "type": "function"
    },
    {
      "constant": true,
      "inputs": [
        {
          "name": "_motorNumber",
          "type": "bytes32"
        }
      ],
      "name": "motorNumberExists",
      "outputs": [
        {
          "name": "",
          "type": "bool"
        }
      ],
      "payable": false,
      "stateMutability": "view",
      "type": "function"
    },
    {
      "constant": false,
      "inputs": [
        {
          "name": "_numberPlate",
          "type": "bytes32"
        },
        {
          "name": "_brand",
          "type": "bytes32"
        },
        {
          "name": "_model",
          "type": "bytes32"
        },
        {
          "name": "_color",
          "type": "bytes32"
        },
        {
          "name": "_serialNumber",
          "type": "bytes32"
        },
        {
          "name": "_motorNumber",
          "type": "bytes32"
        },
        {
          "name": "_reason",
          "type": "bytes32"
        },
        {
          "name": "_photos",
          "type": "string"
        },
        {
          "name": "_documents",
          "type": "string"
        },
        {
          "name": "_ownersId",
          "type": "bytes32[]"
        },
        {
          "name": "_ownersNames",
          "type": "bytes32[]"
        }
      ],
      "name": "registerVehicle",
      "outputs": [
        {
          "name": "",
          "type": "bool"
        }
      ],
      "payable": false,
      "stateMutability": "nonpayable",
      "type": "function"
    },
    {
      "constant": false,
      "inputs": [
        {
          "name": "_numberPlate",
          "type": "bytes32"
        },
        {
          "name": "_color",
          "type": "bytes32"
        },
        {
          "name": "_serialNumber",
          "type": "bytes32"
        },
        {
          "name": "_motorNumber",
          "type": "bytes32"
        },
        {
          "name": "_reason",
          "type": "bytes32"
        }
      ],
      "name": "updateVehicle",
      "outputs": [
        {
          "name": "",
          "type": "bool"
        }
      ],
      "payable": false,
      "stateMutability": "nonpayable",
      "type": "function"
    },
    {
      "constant": false,
      "inputs": [
        {
          "name": "_numberPlate",
          "type": "bytes32"
        },
        {
          "name": "_photos",
          "type": "string"
        }
      ],
      "name": "updateVehiclePhotos",
      "outputs": [
        {
          "name": "",
          "type": "bool"
        }
      ],
      "payable": false,
      "stateMutability": "nonpayable",
      "type": "function"
    },
    {
      "constant": false,
      "inputs": [
        {
          "name": "_numberPlate",
          "type": "bytes32"
        },
        {
          "name": "_documents",
          "type": "string"
        }
      ],
      "name": "updateVehicleDocuments",
      "outputs": [
        {
          "name": "",
          "type": "bool"
        }
      ],
      "payable": false,
      "stateMutability": "nonpayable",
      "type": "function"
    },
    {
      "constant": false,
      "inputs": [
        {
          "name": "_numberPlate",
          "type": "bytes32"
        },
        {
          "name": "_ownersId",
          "type": "bytes32[]"
        },
        {
          "name": "_ownersNames",
          "type": "bytes32[]"
        }
      ],
      "name": "updateVehicleOwner",
      "outputs": [
        {
          "name": "",
          "type": "bool"
        }
      ],
      "payable": false,
      "stateMutability": "nonpayable",
      "type": "function"
    },
    {
      "constant": true,
      "inputs": [
        {
          "name": "word",
          "type": "string"
        },
        {
          "name": "filter",
          "type": "string"
        }
      ],
      "name": "contains",
      "outputs": [
        {
          "name": "",
          "type": "bool"
        }
      ],
      "payable": false,
      "stateMutability": "view",
      "type": "function"
    },
    {
      "constant": true,
      "inputs": [
        {
          "name": "_numberPlate",
          "type": "string"
        },
        {
          "name": "_brand",
          "type": "string"
        },
        {
          "name": "_model",
          "type": "string"
        },
        {
          "name": "_color",
          "type": "string"
        }
      ],
      "name": "getVehiclesFilteredWithContains",
      "outputs": [
        {
          "name": "",
          "type": "bytes32[]"
        }
      ],
      "payable": false,
      "stateMutability": "view",
      "type": "function"
    }
  ],
  "bytecode": "0x608060405260008054600160a060020a03191633179055612881806100256000396000f30060806040526004361061015e5763ffffffff7c01000000000000000000000000000000000000000000000000000000006000350416630a2eb301811461016357806314a5d6da14610198578063177c4940146101c1578063197fa4b5146101d95780631e17fdab146103005780631f8787dc14610324578063249c76fd1461034b5780632a96ab901461036357806332648e09146103c15780633fb18aec1461040a578063501df3f1146104a1578063528b7021146104f15780635f3ced4e1461058457806368fa81341461071957806375b784261461073a57806376287d341461074f5780637c3fa493146108b25780638da5cb5b146108d3578063a7536ce714610904578063b77c8f701461091c578063c68ea5cd14610934578063d067894714610992578063d108177a146109b3578063e6b7e207146109d4578063ea66543f146109e9578063ed13e2a814610a0a578063f2fde38b14610a31575b600080fd5b34801561016f57600080fd5b50610184600160a060020a0360043516610a52565b604080519115158252519081900360200190f35b3480156101a457600080fd5b506101bf600160a060020a0360043516602435604435610a74565b005b3480156101cd57600080fd5b50610184600435610c77565b3480156101e557600080fd5b50604080516020600460e43581810135601f810184900484028501840190955284845261018494823594602480359560443595606435956084359560a4359560c4359536956101049492939190920191819084018382808284375050604080516020601f89358b018035918201839004830284018301909452808352979a999881019791965091820194509250829150840183828082843750506040805187358901803560208181028481018201909552818452989b9a998901989297509082019550935083925085019084908082843750506040805187358901803560208181028481018201909552818452989b9a998901989297509082019550935083925085019084908082843750949750610cdb9650505050505050565b34801561030c57600080fd5b50610184600435602435604435606435608435610f35565b34801561033057600080fd5b50610339611117565b60408051918252519081900360200190f35b34801561035757600080fd5b5061018460043561111e565b34801561036f57600080fd5b5060408051602060046024803582810135601f81018590048502860185019096528585526101849583359536956044949193909101919081908401838280828437509497506111319650505050505050565b3480156103cd57600080fd5b506103e2600160a060020a0360043516611292565b6040805194855260208501939093529015158383015215156060830152519081900360800190f35b34801561041657600080fd5b506040805160206004803580820135601f810184900484028501840190955284845261018494369492936024939284019190819084018382808284375050604080516020601f89358b018035918201839004830284018301909452808352979a9998810197919650918201945092508291508401838280828437509497506112cc9650505050505050565b3480156104ad57600080fd5b506104b96004356112ef565b604080519788526020880196909652868601949094526060860192909252608085015260a084015260c0830152519081900360e00190f35b3480156104fd57600080fd5b5060408051602060046024803582810135848102808701860190975280865261018496843596369660449591949091019291829185019084908082843750506040805187358901803560208181028481018201909552818452989b9a99890198929750908201955093508392508501908490808284375094975061132c9650505050505050565b34801561059057600080fd5b5061059c60043561150d565b604051808060200180602001806020018060200186600160a060020a0316600160a060020a0316815260200185810385528a818151815260200191508051906020019080838360005b838110156105fd5781810151838201526020016105e5565b50505050905090810190601f16801561062a5780820380516001836020036101000a031916815260200191505b5085810384528951815289516020918201918b019080838360005b8381101561065d578181015183820152602001610645565b50505050905090810190601f16801561068a5780820380516001836020036101000a031916815260200191505b508581038352885181528851602091820191808b01910280838360005b838110156106bf5781810151838201526020016106a7565b50505050905001858103825287818151815260200191508051906020019060200280838360005b838110156106fe5781810151838201526020016106e6565b50505050905001995050505050505050505060405180910390f35b34801561072557600080fd5b506101bf600160a060020a0360043516611720565b34801561074657600080fd5b5061033961182f565b34801561075b57600080fd5b506040805160206004803580820135601f810184900484028501840190955284845261086294369492936024939284019190819084018382808284375050604080516020601f89358b018035918201839004830284018301909452808352979a99988101979196509182019450925082915084018382808284375050604080516020601f89358b018035918201839004830284018301909452808352979a99988101979196509182019450925082915084018382808284375050604080516020601f89358b018035918201839004830284018301909452808352979a9998810197919650918201945092508291508401838280828437509497506118359650505050505050565b60408051602080825283518183015283519192839290830191858101910280838360005b8381101561089e578181015183820152602001610886565b505050509050019250505060405180910390f35b3480156108be57600080fd5b50610862600435602435604435606435611aa7565b3480156108df57600080fd5b506108e8611cda565b60408051600160a060020a039092168252519081900360200190f35b34801561091057600080fd5b506108e8600435611ce9565b34801561092857600080fd5b50610184600435611d11565b34801561094057600080fd5b5060408051602060046024803582810135601f8101859004850286018501909652858552610184958335953695604494919390910191908190840183828082843750949750611d6e9650505050505050565b34801561099e57600080fd5b506103e2600160a060020a0360043516611ec5565b3480156109bf57600080fd5b506101bf600160a060020a0360043516611ef1565b3480156109e057600080fd5b50610862612021565b3480156109f557600080fd5b50610184600160a060020a036004351661207a565b348015610a1657600080fd5b506101bf600160a060020a03600435166024356044356120a1565b348015610a3d57600080fd5b506101bf600160a060020a03600435166122c3565b600160a060020a03166000908152600260208190526040909120015460ff1690565b600054600160a060020a03163314610afc576040805160e560020a62461bcd02815260206004820152602e60248201527f596f7520617265206e6f7420746865206f776e65722e20596f7520617265206e60448201527f6f7420617574686f72697a65642e000000000000000000000000000000000000606482015290519081900360840190fd5b600160a060020a0383161515610b5e576040805160e560020a62461bcd02815260206004820152603060248201526000805160206127b683398151915260448201526000805160206127f6833981519152606482015290519081900360840190fd5b600160a060020a03831660009081526002602081905260409091200154610100900460ff1615610bb457600160a060020a038316600090815260026020819052604090912001805460ff19166001179055610c72565b604080516080810182528381526020808201848152600183850181815260608501828152600160a060020a038a166000818152600296879052978820965187559351868401559051949093018054935115156101000261ff001995151560ff199095169490941794909416929092179092558054808201825592527fb10e2d527612073b26eecdfd717e6a320cf44b4afac2b0732d9fcbe2b7fa0cf6909101805473ffffffffffffffffffffffffffffffffffffffff191690911790555b505050565b600080805b600354811015610cd457836000191660046000600384815481101515610c9e57fe5b600091825260208083209091015483528201929092526040019020600501541415610ccc5760019150610cd4565b600101610c7c565b5092915050565b336000908152600260208190526040822001548190610100900460ff1680610d0d5750600054600160a060020a031633145b1515610d65576040805160e560020a62461bcd02815260206004820152602f602482015260008051602061283683398151915260448201526000805160206127d6833981519152606482015290519081900360840190fd5b60008d11610dab576040805160e560020a62461bcd02815260206004820152601e6024820152600080516020612816833981519152604482015290519081900360640190fd5b60008d8152600460205260408120541115610e36576040805160e560020a62461bcd02815260206004820152602260248201527f5468652076656869636c6520697320616c72656164792072656769737465726560448201527f642e000000000000000000000000000000000000000000000000000000000000606482015290519081900360840190fd5b5060008c81526004602081815260409092208e8155600181018e9055600281018d9055600381018c90559081018a9055600581018990556006810188905586519091610e899160078401918901906126c9565b508451610e9f90600883019060208801906126c9565b508351610eb59060098301906020870190612747565b508251610ecb90600a8301906020860190612747565b50600b8101805473ffffffffffffffffffffffffffffffffffffffff19163317905560038054600181810183556000929092527fc2575a0e9e593c00f959f8c92f12db2869c3395a3b0502d05e2516446f71f85b018e90559150509b9a5050505050505050505050565b336000908152600260208190526040822001548190610100900460ff1680610f675750600054600160a060020a031633145b1515610fbf576040805160e560020a62461bcd02815260206004820152602f602482015260008051602061283683398151915260448201526000805160206127d6833981519152606482015290519081900360840190fd5b60008711611005576040805160e560020a62461bcd02815260206004820152601e6024820152600080516020612816833981519152604482015290519081900360640190fd5b6000878152600460205260408120541115611090576040805160e560020a62461bcd02815260206004820152602260248201527f5468652076656869636c6520697320616c72656164792072656769737465726560448201527f642e000000000000000000000000000000000000000000000000000000000000606482015290519081900360840190fd5b5050600085815260046020819052604082206003808201979097559081019490945560058401929092556006830155600b909101805473ffffffffffffffffffffffffffffffffffffffff191633179055815460018181018455929091527fc2575a0e9e593c00f959f8c92f12db2869c3395a3b0502d05e2516446f71f85b019190915590565b6003545b90565b6000908152600460205260408120541190565b33600090815260026020819052604082200154610100900460ff16806111615750600054600160a060020a031633145b15156111b9576040805160e560020a62461bcd02815260206004820152602f602482015260008051602061283683398151915260448201526000805160206127d6833981519152606482015290519081900360840190fd5b600083116111ff576040805160e560020a62461bcd02815260206004820152601e6024820152600080516020612816833981519152604482015290519081900360640190fd5b60008381526004602052604081205411611263576040805160e560020a62461bcd02815260206004820152601e60248201527f5468652076656869636c65206973206e6f7420726567697374657265642e0000604482015290519081900360640190fd5b60008381526004602090815260409091208351611288926008909201918501906126c9565b5060019392505050565b600160a060020a031660009081526002602081905260409091208054600182015491909201549192909160ff808216926101009092041690565b60006112e86112da84612415565b6112e384612415565b61243b565b9392505050565b6000908152600460208190526040909120805460018201546002830154600384015494840154600585015460069095015493969295919491939092565b33600090815260026020819052604082200154610100900460ff168061135c5750600054600160a060020a031633145b15156113b4576040805160e560020a62461bcd02815260206004820152602f602482015260008051602061283683398151915260448201526000805160206127d6833981519152606482015290519081900360840190fd5b600084116113fa576040805160e560020a62461bcd02815260206004820152601e6024820152600080516020612816833981519152604482015290519081900360640190fd5b6000848152600460205260408120541161145e576040805160e560020a62461bcd02815260206004820152601e60248201527f5468652076656869636c65206973206e6f7420726567697374657265642e0000604482015290519081900360640190fd5b81518351146114b7576040805160e560020a62461bcd02815260206004820152601b60248201527f4f776e657273206461746120646f6573206e6f74206d617463682e0000000000604482015290519081900360640190fd5b600084815260046020908152604090912084516114dc92600990920191860190612747565b506000848152600460209081526040909120835161150292600a90920191850190612747565b506001949350505050565b6000818152600460209081526040808320600b8101546007820180548451601f60026001841615610100026000190190931692909204918201879004870281018701909552808552606096879687968796929592949360088601936009870193600a880193600160a060020a039092169287918301828280156115d15780601f106115a6576101008083540402835291602001916115d1565b820191906000526020600020905b8154815290600101906020018083116115b457829003601f168201915b5050875460408051602060026001851615610100026000190190941693909304601f8101849004840282018401909252818152959a508994509250840190508282801561165f5780601f106116345761010080835404028352916020019161165f565b820191906000526020600020905b81548152906001019060200180831161164257829003601f168201915b50505050509350828054806020026020016040519081016040528092919081815260200182805480156116b257602002820191906000526020600020905b8154815260019091019060200180831161169d575b505050505092508180548060200260200160405190810160405280929190818152602001828054801561170557602002820191906000526020600020905b815481526001909101906020018083116116f0575b50505050509150955095509550955095505091939590929450565b600054600160a060020a031633146117a8576040805160e560020a62461bcd02815260206004820152602e60248201527f596f7520617265206e6f7420746865206f776e65722e20596f7520617265206e60448201527f6f7420617574686f72697a65642e000000000000000000000000000000000000606482015290519081900360840190fd5b600160a060020a038116151561180a576040805160e560020a62461bcd02815260206004820152603060248201526000805160206127b683398151915260448201526000805160206127f6833981519152606482015290519081900360840190fd5b600160a060020a0316600090815260026020819052604090912001805460ff19169055565b60015490565b60608060008060608060608060606000600380549050604051908082528060200260200182016040528015611874578160200160208202803883390190505b509850600097508796505b6003548710156119f8576118c06004600060038a81548110151561189f57fe5b60009182526020808320909101548352820192909252604001902054612462565b95506118fc6004600060038a8154811015156118d857fe5b60009182526020808320909101548352820192909252604001902060010154612462565b94506119386004600060038a81548110151561191457fe5b60009182526020808320909101548352820192909252604001902060020154612462565b93506119746004600060038a81548110151561195057fe5b60009182526020808320909101548352820192909252604001902060030154612462565b9250611980868f6112cc565b806119905750611990858e6112cc565b806119a057506119a0848d6112cc565b806119b057506119b0838c6112cc565b156119ed5760038054889081106119c357fe5b906000526020600020015489888151811015156119dc57fe5b602090810290910101526001909701965b60019096019561187f565b87604051908082528060200260200182016040528015611a22578160200160208202803883390190505b50915060009050600096505b8851871015611a965788516000908a9089908110611a4857fe5b6020908102909101015114611a8b578887815181101515611a6557fe5b906020019060200201518282815181101515611a7d57fe5b602090810290910101526001015b600190960195611a2e565b509c9b505050505050505050505050565b60608060008060606000600380549050604051908082528060200260200182016040528015611ae0578160200160208202803883390190505b509450600093508392505b600354831015611c2f57896000191660046000600386815481101515611b0d57fe5b600091825260208083209091015483528201929092526040019020541480611b695750886000191660046000600386815481101515611b4857fe5b60009182526020808320909101548352820192909252604001902060010154145b80611ba85750876000191660046000600386815481101515611b8757fe5b60009182526020808320909101548352820192909252604001902060020154145b80611be75750866000191660046000600386815481101515611bc657fe5b60009182526020808320909101548352820192909252604001902060030154145b15611c24576003805484908110611bfa57fe5b90600052602060002001548584815181101515611c1357fe5b602090810290910101526001909301925b600190920191611aeb565b83604051908082528060200260200182016040528015611c59578160200160208202803883390190505b50915060009050600092505b8451831015611ccd578451600090869085908110611c7f57fe5b6020908102909101015114611cc2578483815181101515611c9c57fe5b906020019060200201518282815181101515611cb457fe5b602090810290910101526001015b600190920191611c65565b5098975050505050505050565b600054600160a060020a031681565b6001805482908110611cf757fe5b600091825260209091200154600160a060020a0316905081565b600080805b600354811015610cd457836000191660046000600384815481101515611d3857fe5b600091825260208083209091015483528201929092526040019020600401541415611d665760019150610cd4565b600101611d16565b33600090815260026020819052604082200154610100900460ff1680611d9e5750600054600160a060020a031633145b1515611df6576040805160e560020a62461bcd02815260206004820152602f602482015260008051602061283683398151915260448201526000805160206127d6833981519152606482015290519081900360840190fd5b60008311611e3c576040805160e560020a62461bcd02815260206004820152601e6024820152600080516020612816833981519152604482015290519081900360640190fd5b60008381526004602052604081205411611ea0576040805160e560020a62461bcd02815260206004820152601e60248201527f5468652076656869636c65206973206e6f7420726567697374657265642e0000604482015290519081900360640190fd5b60008381526004602090815260409091208351611288926007909201918501906126c9565b600260208190526000918252604090912080546001820154919092015460ff8082169161010090041684565b336000908152600260208190526040909120015460ff1680611f1d5750600054600160a060020a031633145b1515611f99576040805160e560020a62461bcd02815260206004820152603460248201527f596f7520617265206e6f7420612061646d696e6973747261746f722e20596f7560448201527f20617265206e6f7420617574686f72697a65642e000000000000000000000000606482015290519081900360840190fd5b600160a060020a0381161515611ffb576040805160e560020a62461bcd02815260206004820152603060248201526000805160206127b683398151915260448201526000805160206127f6833981519152606482015290519081900360840190fd5b600160a060020a0316600090815260026020819052604090912001805461ff0019169055565b6060600380548060200260200160405190810160405280929190818152602001828054801561207057602002820191906000526020600020905b8154815260019091019060200180831161205b575b5050505050905090565b600160a060020a031660009081526002602081905260409091200154610100900460ff1690565b336000908152600260208190526040909120015460ff16806120cd5750600054600160a060020a031633145b1515612149576040805160e560020a62461bcd02815260206004820152603460248201527f596f7520617265206e6f7420612061646d696e6973747261746f722e20596f7560448201527f20617265206e6f7420617574686f72697a65642e000000000000000000000000606482015290519081900360840190fd5b600160a060020a03831615156121ab576040805160e560020a62461bcd02815260206004820152603060248201526000805160206127b683398151915260448201526000805160206127f6833981519152606482015290519081900360840190fd5b600160a060020a03831660009081526002602081905260409091200154610100900460ff161561220357600160a060020a038316600090815260026020819052604090912001805461ff001916610100179055610c72565b6040805160808101825283815260208082018481526000838501818152600160608601818152600160a060020a038b16808552600296879052978420965187559351868201559051949093018054925115156101000261ff001995151560ff199094169390931794909416919091179092558054808201825591527fb10e2d527612073b26eecdfd717e6a320cf44b4afac2b0732d9fcbe2b7fa0cf601805473ffffffffffffffffffffffffffffffffffffffff19169091179055505050565b600054600160a060020a0316331461234b576040805160e560020a62461bcd02815260206004820152602e60248201527f596f7520617265206e6f7420746865206f776e65722e20596f7520617265206e60448201527f6f7420617574686f72697a65642e000000000000000000000000000000000000606482015290519081900360840190fd5b600160a060020a03811615156123ad576040805160e560020a62461bcd02815260206004820152603060248201526000805160206127b683398151915260448201526000805160206127f6833981519152606482015290519081900360840190fd5b60008054604051600160a060020a03808516939216917f8be0079c531659141344cd1fd0a4f28419497f9722a3daafe3b4186f6b6457e091a36000805473ffffffffffffffffffffffffffffffffffffffff1916600160a060020a0392909216919091179055565b61241d612784565b50604080518082019091528151815260209182019181019190915290565b60208083015183518351928401516000936124599291849190612610565b14159392505050565b6040805160208082528183019092526060918291600091829182918591908082016104008038833901905050945060009350600092505b6020831015612526576008830260020a870291507fff0000000000000000000000000000000000000000000000000000000000000082161561251b578185858151811015156124e457fe5b9060200101907effffffffffffffffffffffffffffffffffffffffffffffffffffffffffffff1916908160001a9053506001909301925b600190920191612499565b836040519080825280601f01601f191660200182016040528015612554578160200160208202803883390190505b509050600092505b8383101561260657848381518110151561257257fe5b9060200101517f010000000000000000000000000000000000000000000000000000000000000090047f01000000000000000000000000000000000000000000000000000000000000000281848151811015156125cb57fe5b9060200101907effffffffffffffffffffffffffffffffffffffffffffffffffffffffffffff1916908160001a90535060019092019161255c565b9695505050505050565b60008080808080808a89116126b757602089116126825760018960200360080260020a03196001029450848851169350888b8b010395508486511692505b82841461267857898611612664578996506126bb565b60001990950180519095908516925061264e565b88860196506126bb565b8888209150888b038a0195505b8986106126b75750878520818114156126ac5788860196506126bb565b60018603955061268f565b8996505b505050505050949350505050565b828054600181600116156101000203166002900490600052602060002090601f016020900481019282601f1061270a57805160ff1916838001178555612737565b82800160010185558215612737579182015b8281111561273757825182559160200191906001019061271c565b5061274392915061279b565b5090565b828054828255906000526020600020908101928215612737579160200282015b828111156127375782518255602090920191600190910190612767565b604080518082019091526000808252602082015290565b61111b91905b8082111561274357600081556001016127a15600596f7520617474656d7074656420746f20616464207065726d697373696f6e736e6f7420617574686f72697a65642e000000000000000000000000000000000020746f2030783020616464726573732e000000000000000000000000000000004e756d62657220706c6174652063616e206e6f7420626520656d7074792e0000596f7520617265206e6f74206120656d706c6f7965652e20596f752061726520a165627a7a72305820b79b6994e0a6bbdb72b0952c5d736bb1d7ea955b6e08803c1082070518c8b9df0029",
  "source": "pragma solidity ^0.4.24;\n//pragma experimental ABIEncoderV2;\n\nimport \"./strings.sol\";\nimport \"./authorizable.sol\";\n\n\ncontract VehicleFactory is Authorizable {\n\n    using Strings for *;\n\n    // Structs\n    struct Vehicle {\n        // Inmutable\n        bytes32 numberPlate;\n        bytes32 brand;\n        bytes32 model;\n\n        // Mutable\n        bytes32 color;\n        bytes32 serialNumber; // chassis\n        bytes32 motorNumber;\n        bytes32 reason;\n\n        string photos;\n        string documents;\n        bytes32[] ownersIds;\n        bytes32[] ownersNames;\n\n        address employeeAddress;\n    }\n\n\n    // Global variables\n    bytes32[] private vehiclesNumberPlate;\n    mapping (bytes32 => Vehicle) private vehicles;\n    \n\n    // Methods\n    function getVehiclesCount() \n    public view returns (uint) {\n        return vehiclesNumberPlate.length;\n    }\n\n    function getVehicles() \n    public view returns (bytes32[]) {\n        return vehiclesNumberPlate;\n    }\n\n    function getVehiclesFiltered\n    (\n        bytes32 _numberPlate, \n        bytes32 _brand, bytes32 _model,\n        bytes32 _color\n    )\n    public view returns (bytes32[]) {\n        bytes32[] memory vehiclesFiltered = new bytes32[](vehiclesNumberPlate.length);\n        uint count = 0;\n        uint i = 0;\n        for(i = 0; i<vehiclesNumberPlate.length; i++) {\n            if( vehicles[vehiclesNumberPlate[i]].numberPlate == _numberPlate ||\n                vehicles[vehiclesNumberPlate[i]].brand == _brand ||\n                vehicles[vehiclesNumberPlate[i]].model == _model ||\n                vehicles[vehiclesNumberPlate[i]].color == _color) {\n                vehiclesFiltered[i] = vehiclesNumberPlate[i];\n                count++;\n            }\n        }\n\n        bytes32[] memory vehiclesResult = new bytes32[](count);\n        uint j = 0;\n        for(i = 0; i<vehiclesFiltered.length; i++) {\n            if(vehiclesFiltered[i] != bytes32(0)) {\n                vehiclesResult[j] = vehiclesFiltered[i];\n                j++;\n            }\n        }\n\n        return vehiclesResult;\n    }\n\n    function getVehicle\n    (\n        bytes32 _numberPlate\n    )\n    public view returns \n    (\n        bytes32, bytes32, bytes32,\n        bytes32, bytes32, bytes32, bytes32\n    ) {\n        Vehicle storage vehicle = vehicles[_numberPlate];\n        return (\n            vehicle.numberPlate, vehicle.brand, vehicle.model,\n            vehicle.color, vehicle.serialNumber, vehicle.motorNumber, vehicle.reason\n        );\n    }\n\n    function getVehicleDetail\n    (\n        bytes32 _numberPlate\n    )\n    public view returns\n    (\n        string, string, bytes32[], bytes32[],\n        address\n    ) {\n        Vehicle storage vehicle = vehicles[_numberPlate];\n        return (\n            vehicle.photos, vehicle.documents, vehicle.ownersIds, vehicle.ownersNames,\n            vehicle.employeeAddress\n        );\n    }\n\n    function vehicleExists\n    (\n        bytes32 _numberPlate\n    )\n    public view returns (bool) {\n        return vehicles[_numberPlate].numberPlate > 0;\n    }\n\n    function serialNumberExists\n    (\n        bytes32 _serialNumber\n    )\n    public view returns (bool) {\n\n        bool exists;\n        uint i = 0;\n        for(i = 0; i<vehiclesNumberPlate.length; i++) {\n            if( vehicles[vehiclesNumberPlate[i]].serialNumber == _serialNumber) {\n                exists = true;\n                break;\n            }\n        }\n\n        return exists;\n    }\n\n    function motorNumberExists\n    (\n        bytes32 _motorNumber\n    )\n    public view returns (bool) {\n\n        bool exists;\n        uint i = 0;\n        for(i = 0; i<vehiclesNumberPlate.length; i++) {\n            if( vehicles[vehiclesNumberPlate[i]].motorNumber == _motorNumber) {\n                exists = true;\n                break;\n            }\n        }\n\n        return exists;\n    }\n\n\n    function registerVehicle\n    (\n        bytes32 _numberPlate, bytes32 _brand, bytes32 _model,\n        bytes32 _color, bytes32 _serialNumber, bytes32 _motorNumber, bytes32 _reason,\n        string _photos, string _documents, bytes32[] _ownersId, bytes32[] _ownersNames\n    )\n    public onlyEmployee returns (bool) {\n        require(_numberPlate > 0, \"Number plate can not be empty.\");\n        require(vehicles[_numberPlate].numberPlate <= 0, \"The vehicle is already registered.\");\n\n        Vehicle storage vehicle = vehicles[_numberPlate];\n        vehicle.numberPlate = _numberPlate;\n        vehicle.brand = _brand;\n        vehicle.model = _model;\n\n        vehicle.color = _color;\n        vehicle.serialNumber = _serialNumber;\n        vehicle.motorNumber = _motorNumber;\n        vehicle.reason = _reason;\n\n        vehicle.photos = _photos;\n        vehicle.documents = _documents;\n        vehicle.ownersIds = _ownersId;\n        vehicle.ownersNames = _ownersNames;\n\n        vehicle.employeeAddress = msg.sender;\n\n        vehiclesNumberPlate.push(_numberPlate);\n        return true;\n    }\n\n    function updateVehicle\n    (\n        bytes32 _numberPlate,\n        bytes32 _color, bytes32 _serialNumber, bytes32 _motorNumber, bytes32 _reason\n    )\n    public onlyEmployee returns (bool) {\n        require(_numberPlate > 0, \"Number plate can not be empty.\");\n        require(vehicles[_numberPlate].numberPlate <= 0, \"The vehicle is already registered.\");\n\n        Vehicle storage vehicle = vehicles[_numberPlate];\n\n        vehicle.color = _color;\n        vehicle.serialNumber = _serialNumber;\n        vehicle.motorNumber = _motorNumber;\n        vehicle.reason = _reason;\n\n        vehicle.employeeAddress = msg.sender;\n\n        vehiclesNumberPlate.push(_numberPlate);\n        return true;\n    }\n\n    function updateVehiclePhotos\n    (\n        bytes32 _numberPlate,\n        string _photos\n    )\n    public onlyEmployee returns (bool) {\n        require(_numberPlate > 0, \"Number plate can not be empty.\");\n        require(vehicles[_numberPlate].numberPlate > 0, \"The vehicle is not registered.\");\n\n        vehicles[_numberPlate].photos = _photos;\n        return true;\n    }\n\n    function updateVehicleDocuments\n    (\n        bytes32 _numberPlate,\n        string _documents\n    )\n    public onlyEmployee returns (bool) {\n        require(_numberPlate > 0, \"Number plate can not be empty.\");\n        require(vehicles[_numberPlate].numberPlate > 0, \"The vehicle is not registered.\");\n\n        vehicles[_numberPlate].documents = _documents;\n        return true;\n    }\n\n    function updateVehicleOwner\n    (\n        bytes32 _numberPlate,\n        bytes32[] _ownersId, bytes32[] _ownersNames\n    )\n    public onlyEmployee returns (bool) {\n        require(_numberPlate > 0, \"Number plate can not be empty.\");\n        require(vehicles[_numberPlate].numberPlate > 0, \"The vehicle is not registered.\");\n        require(_ownersId.length == _ownersNames.length, \"Owners data does not match.\");\n\n        vehicles[_numberPlate].ownersIds = _ownersId;\n        vehicles[_numberPlate].ownersNames = _ownersNames;\n        return true;\n    }\n\n\n    function contains\n    (\n        string word, string filter\n    )\n    public view returns (bool) {\n        return Strings.contains(Strings.toSlice(word), Strings.toSlice(filter));\n    }\n\n    function getVehiclesFilteredWithContains\n    (\n        string _numberPlate, \n        string _brand, string _model,\n        string _color\n    )\n    public view returns (bytes32[]) {\n        bytes32[] memory vehiclesFiltered = new bytes32[](vehiclesNumberPlate.length);\n        uint count = 0;\n        uint i = 0;\n        for(i = 0; i<vehiclesNumberPlate.length; i++) {\n\n            string memory numberPlate = bytes32ToString(vehicles[vehiclesNumberPlate[i]].numberPlate);\n            string memory brand = bytes32ToString(vehicles[vehiclesNumberPlate[i]].brand);\n            string memory model = bytes32ToString(vehicles[vehiclesNumberPlate[i]].model);\n            string memory color = bytes32ToString(vehicles[vehiclesNumberPlate[i]].color);\n\n            if( contains(numberPlate, _numberPlate) ||\n                contains(brand, _brand) ||\n                contains(model, _model) ||\n                contains(color, _color)) {\n                vehiclesFiltered[i] = vehiclesNumberPlate[i];\n                count++;\n            }\n        }\n\n        bytes32[] memory vehiclesResult = new bytes32[](count);\n        uint j = 0;\n        for(i = 0; i<vehiclesFiltered.length; i++) {\n            if(vehiclesFiltered[i] != bytes32(0)) {\n                vehiclesResult[j] = vehiclesFiltered[i];\n                j++;\n            }\n        }\n\n        return vehiclesResult;\n    }\n\n\n    function bytes32ToString(bytes32 x) internal pure returns (string) {\n        bytes memory bytesString = new bytes(32);\n        uint charCount = 0;\n        for (uint j = 0; j < 32; j++) {\n            byte char = byte(bytes32(uint(x) * 2 ** (8 * j)));\n            if (char != 0) {\n                bytesString[charCount] = char;\n                charCount++;\n            }\n        }\n        bytes memory bytesStringTrimmed = new bytes(charCount);\n        for (j = 0; j < charCount; j++) {\n            bytesStringTrimmed[j] = bytesString[j];\n        }\n        return string(bytesStringTrimmed);\n    }\n}",
  "sourcePath": "/Users/kenkina/Desktop/Dev/Ethereum/crypto-vehicle-npm/src/smartContracts/contracts/VehicleFactory.sol",
  "compiler": {
    "name": "solc",
    "version": "0.4.24+commit.e67f0147.Emscripten.clang"
  },
  "schemaVersion": "2.0.1",
  "updatedAt": "2018-09-04T15:11:03.829Z"
}