{
  "contractName": "VehicleFactory",
  "abi": [
    {
      "constant": true,
      "inputs": [
        {
          "name": "_employeeAddress",
          "type": "address"
        }
      ],
      "name": "isAdministrator",
      "outputs": [
        {
          "name": "",
          "type": "bool"
        }
      ],
      "payable": false,
      "stateMutability": "view",
      "type": "function"
    },
    {
      "constant": false,
      "inputs": [
        {
          "name": "_toAdd",
          "type": "address"
        },
        {
          "name": "_dni",
          "type": "bytes32"
        },
        {
          "name": "_name",
          "type": "bytes32"
        }
      ],
      "name": "setAdministrator",
      "outputs": [],
      "payable": false,
      "stateMutability": "nonpayable",
      "type": "function"
    },
    {
      "constant": true,
      "inputs": [
        {
          "name": "_employeeAddress",
          "type": "address"
        }
      ],
      "name": "getEmployee",
      "outputs": [
        {
          "name": "",
          "type": "bytes32"
        },
        {
          "name": "",
          "type": "bytes32"
        },
        {
          "name": "",
          "type": "bool"
        },
        {
          "name": "",
          "type": "bool"
        }
      ],
      "payable": false,
      "stateMutability": "view",
      "type": "function"
    },
    {
      "constant": false,
      "inputs": [
        {
          "name": "_toRemove",
          "type": "address"
        }
      ],
      "name": "removeAdministrator",
      "outputs": [],
      "payable": false,
      "stateMutability": "nonpayable",
      "type": "function"
    },
    {
      "constant": true,
      "inputs": [],
      "name": "getEmployeesCount",
      "outputs": [
        {
          "name": "",
          "type": "uint256"
        }
      ],
      "payable": false,
      "stateMutability": "view",
      "type": "function"
    },
    {
      "constant": true,
      "inputs": [],
      "name": "owner",
      "outputs": [
        {
          "name": "",
          "type": "address"
        }
      ],
      "payable": false,
      "stateMutability": "view",
      "type": "function"
    },
    {
      "constant": true,
      "inputs": [
        {
          "name": "",
          "type": "uint256"
        }
      ],
      "name": "employeesAccounts",
      "outputs": [
        {
          "name": "",
          "type": "address"
        }
      ],
      "payable": false,
      "stateMutability": "view",
      "type": "function"
    },
    {
      "constant": true,
      "inputs": [
        {
          "name": "",
          "type": "address"
        }
      ],
      "name": "employees",
      "outputs": [
        {
          "name": "dni",
          "type": "bytes32"
        },
        {
          "name": "name",
          "type": "bytes32"
        },
        {
          "name": "isAdministrator",
          "type": "bool"
        },
        {
          "name": "isEmployee",
          "type": "bool"
        }
      ],
      "payable": false,
      "stateMutability": "view",
      "type": "function"
    },
    {
      "constant": false,
      "inputs": [
        {
          "name": "_toRemove",
          "type": "address"
        }
      ],
      "name": "removeEmployee",
      "outputs": [],
      "payable": false,
      "stateMutability": "nonpayable",
      "type": "function"
    },
    {
      "constant": true,
      "inputs": [
        {
          "name": "_employeeAddress",
          "type": "address"
        }
      ],
      "name": "isEmployee",
      "outputs": [
        {
          "name": "",
          "type": "bool"
        }
      ],
      "payable": false,
      "stateMutability": "view",
      "type": "function"
    },
    {
      "constant": false,
      "inputs": [
        {
          "name": "_toAdd",
          "type": "address"
        },
        {
          "name": "_dni",
          "type": "bytes32"
        },
        {
          "name": "_name",
          "type": "bytes32"
        }
      ],
      "name": "setEmployee",
      "outputs": [],
      "payable": false,
      "stateMutability": "nonpayable",
      "type": "function"
    },
    {
      "constant": false,
      "inputs": [
        {
          "name": "_newOwner",
          "type": "address"
        }
      ],
      "name": "transferOwnership",
      "outputs": [],
      "payable": false,
      "stateMutability": "nonpayable",
      "type": "function"
    },
    {
      "anonymous": false,
      "inputs": [
        {
          "indexed": true,
          "name": "previousOwner",
          "type": "address"
        },
        {
          "indexed": true,
          "name": "_newOwner",
          "type": "address"
        }
      ],
      "name": "OwnershipTransferred",
      "type": "event"
    },
    {
      "constant": true,
      "inputs": [],
      "name": "getVehiclesCount",
      "outputs": [
        {
          "name": "",
          "type": "uint256"
        }
      ],
      "payable": false,
      "stateMutability": "view",
      "type": "function"
    },
    {
      "constant": true,
      "inputs": [],
      "name": "getVehicles",
      "outputs": [
        {
          "name": "",
          "type": "bytes32[]"
        }
      ],
      "payable": false,
      "stateMutability": "view",
      "type": "function"
    },
    {
      "constant": true,
      "inputs": [
        {
          "name": "_numberPlate",
          "type": "bytes32"
        },
        {
          "name": "_brand",
          "type": "bytes32"
        },
        {
          "name": "_model",
          "type": "bytes32"
        },
        {
          "name": "_color",
          "type": "bytes32"
        }
      ],
      "name": "getVehiclesFiltered",
      "outputs": [
        {
          "name": "",
          "type": "bytes32[]"
        }
      ],
      "payable": false,
      "stateMutability": "view",
      "type": "function"
    },
    {
      "constant": true,
      "inputs": [
        {
          "name": "_numberPlate",
          "type": "bytes32"
        }
      ],
      "name": "getVehicle",
      "outputs": [
        {
          "name": "",
          "type": "bytes32"
        },
        {
          "name": "",
          "type": "bytes32"
        },
        {
          "name": "",
          "type": "bytes32"
        },
        {
          "name": "",
          "type": "bytes32"
        },
        {
          "name": "",
          "type": "bytes32"
        },
        {
          "name": "",
          "type": "bytes32"
        },
        {
          "name": "",
          "type": "bytes32"
        }
      ],
      "payable": false,
      "stateMutability": "view",
      "type": "function"
    },
    {
      "constant": true,
      "inputs": [
        {
          "name": "_numberPlate",
          "type": "bytes32"
        }
      ],
      "name": "getVehicleDetail",
      "outputs": [
        {
          "name": "",
          "type": "string"
        },
        {
          "name": "",
          "type": "string"
        },
        {
          "name": "",
          "type": "bytes32[]"
        },
        {
          "name": "",
          "type": "bytes32[]"
        },
        {
          "name": "",
          "type": "address"
        }
      ],
      "payable": false,
      "stateMutability": "view",
      "type": "function"
    },
    {
      "constant": true,
      "inputs": [
        {
          "name": "_numberPlate",
          "type": "bytes32"
        }
      ],
      "name": "getVehicleFiltered",
      "outputs": [
        {
          "name": "",
          "type": "bytes32"
        },
        {
          "name": "",
          "type": "bytes32"
        },
        {
          "name": "",
          "type": "bytes32"
        },
        {
          "name": "",
          "type": "string"
        }
      ],
      "payable": false,
      "stateMutability": "view",
      "type": "function"
    },
    {
      "constant": true,
      "inputs": [
        {
          "name": "_numberPlate",
          "type": "bytes32"
        }
      ],
      "name": "vehicleExists",
      "outputs": [
        {
          "name": "",
          "type": "bool"
        }
      ],
      "payable": false,
      "stateMutability": "view",
      "type": "function"
    },
    {
      "constant": true,
      "inputs": [
        {
          "name": "_serialNumber",
          "type": "bytes32"
        }
      ],
      "name": "serialNumberExists",
      "outputs": [
        {
          "name": "",
          "type": "bool"
        }
      ],
      "payable": false,
      "stateMutability": "view",
      "type": "function"
    },
    {
      "constant": true,
      "inputs": [
        {
          "name": "_motorNumber",
          "type": "bytes32"
        }
      ],
      "name": "motorNumberExists",
      "outputs": [
        {
          "name": "",
          "type": "bool"
        }
      ],
      "payable": false,
      "stateMutability": "view",
      "type": "function"
    },
    {
      "constant": false,
      "inputs": [
        {
          "name": "_numberPlate",
          "type": "bytes32"
        },
        {
          "name": "_brand",
          "type": "bytes32"
        },
        {
          "name": "_model",
          "type": "bytes32"
        },
        {
          "name": "_color",
          "type": "bytes32"
        },
        {
          "name": "_serialNumber",
          "type": "bytes32"
        },
        {
          "name": "_motorNumber",
          "type": "bytes32"
        },
        {
          "name": "_reason",
          "type": "bytes32"
        },
        {
          "name": "_photos",
          "type": "string"
        },
        {
          "name": "_documents",
          "type": "string"
        },
        {
          "name": "_ownersId",
          "type": "bytes32[]"
        },
        {
          "name": "_ownersNames",
          "type": "bytes32[]"
        }
      ],
      "name": "registerVehicle",
      "outputs": [
        {
          "name": "",
          "type": "bool"
        }
      ],
      "payable": false,
      "stateMutability": "nonpayable",
      "type": "function"
    },
    {
      "constant": false,
      "inputs": [
        {
          "name": "_numberPlate",
          "type": "bytes32"
        },
        {
          "name": "_color",
          "type": "bytes32"
        },
        {
          "name": "_serialNumber",
          "type": "bytes32"
        },
        {
          "name": "_motorNumber",
          "type": "bytes32"
        },
        {
          "name": "_reason",
          "type": "bytes32"
        }
      ],
      "name": "updateVehicle",
      "outputs": [
        {
          "name": "",
          "type": "bool"
        }
      ],
      "payable": false,
      "stateMutability": "nonpayable",
      "type": "function"
    },
    {
      "constant": false,
      "inputs": [
        {
          "name": "_numberPlate",
          "type": "bytes32"
        },
        {
          "name": "_photos",
          "type": "string"
        }
      ],
      "name": "updateVehiclePhotos",
      "outputs": [
        {
          "name": "",
          "type": "bool"
        }
      ],
      "payable": false,
      "stateMutability": "nonpayable",
      "type": "function"
    },
    {
      "constant": false,
      "inputs": [
        {
          "name": "_numberPlate",
          "type": "bytes32"
        },
        {
          "name": "_documents",
          "type": "string"
        }
      ],
      "name": "updateVehicleDocuments",
      "outputs": [
        {
          "name": "",
          "type": "bool"
        }
      ],
      "payable": false,
      "stateMutability": "nonpayable",
      "type": "function"
    },
    {
      "constant": false,
      "inputs": [
        {
          "name": "_numberPlate",
          "type": "bytes32"
        },
        {
          "name": "_ownersId",
          "type": "bytes32[]"
        },
        {
          "name": "_ownersNames",
          "type": "bytes32[]"
        }
      ],
      "name": "updateVehicleOwner",
      "outputs": [
        {
          "name": "",
          "type": "bool"
        }
      ],
      "payable": false,
      "stateMutability": "nonpayable",
      "type": "function"
    },
    {
      "constant": true,
      "inputs": [
        {
          "name": "word",
          "type": "string"
        },
        {
          "name": "filter",
          "type": "string"
        }
      ],
      "name": "contains",
      "outputs": [
        {
          "name": "",
          "type": "bool"
        }
      ],
      "payable": false,
      "stateMutability": "pure",
      "type": "function"
    },
    {
      "constant": true,
      "inputs": [
        {
          "name": "_numberPlate",
          "type": "string"
        },
        {
          "name": "_brand",
          "type": "string"
        },
        {
          "name": "_model",
          "type": "string"
        },
        {
          "name": "_color",
          "type": "string"
        }
      ],
      "name": "getVehiclesFilteredWithContains",
      "outputs": [
        {
          "name": "",
          "type": "bytes32[]"
        }
      ],
      "payable": false,
      "stateMutability": "view",
      "type": "function"
    }
  ],
  "bytecode": "0x608060405260008054600160a060020a031916331790556129fb806100256000396000f3006080604052600436106101695763ffffffff7c01000000000000000000000000000000000000000000000000000000006000350416630a2eb301811461016e57806314a5d6da146101a3578063177c4940146101cc578063197fa4b5146101e45780631e17fdab1461030b5780631f8787dc1461032f578063249c76fd146103565780632a96ab901461036e57806332648e09146103cc5780633fb18aec14610415578063501df3f1146104ac578063528b7021146104fc5780635f3ced4e1461058f578063637947551461072457806368fa8134146107cd57806375b78426146107ee57806376287d34146108035780637c3fa493146109665780638da5cb5b14610987578063a7536ce7146109b8578063b77c8f70146109d0578063c68ea5cd146109e8578063d067894714610a46578063d108177a14610a67578063e6b7e20714610a88578063ea66543f14610a9d578063ed13e2a814610abe578063f2fde38b14610ae5575b600080fd5b34801561017a57600080fd5b5061018f600160a060020a0360043516610b06565b604080519115158252519081900360200190f35b3480156101af57600080fd5b506101ca600160a060020a0360043516602435604435610b28565b005b3480156101d857600080fd5b5061018f600435610d2b565b3480156101f057600080fd5b50604080516020600460e43581810135601f810184900484028501840190955284845261018f94823594602480359560443595606435956084359560a4359560c4359536956101049492939190920191819084018382808284375050604080516020601f89358b018035918201839004830284018301909452808352979a999881019791965091820194509250829150840183828082843750506040805187358901803560208181028481018201909552818452989b9a998901989297509082019550935083925085019084908082843750506040805187358901803560208181028481018201909552818452989b9a998901989297509082019550935083925085019084908082843750949750610d8f9650505050505050565b34801561031757600080fd5b5061018f600435602435604435606435608435610fe9565b34801561033b57600080fd5b506103446111cb565b60408051918252519081900360200190f35b34801561036257600080fd5b5061018f6004356111d2565b34801561037a57600080fd5b5060408051602060046024803582810135601f810185900485028601850190965285855261018f9583359536956044949193909101919081908401838280828437509497506111e59650505050505050565b3480156103d857600080fd5b506103ed600160a060020a0360043516611346565b6040805194855260208501939093529015158383015215156060830152519081900360800190f35b34801561042157600080fd5b506040805160206004803580820135601f810184900484028501840190955284845261018f94369492936024939284019190819084018382808284375050604080516020601f89358b018035918201839004830284018301909452808352979a9998810197919650918201945092508291508401838280828437509497506113809650505050505050565b3480156104b857600080fd5b506104c46004356113a3565b604080519788526020880196909652868601949094526060860192909252608085015260a084015260c0830152519081900360e00190f35b34801561050857600080fd5b5060408051602060046024803582810135848102808701860190975280865261018f96843596369660449591949091019291829185019084908082843750506040805187358901803560208181028481018201909552818452989b9a9989019892975090820195509350839250850190849080828437509497506113e09650505050505050565b34801561059b57600080fd5b506105a76004356115c1565b604051808060200180602001806020018060200186600160a060020a0316600160a060020a0316815260200185810385528a818151815260200191508051906020019080838360005b838110156106085781810151838201526020016105f0565b50505050905090810190601f1680156106355780820380516001836020036101000a031916815260200191505b5085810384528951815289516020918201918b019080838360005b83811015610668578181015183820152602001610650565b50505050905090810190601f1680156106955780820380516001836020036101000a031916815260200191505b508581038352885181528851602091820191808b01910280838360005b838110156106ca5781810151838201526020016106b2565b50505050905001858103825287818151815260200191508051906020019060200280838360005b838110156107095781810151838201526020016106f1565b50505050905001995050505050505050505060405180910390f35b34801561073057600080fd5b5061073c6004356117d4565b60408051858152602080820186905291810184905260806060820181815284519183019190915283519192909160a084019185019080838360005b8381101561078f578181015183820152602001610777565b50505050905090810190601f1680156107bc5780820380516001836020036101000a031916815260200191505b509550505050505060405180910390f35b3480156107d957600080fd5b506101ca600160a060020a036004351661189a565b3480156107fa57600080fd5b506103446119a9565b34801561080f57600080fd5b506040805160206004803580820135601f810184900484028501840190955284845261091694369492936024939284019190819084018382808284375050604080516020601f89358b018035918201839004830284018301909452808352979a99988101979196509182019450925082915084018382808284375050604080516020601f89358b018035918201839004830284018301909452808352979a99988101979196509182019450925082915084018382808284375050604080516020601f89358b018035918201839004830284018301909452808352979a9998810197919650918201945092508291508401838280828437509497506119af9650505050505050565b60408051602080825283518183015283519192839290830191858101910280838360005b8381101561095257818101518382015260200161093a565b505050509050019250505060405180910390f35b34801561097257600080fd5b50610916600435602435604435606435611c21565b34801561099357600080fd5b5061099c611e54565b60408051600160a060020a039092168252519081900360200190f35b3480156109c457600080fd5b5061099c600435611e63565b3480156109dc57600080fd5b5061018f600435611e8b565b3480156109f457600080fd5b5060408051602060046024803582810135601f810185900485028601850190965285855261018f958335953695604494919390910191908190840183828082843750949750611ee89650505050505050565b348015610a5257600080fd5b506103ed600160a060020a036004351661203f565b348015610a7357600080fd5b506101ca600160a060020a036004351661206b565b348015610a9457600080fd5b5061091661219b565b348015610aa957600080fd5b5061018f600160a060020a03600435166121f4565b348015610aca57600080fd5b506101ca600160a060020a036004351660243560443561221b565b348015610af157600080fd5b506101ca600160a060020a036004351661243d565b600160a060020a03166000908152600260208190526040909120015460ff1690565b600054600160a060020a03163314610bb0576040805160e560020a62461bcd02815260206004820152602e60248201527f596f7520617265206e6f7420746865206f776e65722e20596f7520617265206e60448201527f6f7420617574686f72697a65642e000000000000000000000000000000000000606482015290519081900360840190fd5b600160a060020a0383161515610c12576040805160e560020a62461bcd02815260206004820152603060248201526000805160206129308339815191526044820152600080516020612970833981519152606482015290519081900360840190fd5b600160a060020a03831660009081526002602081905260409091200154610100900460ff1615610c6857600160a060020a038316600090815260026020819052604090912001805460ff19166001179055610d26565b604080516080810182528381526020808201848152600183850181815260608501828152600160a060020a038a166000818152600296879052978820965187559351868401559051949093018054935115156101000261ff001995151560ff199095169490941794909416929092179092558054808201825592527fb10e2d527612073b26eecdfd717e6a320cf44b4afac2b0732d9fcbe2b7fa0cf6909101805473ffffffffffffffffffffffffffffffffffffffff191690911790555b505050565b600080805b600354811015610d8857836000191660046000600384815481101515610d5257fe5b600091825260208083209091015483528201929092526040019020600501541415610d805760019150610d88565b600101610d30565b5092915050565b336000908152600260208190526040822001548190610100900460ff1680610dc15750600054600160a060020a031633145b1515610e19576040805160e560020a62461bcd02815260206004820152602f60248201526000805160206129b08339815191526044820152600080516020612950833981519152606482015290519081900360840190fd5b60008d11610e5f576040805160e560020a62461bcd02815260206004820152601e6024820152600080516020612990833981519152604482015290519081900360640190fd5b60008d8152600460205260408120541115610eea576040805160e560020a62461bcd02815260206004820152602260248201527f5468652076656869636c6520697320616c72656164792072656769737465726560448201527f642e000000000000000000000000000000000000000000000000000000000000606482015290519081900360840190fd5b5060008c81526004602081815260409092208e8155600181018e9055600281018d9055600381018c90559081018a9055600581018990556006810188905586519091610f3d916007840191890190612843565b508451610f539060088301906020880190612843565b508351610f6990600983019060208701906128c1565b508251610f7f90600a83019060208601906128c1565b50600b8101805473ffffffffffffffffffffffffffffffffffffffff19163317905560038054600181810183556000929092527fc2575a0e9e593c00f959f8c92f12db2869c3395a3b0502d05e2516446f71f85b018e90559150509b9a5050505050505050505050565b336000908152600260208190526040822001548190610100900460ff168061101b5750600054600160a060020a031633145b1515611073576040805160e560020a62461bcd02815260206004820152602f60248201526000805160206129b08339815191526044820152600080516020612950833981519152606482015290519081900360840190fd5b600087116110b9576040805160e560020a62461bcd02815260206004820152601e6024820152600080516020612990833981519152604482015290519081900360640190fd5b6000878152600460205260408120541115611144576040805160e560020a62461bcd02815260206004820152602260248201527f5468652076656869636c6520697320616c72656164792072656769737465726560448201527f642e000000000000000000000000000000000000000000000000000000000000606482015290519081900360840190fd5b5050600085815260046020819052604082206003808201979097559081019490945560058401929092556006830155600b909101805473ffffffffffffffffffffffffffffffffffffffff191633179055815460018181018455929091527fc2575a0e9e593c00f959f8c92f12db2869c3395a3b0502d05e2516446f71f85b019190915590565b6003545b90565b6000908152600460205260408120541190565b33600090815260026020819052604082200154610100900460ff16806112155750600054600160a060020a031633145b151561126d576040805160e560020a62461bcd02815260206004820152602f60248201526000805160206129b08339815191526044820152600080516020612950833981519152606482015290519081900360840190fd5b600083116112b3576040805160e560020a62461bcd02815260206004820152601e6024820152600080516020612990833981519152604482015290519081900360640190fd5b60008381526004602052604081205411611317576040805160e560020a62461bcd02815260206004820152601e60248201527f5468652076656869636c65206973206e6f7420726567697374657265642e0000604482015290519081900360640190fd5b6000838152600460209081526040909120835161133c92600890920191850190612843565b5060019392505050565b600160a060020a031660009081526002602081905260409091208054600182015491909201549192909160ff808216926101009092041690565b600061139c61138e8461258f565b6113978461258f565b6125b5565b9392505050565b6000908152600460208190526040909120805460018201546002830154600384015494840154600585015460069095015493969295919491939092565b33600090815260026020819052604082200154610100900460ff16806114105750600054600160a060020a031633145b1515611468576040805160e560020a62461bcd02815260206004820152602f60248201526000805160206129b08339815191526044820152600080516020612950833981519152606482015290519081900360840190fd5b600084116114ae576040805160e560020a62461bcd02815260206004820152601e6024820152600080516020612990833981519152604482015290519081900360640190fd5b60008481526004602052604081205411611512576040805160e560020a62461bcd02815260206004820152601e60248201527f5468652076656869636c65206973206e6f7420726567697374657265642e0000604482015290519081900360640190fd5b815183511461156b576040805160e560020a62461bcd02815260206004820152601b60248201527f4f776e657273206461746120646f6573206e6f74206d617463682e0000000000604482015290519081900360640190fd5b60008481526004602090815260409091208451611590926009909201918601906128c1565b50600084815260046020908152604090912083516115b692600a909201918501906128c1565b506001949350505050565b6000818152600460209081526040808320600b8101546007820180548451601f60026001841615610100026000190190931692909204918201879004870281018701909552808552606096879687968796929592949360088601936009870193600a880193600160a060020a039092169287918301828280156116855780601f1061165a57610100808354040283529160200191611685565b820191906000526020600020905b81548152906001019060200180831161166857829003601f168201915b5050875460408051602060026001851615610100026000190190941693909304601f8101849004840282018401909252818152959a50899450925084019050828280156117135780601f106116e857610100808354040283529160200191611713565b820191906000526020600020905b8154815290600101906020018083116116f657829003601f168201915b505050505093508280548060200260200160405190810160405280929190818152602001828054801561176657602002820191906000526020600020905b81548152600190910190602001808311611751575b50505050509250818054806020026020016040519081016040528092919081815260200182805480156117b957602002820191906000526020600020905b815481526001909101906020018083116117a4575b50505050509150955095509550955095505091939590929450565b6000818152600460209081526040808320805460018083015460028085015460078601805488516000199682161561010002969096011692909204601f8101899004890285018901909752868452889788976060979695929392918391908301828280156118835780601f1061185857610100808354040283529160200191611883565b820191906000526020600020905b81548152906001019060200180831161186657829003601f168201915b505050505090509450945094509450509193509193565b600054600160a060020a03163314611922576040805160e560020a62461bcd02815260206004820152602e60248201527f596f7520617265206e6f7420746865206f776e65722e20596f7520617265206e60448201527f6f7420617574686f72697a65642e000000000000000000000000000000000000606482015290519081900360840190fd5b600160a060020a0381161515611984576040805160e560020a62461bcd02815260206004820152603060248201526000805160206129308339815191526044820152600080516020612970833981519152606482015290519081900360840190fd5b600160a060020a0316600090815260026020819052604090912001805460ff19169055565b60015490565b606080600080606080606080606060006003805490506040519080825280602002602001820160405280156119ee578160200160208202803883390190505b509850600097508796505b600354871015611b7257611a3a6004600060038a815481101515611a1957fe5b600091825260208083209091015483528201929092526040019020546125dc565b9550611a766004600060038a815481101515611a5257fe5b600091825260208083209091015483528201929092526040019020600101546125dc565b9450611ab26004600060038a815481101515611a8e57fe5b600091825260208083209091015483528201929092526040019020600201546125dc565b9350611aee6004600060038a815481101515611aca57fe5b600091825260208083209091015483528201929092526040019020600301546125dc565b9250611afa868f611380565b80611b0a5750611b0a858e611380565b80611b1a5750611b1a848d611380565b80611b2a5750611b2a838c611380565b15611b67576003805488908110611b3d57fe5b90600052602060002001548988815181101515611b5657fe5b602090810290910101526001909701965b6001909601956119f9565b87604051908082528060200260200182016040528015611b9c578160200160208202803883390190505b50915060009050600096505b8851871015611c105788516000908a9089908110611bc257fe5b6020908102909101015114611c05578887815181101515611bdf57fe5b906020019060200201518282815181101515611bf757fe5b602090810290910101526001015b600190960195611ba8565b509c9b505050505050505050505050565b60608060008060606000600380549050604051908082528060200260200182016040528015611c5a578160200160208202803883390190505b509450600093508392505b600354831015611da957896000191660046000600386815481101515611c8757fe5b600091825260208083209091015483528201929092526040019020541480611ce35750886000191660046000600386815481101515611cc257fe5b60009182526020808320909101548352820192909252604001902060010154145b80611d225750876000191660046000600386815481101515611d0157fe5b60009182526020808320909101548352820192909252604001902060020154145b80611d615750866000191660046000600386815481101515611d4057fe5b60009182526020808320909101548352820192909252604001902060030154145b15611d9e576003805484908110611d7457fe5b90600052602060002001548584815181101515611d8d57fe5b602090810290910101526001909301925b600190920191611c65565b83604051908082528060200260200182016040528015611dd3578160200160208202803883390190505b50915060009050600092505b8451831015611e47578451600090869085908110611df957fe5b6020908102909101015114611e3c578483815181101515611e1657fe5b906020019060200201518282815181101515611e2e57fe5b602090810290910101526001015b600190920191611ddf565b5098975050505050505050565b600054600160a060020a031681565b6001805482908110611e7157fe5b600091825260209091200154600160a060020a0316905081565b600080805b600354811015610d8857836000191660046000600384815481101515611eb257fe5b600091825260208083209091015483528201929092526040019020600401541415611ee05760019150610d88565b600101611e90565b33600090815260026020819052604082200154610100900460ff1680611f185750600054600160a060020a031633145b1515611f70576040805160e560020a62461bcd02815260206004820152602f60248201526000805160206129b08339815191526044820152600080516020612950833981519152606482015290519081900360840190fd5b60008311611fb6576040805160e560020a62461bcd02815260206004820152601e6024820152600080516020612990833981519152604482015290519081900360640190fd5b6000838152600460205260408120541161201a576040805160e560020a62461bcd02815260206004820152601e60248201527f5468652076656869636c65206973206e6f7420726567697374657265642e0000604482015290519081900360640190fd5b6000838152600460209081526040909120835161133c92600790920191850190612843565b600260208190526000918252604090912080546001820154919092015460ff8082169161010090041684565b336000908152600260208190526040909120015460ff16806120975750600054600160a060020a031633145b1515612113576040805160e560020a62461bcd02815260206004820152603460248201527f596f7520617265206e6f7420612061646d696e6973747261746f722e20596f7560448201527f20617265206e6f7420617574686f72697a65642e000000000000000000000000606482015290519081900360840190fd5b600160a060020a0381161515612175576040805160e560020a62461bcd02815260206004820152603060248201526000805160206129308339815191526044820152600080516020612970833981519152606482015290519081900360840190fd5b600160a060020a0316600090815260026020819052604090912001805461ff0019169055565b606060038054806020026020016040519081016040528092919081815260200182805480156121ea57602002820191906000526020600020905b815481526001909101906020018083116121d5575b5050505050905090565b600160a060020a031660009081526002602081905260409091200154610100900460ff1690565b336000908152600260208190526040909120015460ff16806122475750600054600160a060020a031633145b15156122c3576040805160e560020a62461bcd02815260206004820152603460248201527f596f7520617265206e6f7420612061646d696e6973747261746f722e20596f7560448201527f20617265206e6f7420617574686f72697a65642e000000000000000000000000606482015290519081900360840190fd5b600160a060020a0383161515612325576040805160e560020a62461bcd02815260206004820152603060248201526000805160206129308339815191526044820152600080516020612970833981519152606482015290519081900360840190fd5b600160a060020a03831660009081526002602081905260409091200154610100900460ff161561237d57600160a060020a038316600090815260026020819052604090912001805461ff001916610100179055610d26565b6040805160808101825283815260208082018481526000838501818152600160608601818152600160a060020a038b16808552600296879052978420965187559351868201559051949093018054925115156101000261ff001995151560ff199094169390931794909416919091179092558054808201825591527fb10e2d527612073b26eecdfd717e6a320cf44b4afac2b0732d9fcbe2b7fa0cf601805473ffffffffffffffffffffffffffffffffffffffff19169091179055505050565b600054600160a060020a031633146124c5576040805160e560020a62461bcd02815260206004820152602e60248201527f596f7520617265206e6f7420746865206f776e65722e20596f7520617265206e60448201527f6f7420617574686f72697a65642e000000000000000000000000000000000000606482015290519081900360840190fd5b600160a060020a0381161515612527576040805160e560020a62461bcd02815260206004820152603060248201526000805160206129308339815191526044820152600080516020612970833981519152606482015290519081900360840190fd5b60008054604051600160a060020a03808516939216917f8be0079c531659141344cd1fd0a4f28419497f9722a3daafe3b4186f6b6457e091a36000805473ffffffffffffffffffffffffffffffffffffffff1916600160a060020a0392909216919091179055565b6125976128fe565b50604080518082019091528151815260209182019181019190915290565b60208083015183518351928401516000936125d3929184919061278a565b14159392505050565b6040805160208082528183019092526060918291600091829182918591908082016104008038833901905050945060009350600092505b60208310156126a0576008830260020a870291507fff000000000000000000000000000000000000000000000000000000000000008216156126955781858581518110151561265e57fe5b9060200101907effffffffffffffffffffffffffffffffffffffffffffffffffffffffffffff1916908160001a9053506001909301925b600190920191612613565b836040519080825280601f01601f1916602001820160405280156126ce578160200160208202803883390190505b509050600092505b838310156127805784838151811015156126ec57fe5b9060200101517f010000000000000000000000000000000000000000000000000000000000000090047f010000000000000000000000000000000000000000000000000000000000000002818481518110151561274557fe5b9060200101907effffffffffffffffffffffffffffffffffffffffffffffffffffffffffffff1916908160001a9053506001909201916126d6565b9695505050505050565b60008080808080808a891161283157602089116127fc5760018960200360080260020a03196001029450848851169350888b8b010395508486511692505b8284146127f2578986116127de57899650612835565b6000199095018051909590851692506127c8565b8886019650612835565b8888209150888b038a0195505b898610612831575087852081811415612826578886019650612835565b600186039550612809565b8996505b505050505050949350505050565b828054600181600116156101000203166002900490600052602060002090601f016020900481019282601f1061288457805160ff19168380011785556128b1565b828001600101855582156128b1579182015b828111156128b1578251825591602001919060010190612896565b506128bd929150612915565b5090565b8280548282559060005260206000209081019282156128b1579160200282015b828111156128b157825182556020909201916001909101906128e1565b604080518082019091526000808252602082015290565b6111cf91905b808211156128bd576000815560010161291b5600596f7520617474656d7074656420746f20616464207065726d697373696f6e736e6f7420617574686f72697a65642e000000000000000000000000000000000020746f2030783020616464726573732e000000000000000000000000000000004e756d62657220706c6174652063616e206e6f7420626520656d7074792e0000596f7520617265206e6f74206120656d706c6f7965652e20596f752061726520a165627a7a7230582032f675dd71be9f78a0e22e74bb41056cc069cbec7d9b4006955c3180dea715030029",
  "source": "pragma solidity ^0.4.24;\n//pragma experimental ABIEncoderV2;\n\nimport \"./strings.sol\";\nimport \"./authorizable.sol\";\n\n\ncontract VehicleFactory is Authorizable {\n\n    using Strings for *;\n\n    // Structs\n    struct Vehicle {\n        // Inmutable\n        bytes32 numberPlate;\n        bytes32 brand;\n        bytes32 model;\n\n        // Mutable\n        bytes32 color;\n        bytes32 serialNumber; // chassis\n        bytes32 motorNumber;\n        bytes32 reason;\n\n        string photos;\n        string documents;\n        bytes32[] ownersIds;\n        bytes32[] ownersNames;\n\n        address employeeAddress;\n    }\n\n\n    // Global variables\n    bytes32[] private vehiclesNumberPlate;\n    mapping (bytes32 => Vehicle) private vehicles;\n    \n\n    // Methods\n    function getVehiclesCount() \n    public view returns (uint) {\n        return vehiclesNumberPlate.length;\n    }\n\n    function getVehicles() \n    public view returns (bytes32[]) {\n        return vehiclesNumberPlate;\n    }\n\n    function getVehiclesFiltered\n    (\n        bytes32 _numberPlate, \n        bytes32 _brand, bytes32 _model,\n        bytes32 _color\n    )\n    public view returns (bytes32[]) {\n        bytes32[] memory vehiclesFiltered = new bytes32[](vehiclesNumberPlate.length);\n        uint count = 0;\n        uint i = 0;\n        for(i = 0; i<vehiclesNumberPlate.length; i++) {\n            if( vehicles[vehiclesNumberPlate[i]].numberPlate == _numberPlate ||\n                vehicles[vehiclesNumberPlate[i]].brand == _brand ||\n                vehicles[vehiclesNumberPlate[i]].model == _model ||\n                vehicles[vehiclesNumberPlate[i]].color == _color) {\n                vehiclesFiltered[i] = vehiclesNumberPlate[i];\n                count++;\n            }\n        }\n\n        bytes32[] memory vehiclesResult = new bytes32[](count);\n        uint j = 0;\n        for(i = 0; i<vehiclesFiltered.length; i++) {\n            if(vehiclesFiltered[i] != bytes32(0)) {\n                vehiclesResult[j] = vehiclesFiltered[i];\n                j++;\n            }\n        }\n\n        return vehiclesResult;\n    }\n\n    function getVehicle\n    (\n        bytes32 _numberPlate\n    )\n    public view returns \n    (\n        bytes32, bytes32, bytes32,\n        bytes32, bytes32, bytes32, bytes32\n    ) {\n        Vehicle storage vehicle = vehicles[_numberPlate];\n        return (\n            vehicle.numberPlate, vehicle.brand, vehicle.model,\n            vehicle.color, vehicle.serialNumber, vehicle.motorNumber, vehicle.reason\n        );\n    }\n\n    function getVehicleDetail\n    (\n        bytes32 _numberPlate\n    )\n    public view returns\n    (\n        string, string, bytes32[], bytes32[],\n        address\n    ) {\n        Vehicle storage vehicle = vehicles[_numberPlate];\n        return (\n            vehicle.photos, vehicle.documents, vehicle.ownersIds, vehicle.ownersNames,\n            vehicle.employeeAddress\n        );\n    }\n\n    function getVehicleFiltered\n    (\n        bytes32 _numberPlate\n    )\n    public view returns \n    (\n        bytes32, bytes32, bytes32, string\n    ) {\n        Vehicle storage vehicle = vehicles[_numberPlate];\n        return (\n            vehicle.numberPlate, vehicle.brand, vehicle.model, vehicle.photos\n        );\n    }\n\n    function vehicleExists\n    (\n        bytes32 _numberPlate\n    )\n    public view returns (bool) {\n        return vehicles[_numberPlate].numberPlate > 0;\n    }\n\n    function serialNumberExists\n    (\n        bytes32 _serialNumber\n    )\n    public view returns (bool) {\n\n        bool exists;\n        uint i = 0;\n        for(i = 0; i<vehiclesNumberPlate.length; i++) {\n            if( vehicles[vehiclesNumberPlate[i]].serialNumber == _serialNumber) {\n                exists = true;\n                break;\n            }\n        }\n\n        return exists;\n    }\n\n    function motorNumberExists\n    (\n        bytes32 _motorNumber\n    )\n    public view returns (bool) {\n\n        bool exists;\n        uint i = 0;\n        for(i = 0; i<vehiclesNumberPlate.length; i++) {\n            if( vehicles[vehiclesNumberPlate[i]].motorNumber == _motorNumber) {\n                exists = true;\n                break;\n            }\n        }\n\n        return exists;\n    }\n\n\n    function registerVehicle\n    (\n        bytes32 _numberPlate, bytes32 _brand, bytes32 _model,\n        bytes32 _color, bytes32 _serialNumber, bytes32 _motorNumber, bytes32 _reason,\n        string _photos, string _documents, bytes32[] _ownersId, bytes32[] _ownersNames\n    )\n    public onlyEmployee returns (bool) {\n        require(_numberPlate > 0, \"Number plate can not be empty.\");\n        require(vehicles[_numberPlate].numberPlate <= 0, \"The vehicle is already registered.\");\n\n        Vehicle storage vehicle = vehicles[_numberPlate];\n        vehicle.numberPlate = _numberPlate;\n        vehicle.brand = _brand;\n        vehicle.model = _model;\n\n        vehicle.color = _color;\n        vehicle.serialNumber = _serialNumber;\n        vehicle.motorNumber = _motorNumber;\n        vehicle.reason = _reason;\n\n        vehicle.photos = _photos;\n        vehicle.documents = _documents;\n        vehicle.ownersIds = _ownersId;\n        vehicle.ownersNames = _ownersNames;\n\n        vehicle.employeeAddress = msg.sender;\n\n        vehiclesNumberPlate.push(_numberPlate);\n        return true;\n    }\n\n    function updateVehicle\n    (\n        bytes32 _numberPlate,\n        bytes32 _color, bytes32 _serialNumber, bytes32 _motorNumber, bytes32 _reason\n    )\n    public onlyEmployee returns (bool) {\n        require(_numberPlate > 0, \"Number plate can not be empty.\");\n        require(vehicles[_numberPlate].numberPlate <= 0, \"The vehicle is already registered.\");\n\n        Vehicle storage vehicle = vehicles[_numberPlate];\n\n        vehicle.color = _color;\n        vehicle.serialNumber = _serialNumber;\n        vehicle.motorNumber = _motorNumber;\n        vehicle.reason = _reason;\n\n        vehicle.employeeAddress = msg.sender;\n\n        vehiclesNumberPlate.push(_numberPlate);\n        return true;\n    }\n\n    function updateVehiclePhotos\n    (\n        bytes32 _numberPlate,\n        string _photos\n    )\n    public onlyEmployee returns (bool) {\n        require(_numberPlate > 0, \"Number plate can not be empty.\");\n        require(vehicles[_numberPlate].numberPlate > 0, \"The vehicle is not registered.\");\n\n        vehicles[_numberPlate].photos = _photos;\n        return true;\n    }\n\n    function updateVehicleDocuments\n    (\n        bytes32 _numberPlate,\n        string _documents\n    )\n    public onlyEmployee returns (bool) {\n        require(_numberPlate > 0, \"Number plate can not be empty.\");\n        require(vehicles[_numberPlate].numberPlate > 0, \"The vehicle is not registered.\");\n\n        vehicles[_numberPlate].documents = _documents;\n        return true;\n    }\n\n    function updateVehicleOwner\n    (\n        bytes32 _numberPlate,\n        bytes32[] _ownersId, bytes32[] _ownersNames\n    )\n    public onlyEmployee returns (bool) {\n        require(_numberPlate > 0, \"Number plate can not be empty.\");\n        require(vehicles[_numberPlate].numberPlate > 0, \"The vehicle is not registered.\");\n        require(_ownersId.length == _ownersNames.length, \"Owners data does not match.\");\n\n        vehicles[_numberPlate].ownersIds = _ownersId;\n        vehicles[_numberPlate].ownersNames = _ownersNames;\n        return true;\n    }\n\n\n    function contains\n    (\n        string word, string filter\n    )\n    public pure returns (bool) {\n        return Strings.contains(Strings.toSlice(word), Strings.toSlice(filter));\n    }\n\n    function getVehiclesFilteredWithContains\n    (\n        string _numberPlate, \n        string _brand, string _model,\n        string _color\n    )\n    public view returns (bytes32[]) {\n        bytes32[] memory vehiclesFiltered = new bytes32[](vehiclesNumberPlate.length);\n        uint count = 0;\n        uint i = 0;\n        for(i = 0; i<vehiclesNumberPlate.length; i++) {\n\n            string memory numberPlate = bytes32ToString(vehicles[vehiclesNumberPlate[i]].numberPlate);\n            string memory brand = bytes32ToString(vehicles[vehiclesNumberPlate[i]].brand);\n            string memory model = bytes32ToString(vehicles[vehiclesNumberPlate[i]].model);\n            string memory color = bytes32ToString(vehicles[vehiclesNumberPlate[i]].color);\n\n            if( contains(numberPlate, _numberPlate) ||\n                contains(brand, _brand) ||\n                contains(model, _model) ||\n                contains(color, _color)) {\n                vehiclesFiltered[i] = vehiclesNumberPlate[i];\n                count++;\n            }\n        }\n\n        bytes32[] memory vehiclesResult = new bytes32[](count);\n        uint j = 0;\n        for(i = 0; i<vehiclesFiltered.length; i++) {\n            if(vehiclesFiltered[i] != bytes32(0)) {\n                vehiclesResult[j] = vehiclesFiltered[i];\n                j++;\n            }\n        }\n\n        return vehiclesResult;\n    }\n\n\n    function bytes32ToString(bytes32 x) internal pure returns (string) {\n        bytes memory bytesString = new bytes(32);\n        uint charCount = 0;\n        for (uint j = 0; j < 32; j++) {\n            byte char = byte(bytes32(uint(x) * 2 ** (8 * j)));\n            if (char != 0) {\n                bytesString[charCount] = char;\n                charCount++;\n            }\n        }\n        bytes memory bytesStringTrimmed = new bytes(charCount);\n        for (j = 0; j < charCount; j++) {\n            bytesStringTrimmed[j] = bytesString[j];\n        }\n        return string(bytesStringTrimmed);\n    }\n}",
  "sourcePath": "/Users/kenkina/Desktop/Dev/Ethereum/crypto-vehicle-npm/src/smartContracts/contracts/VehicleFactory.sol",
  "compiler": {
    "name": "solc",
    "version": "0.4.24+commit.e67f0147.Emscripten.clang"
  },
  "schemaVersion": "2.0.1",
  "updatedAt": "2018-09-12T05:35:29.851Z"
}