{
  "contractName": "VehicleFactory",
  "abi": [
    {
      "constant": true,
      "inputs": [
        {
          "name": "_employeeAddress",
          "type": "address"
        }
      ],
      "name": "isAdministrator",
      "outputs": [
        {
          "name": "",
          "type": "bool"
        }
      ],
      "payable": false,
      "stateMutability": "view",
      "type": "function"
    },
    {
      "constant": false,
      "inputs": [
        {
          "name": "_toAdd",
          "type": "address"
        },
        {
          "name": "_dni",
          "type": "bytes32"
        },
        {
          "name": "_name",
          "type": "bytes32"
        }
      ],
      "name": "setAdministrator",
      "outputs": [],
      "payable": false,
      "stateMutability": "nonpayable",
      "type": "function"
    },
    {
      "constant": true,
      "inputs": [],
      "name": "getOnlyAdministratorsAddresses",
      "outputs": [
        {
          "name": "",
          "type": "address[]"
        }
      ],
      "payable": false,
      "stateMutability": "view",
      "type": "function"
    },
    {
      "constant": true,
      "inputs": [
        {
          "name": "_employeeAddress",
          "type": "address"
        }
      ],
      "name": "getEmployee",
      "outputs": [
        {
          "name": "",
          "type": "bytes32"
        },
        {
          "name": "",
          "type": "bytes32"
        },
        {
          "name": "",
          "type": "bool"
        },
        {
          "name": "",
          "type": "bool"
        }
      ],
      "payable": false,
      "stateMutability": "view",
      "type": "function"
    },
    {
      "constant": false,
      "inputs": [
        {
          "name": "_toRemove",
          "type": "address"
        }
      ],
      "name": "removeAdministrator",
      "outputs": [],
      "payable": false,
      "stateMutability": "nonpayable",
      "type": "function"
    },
    {
      "constant": true,
      "inputs": [],
      "name": "getEmployeesCount",
      "outputs": [
        {
          "name": "",
          "type": "uint256"
        }
      ],
      "payable": false,
      "stateMutability": "view",
      "type": "function"
    },
    {
      "constant": true,
      "inputs": [],
      "name": "owner",
      "outputs": [
        {
          "name": "",
          "type": "address"
        }
      ],
      "payable": false,
      "stateMutability": "view",
      "type": "function"
    },
    {
      "constant": true,
      "inputs": [
        {
          "name": "",
          "type": "uint256"
        }
      ],
      "name": "employeesAccounts",
      "outputs": [
        {
          "name": "",
          "type": "address"
        }
      ],
      "payable": false,
      "stateMutability": "view",
      "type": "function"
    },
    {
      "constant": true,
      "inputs": [],
      "name": "getOnlyEmployeesAddresses",
      "outputs": [
        {
          "name": "",
          "type": "address[]"
        }
      ],
      "payable": false,
      "stateMutability": "view",
      "type": "function"
    },
    {
      "constant": true,
      "inputs": [],
      "name": "getEmployeesAddresses",
      "outputs": [
        {
          "name": "",
          "type": "address[]"
        }
      ],
      "payable": false,
      "stateMutability": "view",
      "type": "function"
    },
    {
      "constant": true,
      "inputs": [
        {
          "name": "",
          "type": "address"
        }
      ],
      "name": "employees",
      "outputs": [
        {
          "name": "dni",
          "type": "bytes32"
        },
        {
          "name": "name",
          "type": "bytes32"
        },
        {
          "name": "isInArray",
          "type": "bool"
        },
        {
          "name": "isAdministrator",
          "type": "bool"
        },
        {
          "name": "isEmployee",
          "type": "bool"
        }
      ],
      "payable": false,
      "stateMutability": "view",
      "type": "function"
    },
    {
      "constant": false,
      "inputs": [
        {
          "name": "_toRemove",
          "type": "address"
        }
      ],
      "name": "removeEmployee",
      "outputs": [],
      "payable": false,
      "stateMutability": "nonpayable",
      "type": "function"
    },
    {
      "constant": true,
      "inputs": [
        {
          "name": "_employeeAddress",
          "type": "address"
        }
      ],
      "name": "isEmployee",
      "outputs": [
        {
          "name": "",
          "type": "bool"
        }
      ],
      "payable": false,
      "stateMutability": "view",
      "type": "function"
    },
    {
      "constant": false,
      "inputs": [
        {
          "name": "_toAdd",
          "type": "address"
        },
        {
          "name": "_dni",
          "type": "bytes32"
        },
        {
          "name": "_name",
          "type": "bytes32"
        }
      ],
      "name": "setEmployee",
      "outputs": [],
      "payable": false,
      "stateMutability": "nonpayable",
      "type": "function"
    },
    {
      "constant": false,
      "inputs": [
        {
          "name": "_newOwner",
          "type": "address"
        }
      ],
      "name": "transferOwnership",
      "outputs": [],
      "payable": false,
      "stateMutability": "nonpayable",
      "type": "function"
    },
    {
      "anonymous": false,
      "inputs": [
        {
          "indexed": true,
          "name": "numberPlate",
          "type": "bytes32"
        },
        {
          "indexed": false,
          "name": "brand",
          "type": "bytes32"
        },
        {
          "indexed": false,
          "name": "model",
          "type": "bytes32"
        },
        {
          "indexed": false,
          "name": "color",
          "type": "bytes32"
        },
        {
          "indexed": false,
          "name": "serialNumber",
          "type": "bytes32"
        },
        {
          "indexed": false,
          "name": "motorNumber",
          "type": "bytes32"
        },
        {
          "indexed": false,
          "name": "reason",
          "type": "bytes32"
        },
        {
          "indexed": false,
          "name": "photos",
          "type": "string"
        },
        {
          "indexed": false,
          "name": "documents",
          "type": "string"
        },
        {
          "indexed": false,
          "name": "ownersId",
          "type": "bytes32[]"
        },
        {
          "indexed": false,
          "name": "ownersNames",
          "type": "bytes32[]"
        },
        {
          "indexed": true,
          "name": "employeeAddress",
          "type": "address"
        }
      ],
      "name": "VehicleRegistered",
      "type": "event"
    },
    {
      "anonymous": false,
      "inputs": [
        {
          "indexed": true,
          "name": "numberPlate",
          "type": "bytes32"
        },
        {
          "indexed": false,
          "name": "color",
          "type": "bytes32"
        },
        {
          "indexed": false,
          "name": "serialNumber",
          "type": "bytes32"
        },
        {
          "indexed": false,
          "name": "motorNumber",
          "type": "bytes32"
        },
        {
          "indexed": false,
          "name": "reason",
          "type": "bytes32"
        },
        {
          "indexed": false,
          "name": "photos",
          "type": "string"
        },
        {
          "indexed": false,
          "name": "documents",
          "type": "string"
        },
        {
          "indexed": false,
          "name": "ownersId",
          "type": "bytes32[]"
        },
        {
          "indexed": false,
          "name": "ownersNames",
          "type": "bytes32[]"
        },
        {
          "indexed": true,
          "name": "employeeAddress",
          "type": "address"
        }
      ],
      "name": "VehicleUpdated",
      "type": "event"
    },
    {
      "anonymous": false,
      "inputs": [
        {
          "indexed": true,
          "name": "previousOwner",
          "type": "address"
        },
        {
          "indexed": true,
          "name": "_newOwner",
          "type": "address"
        }
      ],
      "name": "OwnershipTransferred",
      "type": "event"
    },
    {
      "constant": true,
      "inputs": [],
      "name": "getVehiclesCount",
      "outputs": [
        {
          "name": "",
          "type": "uint256"
        }
      ],
      "payable": false,
      "stateMutability": "view",
      "type": "function"
    },
    {
      "constant": true,
      "inputs": [],
      "name": "getVehicles",
      "outputs": [
        {
          "name": "",
          "type": "bytes32[]"
        }
      ],
      "payable": false,
      "stateMutability": "view",
      "type": "function"
    },
    {
      "constant": true,
      "inputs": [
        {
          "name": "_numberPlate",
          "type": "bytes32"
        },
        {
          "name": "_brand",
          "type": "bytes32"
        },
        {
          "name": "_model",
          "type": "bytes32"
        },
        {
          "name": "_color",
          "type": "bytes32"
        }
      ],
      "name": "getVehiclesFiltered",
      "outputs": [
        {
          "name": "",
          "type": "bytes32[]"
        }
      ],
      "payable": false,
      "stateMutability": "view",
      "type": "function"
    },
    {
      "constant": true,
      "inputs": [
        {
          "name": "_numberPlate",
          "type": "string"
        },
        {
          "name": "_brand",
          "type": "string"
        },
        {
          "name": "_model",
          "type": "string"
        },
        {
          "name": "_color",
          "type": "string"
        }
      ],
      "name": "getVehiclesFilteredWithContains",
      "outputs": [
        {
          "name": "",
          "type": "bytes32[]"
        }
      ],
      "payable": false,
      "stateMutability": "view",
      "type": "function"
    },
    {
      "constant": true,
      "inputs": [
        {
          "name": "_numberPlate",
          "type": "bytes32"
        }
      ],
      "name": "getVehicle",
      "outputs": [
        {
          "name": "",
          "type": "bytes32"
        },
        {
          "name": "",
          "type": "bytes32"
        },
        {
          "name": "",
          "type": "bytes32"
        },
        {
          "name": "",
          "type": "bytes32"
        },
        {
          "name": "",
          "type": "bytes32"
        },
        {
          "name": "",
          "type": "bytes32"
        },
        {
          "name": "",
          "type": "bytes32"
        }
      ],
      "payable": false,
      "stateMutability": "view",
      "type": "function"
    },
    {
      "constant": true,
      "inputs": [
        {
          "name": "_numberPlate",
          "type": "bytes32"
        }
      ],
      "name": "getVehicleDetail",
      "outputs": [
        {
          "name": "",
          "type": "string"
        },
        {
          "name": "",
          "type": "string"
        },
        {
          "name": "",
          "type": "bytes32[]"
        },
        {
          "name": "",
          "type": "bytes32[]"
        },
        {
          "name": "",
          "type": "address"
        }
      ],
      "payable": false,
      "stateMutability": "view",
      "type": "function"
    },
    {
      "constant": true,
      "inputs": [
        {
          "name": "_numberPlate",
          "type": "bytes32"
        }
      ],
      "name": "getVehicleFiltered",
      "outputs": [
        {
          "name": "",
          "type": "bytes32"
        },
        {
          "name": "",
          "type": "bytes32"
        },
        {
          "name": "",
          "type": "bytes32"
        },
        {
          "name": "",
          "type": "string"
        }
      ],
      "payable": false,
      "stateMutability": "view",
      "type": "function"
    },
    {
      "constant": true,
      "inputs": [
        {
          "name": "_numberPlate",
          "type": "bytes32"
        }
      ],
      "name": "vehicleExists",
      "outputs": [
        {
          "name": "",
          "type": "bool"
        }
      ],
      "payable": false,
      "stateMutability": "view",
      "type": "function"
    },
    {
      "constant": true,
      "inputs": [
        {
          "name": "_serialNumber",
          "type": "bytes32"
        }
      ],
      "name": "serialNumberExists",
      "outputs": [
        {
          "name": "",
          "type": "bool"
        }
      ],
      "payable": false,
      "stateMutability": "view",
      "type": "function"
    },
    {
      "constant": true,
      "inputs": [
        {
          "name": "_motorNumber",
          "type": "bytes32"
        }
      ],
      "name": "motorNumberExists",
      "outputs": [
        {
          "name": "",
          "type": "bool"
        }
      ],
      "payable": false,
      "stateMutability": "view",
      "type": "function"
    },
    {
      "constant": true,
      "inputs": [
        {
          "name": "_numberPlate",
          "type": "bytes32"
        },
        {
          "name": "_serialNumber",
          "type": "bytes32"
        }
      ],
      "name": "serialNumberSelfExists",
      "outputs": [
        {
          "name": "",
          "type": "bool"
        }
      ],
      "payable": false,
      "stateMutability": "view",
      "type": "function"
    },
    {
      "constant": true,
      "inputs": [
        {
          "name": "_numberPlate",
          "type": "bytes32"
        },
        {
          "name": "_motorNumber",
          "type": "bytes32"
        }
      ],
      "name": "motorNumberSelfExists",
      "outputs": [
        {
          "name": "",
          "type": "bool"
        }
      ],
      "payable": false,
      "stateMutability": "view",
      "type": "function"
    },
    {
      "constant": false,
      "inputs": [
        {
          "name": "_numberPlate",
          "type": "bytes32"
        },
        {
          "name": "_brand",
          "type": "bytes32"
        },
        {
          "name": "_model",
          "type": "bytes32"
        },
        {
          "name": "_color",
          "type": "bytes32"
        },
        {
          "name": "_serialNumber",
          "type": "bytes32"
        },
        {
          "name": "_motorNumber",
          "type": "bytes32"
        },
        {
          "name": "_reason",
          "type": "bytes32"
        },
        {
          "name": "_photos",
          "type": "string"
        },
        {
          "name": "_documents",
          "type": "string"
        },
        {
          "name": "_ownersId",
          "type": "bytes32[]"
        },
        {
          "name": "_ownersNames",
          "type": "bytes32[]"
        }
      ],
      "name": "registerVehicle",
      "outputs": [
        {
          "name": "",
          "type": "bool"
        }
      ],
      "payable": false,
      "stateMutability": "nonpayable",
      "type": "function"
    },
    {
      "constant": false,
      "inputs": [
        {
          "name": "_numberPlate",
          "type": "bytes32"
        },
        {
          "name": "_color",
          "type": "bytes32"
        },
        {
          "name": "_serialNumber",
          "type": "bytes32"
        },
        {
          "name": "_motorNumber",
          "type": "bytes32"
        },
        {
          "name": "_reason",
          "type": "bytes32"
        },
        {
          "name": "_photos",
          "type": "string"
        },
        {
          "name": "_documents",
          "type": "string"
        },
        {
          "name": "_ownersId",
          "type": "bytes32[]"
        },
        {
          "name": "_ownersNames",
          "type": "bytes32[]"
        }
      ],
      "name": "updateVehicle",
      "outputs": [
        {
          "name": "",
          "type": "bool"
        }
      ],
      "payable": false,
      "stateMutability": "nonpayable",
      "type": "function"
    },
    {
      "constant": false,
      "inputs": [
        {
          "name": "_numberPlate",
          "type": "bytes32"
        },
        {
          "name": "_photos",
          "type": "string"
        }
      ],
      "name": "updateVehiclePhotos",
      "outputs": [
        {
          "name": "",
          "type": "bool"
        }
      ],
      "payable": false,
      "stateMutability": "nonpayable",
      "type": "function"
    },
    {
      "constant": false,
      "inputs": [
        {
          "name": "_numberPlate",
          "type": "bytes32"
        },
        {
          "name": "_documents",
          "type": "string"
        }
      ],
      "name": "updateVehicleDocuments",
      "outputs": [
        {
          "name": "",
          "type": "bool"
        }
      ],
      "payable": false,
      "stateMutability": "nonpayable",
      "type": "function"
    },
    {
      "constant": false,
      "inputs": [
        {
          "name": "_numberPlate",
          "type": "bytes32"
        },
        {
          "name": "_ownersId",
          "type": "bytes32[]"
        },
        {
          "name": "_ownersNames",
          "type": "bytes32[]"
        }
      ],
      "name": "updateVehicleOwner",
      "outputs": [
        {
          "name": "",
          "type": "bool"
        }
      ],
      "payable": false,
      "stateMutability": "nonpayable",
      "type": "function"
    },
    {
      "constant": true,
      "inputs": [
        {
          "name": "word",
          "type": "string"
        },
        {
          "name": "filter",
          "type": "string"
        }
      ],
      "name": "contains",
      "outputs": [
        {
          "name": "",
          "type": "bool"
        }
      ],
      "payable": false,
      "stateMutability": "pure",
      "type": "function"
    },
    {
      "constant": true,
      "inputs": [
        {
          "name": "word",
          "type": "string"
        }
      ],
      "name": "isEmpty",
      "outputs": [
        {
          "name": "",
          "type": "bool"
        }
      ],
      "payable": false,
      "stateMutability": "pure",
      "type": "function"
    }
  ],
  "bytecode": "0x608060405260008054600160a060020a0319163317905561355a806100256000396000f3006080604052600436106101ab5763ffffffff7c01000000000000000000000000000000000000000000000000000000006000350416630a2eb30181146101b057806314a5d6da146101e5578063177c49401461020e578063197fa4b5146102265780631f8787dc1461034d578063249c76fd1461037457806327341c8a1461038c5780632a96ab90146103e55780632e05daaf1461044357806332648e09146104a85780633fb18aec146104f1578063501df3f114610588578063528b7021146105d85780635823aaef1461066b5780635f3ced4e14610686578063637947551461081b57806368fa8134146108c457806375b78426146108e557806376287d34146108fa5780637c3fa49314610a0d5780638da5cb5b14610a2e5780639890369b14610a5f578063a7536ce714610a7a578063a8cb9d0314610a92578063b2aa367b14610bae578063b5976f5d14610bc3578063b77c8f7014610bd8578063c68ea5cd14610bf0578063d067894714610c4e578063d108177a14610c9e578063e6b7e20714610cbf578063ea66543f14610cd4578063ed13e2a814610cf5578063f2fde38b14610d1c575b600080fd5b3480156101bc57600080fd5b506101d1600160a060020a0360043516610d3d565b604080519115158252519081900360200190f35b3480156101f157600080fd5b5061020c600160a060020a0360043516602435604435610d64565b005b34801561021a57600080fd5b506101d1600435610f89565b34801561023257600080fd5b50604080516020600460e43581810135601f81018490048402850184019095528484526101d194823594602480359560443595606435956084359560a4359560c4359536956101049492939190920191819084018382808284375050604080516020601f89358b018035918201839004830284018301909452808352979a999881019791965091820194509250829150840183828082843750506040805187358901803560208181028481018201909552818452989b9a998901989297509082019550935083925085019084908082843750506040805187358901803560208181028481018201909552818452989b9a998901989297509082019550935083925085019084908082843750949750610fed9650505050505050565b34801561035957600080fd5b5061036261149d565b60408051918252519081900360200190f35b34801561038057600080fd5b506101d16004356114a4565b34801561039857600080fd5b506040805160206004803580820135601f81018490048402850184019095528484526101d19436949293602493928401919081908401838280828437509497506114b79650505050505050565b3480156103f157600080fd5b5060408051602060046024803582810135601f81018590048502860185019096528585526101d19583359536956044949193909101919081908401838280828437509497506114d09650505050505050565b34801561044f57600080fd5b50610458611620565b60408051602080825283518183015283519192839290830191858101910280838360005b8381101561049457818101518382015260200161047c565b505050509050019250505060405180910390f35b3480156104b457600080fd5b506104c9600160a060020a03600435166117d1565b6040805194855260208501939093529015158383015215156060830152519081900360800190f35b3480156104fd57600080fd5b506040805160206004803580820135601f81018490048402850184019095528484526101d194369492936024939284019190819084018382808284375050604080516020601f89358b018035918201839004830284018301909452808352979a9998810197919650918201945092508291508401838280828437509497506118109650505050505050565b34801561059457600080fd5b506105a0600435611833565b604080519788526020880196909652868601949094526060860192909252608085015260a084015260c0830152519081900360e00190f35b3480156105e457600080fd5b506040805160206004602480358281013584810280870186019097528086526101d196843596369660449591949091019291829185019084908082843750506040805187358901803560208181028481018201909552818452989b9a9989019892975090820195509350839250850190849080828437509497506118709650505050505050565b34801561067757600080fd5b506101d1600435602435611a40565b34801561069257600080fd5b5061069e600435611a59565b604051808060200180602001806020018060200186600160a060020a0316600160a060020a0316815260200185810385528a818151815260200191508051906020019080838360005b838110156106ff5781810151838201526020016106e7565b50505050905090810190601f16801561072c5780820380516001836020036101000a031916815260200191505b5085810384528951815289516020918201918b019080838360005b8381101561075f578181015183820152602001610747565b50505050905090810190601f16801561078c5780820380516001836020036101000a031916815260200191505b508581038352885181528851602091820191808b01910280838360005b838110156107c15781810151838201526020016107a9565b50505050905001858103825287818151815260200191508051906020019060200280838360005b838110156108005781810151838201526020016107e8565b50505050905001995050505050505050505060405180910390f35b34801561082757600080fd5b50610833600435611c6c565b60408051858152602080820186905291810184905260806060820181815284519183019190915283519192909160a084019185019080838360005b8381101561088657818101518382015260200161086e565b50505050905090810190601f1680156108b35780820380516001836020036101000a031916815260200191505b509550505050505060405180910390f35b3480156108d057600080fd5b5061020c600160a060020a0360043516611d32565b3480156108f157600080fd5b50610362611e42565b34801561090657600080fd5b506040805160206004803580820135601f810184900484028501840190955284845261045894369492936024939284019190819084018382808284375050604080516020601f89358b018035918201839004830284018301909452808352979a99988101979196509182019450925082915084018382808284375050604080516020601f89358b018035918201839004830284018301909452808352979a99988101979196509182019450925082915084018382808284375050604080516020601f89358b018035918201839004830284018301909452808352979a999881019791965091820194509250829150840183828082843750949750611e489650505050505050565b348015610a1957600080fd5b506104586004356024356044356064356120fe565b348015610a3a57600080fd5b50610a43612331565b60408051600160a060020a039092168252519081900360200190f35b348015610a6b57600080fd5b506101d1600435602435612340565b348015610a8657600080fd5b50610a43600435612357565b348015610a9e57600080fd5b50604080516020600460a43581810135601f81018490048402850184019095528484526101d19482359460248035956044359560643595608435953695929460c494920191819084018382808284375050604080516020601f89358b018035918201839004830284018301909452808352979a999881019791965091820194509250829150840183828082843750506040805187358901803560208181028481018201909552818452989b9a998901989297509082019550935083925085019084908082843750506040805187358901803560208181028481018201909552818452989b9a99890198929750908201955093508392508501908490808284375094975061237f9650505050505050565b348015610bba57600080fd5b50610458612791565b348015610bcf57600080fd5b5061045861293a565b348015610be457600080fd5b506101d160043561299c565b348015610bfc57600080fd5b5060408051602060046024803582810135601f81018590048502860185019096528585526101d19583359536956044949193909101919081908401838280828437509497506129f99650505050505050565b348015610c5a57600080fd5b50610c6f600160a060020a0360043516612b3f565b604080519586526020860194909452911515848401521515606084015215156080830152519081900360a00190f35b348015610caa57600080fd5b5061020c600160a060020a0360043516612b75565b348015610ccb57600080fd5b50610458612cab565b348015610ce057600080fd5b506101d1600160a060020a0360043516612d03565b348015610d0157600080fd5b5061020c600160a060020a0360043516602435604435612d2b565b348015610d2857600080fd5b5061020c600160a060020a0360043516612f77565b600160a060020a031660009081526002602081905260409091200154610100900460ff1690565b600054600160a060020a03163314610dec576040805160e560020a62461bcd02815260206004820152602e60248201527f596f7520617265206e6f7420746865206f776e65722e20596f7520617265206e60448201527f6f7420617574686f72697a65642e000000000000000000000000000000000000606482015290519081900360840190fd5b600160a060020a0383161515610e4e576040805160e560020a62461bcd028152602060048201526030602482015260008051602061346f83398151915260448201526000805160206134af833981519152606482015290519081900360840190fd5b600160a060020a0383166000908152600260208190526040909120015460ff1615610eab57600160a060020a03831660009081526002602081905260409091208381556001810183905501805461ff001916610100179055610f84565b6040805160a081018252838152602080820184815260018385018181526060850182815260808601838152600160a060020a038b166000818152600297889052988920975188559451878501559151959094018054945191511515620100000262ff0000199215156101000261ff001997151560ff19909716969096179690961694909417169390931790915581548083018355919092527fb10e2d527612073b26eecdfd717e6a320cf44b4afac2b0732d9fcbe2b7fa0cf601805473ffffffffffffffffffffffffffffffffffffffff191690911790555b505050565b600080805b600354811015610fe657836000191660046000600384815481101515610fb057fe5b600091825260208083209091015483528201929092526040019020600501541415610fde5760019150610fe6565b600101610f8e565b5092915050565b33600090815260026020819052604082200154819062010000900460ff16806110205750600054600160a060020a031633145b1515611078576040805160e560020a62461bcd02815260206004820152602f602482015260008051602061350f833981519152604482015260008051602061348f833981519152606482015290519081900360840190fd5b60008d116110be576040805160e560020a62461bcd02815260206004820152601e60248201526000805160206134ef833981519152604482015290519081900360640190fd5b60008d8152600460205260408120541115611149576040805160e560020a62461bcd02815260206004820152602260248201527f5468652076656869636c6520697320616c72656164792072656769737465726560448201527f642e000000000000000000000000000000000000000000000000000000000000606482015290519081900360840190fd5b82518451146111a2576040805160e560020a62461bcd02815260206004820152601b60248201527f4f776e657273206461746120646f6573206e6f74206d617463682e0000000000604482015290519081900360640190fd5b5060008c81526004602081815260409092208e8155600181018e9055600281018d9055600381018c90559081018a90556005810189905560068101889055865190916111f5916007840191890190613382565b50845161120b9060088301906020880190613382565b5083516112219060098301906020870190613400565b50825161123790600a8301906020860190613400565b503381600b0160006101000a815481600160a060020a030219169083600160a060020a0316021790555060038d908060018154018082558091505090600182039060005260206000200160009091929091909150906000191690555033600160a060020a03168d600019167f5adf0cfe500edb47a40576e1399771b724a14e37497b17a7cc841cfa443722c88e8e8e8e8e8e8e8e8e8e604051808b600019166000191681526020018a60001916600019168152602001896000191660001916815260200188600019166000191681526020018760001916600019168152602001866000191660001916815260200180602001806020018060200180602001858103855289818151815260200191508051906020019080838360005b8381101561136a578181015183820152602001611352565b50505050905090810190601f1680156113975780820380516001836020036101000a031916815260200191505b5085810384528851815288516020918201918a019080838360005b838110156113ca5781810151838201526020016113b2565b50505050905090810190601f1680156113f75780820380516001836020036101000a031916815260200191505b508581038352875181528751602091820191808a01910280838360005b8381101561142c578181015183820152602001611414565b50505050905001858103825286818151815260200191508051906020019060200280838360005b8381101561146b578181015183820152602001611453565b505050509050019e50505050505050505050505050505060405180910390a35060019c9b505050505050505050505050565b6003545b90565b6000908152600460205260408120541190565b60006114ca6114c5836130c9565b6130ef565b92915050565b3360009081526002602081905260408220015462010000900460ff16806115015750600054600160a060020a031633145b1515611559576040805160e560020a62461bcd02815260206004820152602f602482015260008051602061350f833981519152604482015260008051602061348f833981519152606482015290519081900360840190fd5b6000831161159f576040805160e560020a62461bcd02815260206004820152601e60248201526000805160206134ef833981519152604482015290519081900360640190fd5b600083815260046020526040812054116115f1576040805160e560020a62461bcd02815260206004820152601e60248201526000805160206134cf833981519152604482015290519081900360640190fd5b6000838152600460209081526040909120835161161692600890920191850190613382565b5060019392505050565b60608060008060606000600180549050604051908082528060200260200182016040528015611659578160200160208202803883390190505b509450600093508392505b600154831015611714576002600060018581548110151561168157fe5b6000918252602080832090910154600160a060020a0316835282019290925260400190206002015460ff61010090910416156117095760018054849081106116c557fe5b6000918252602090912001548551600160a060020a03909116908690859081106116eb57fe5b600160a060020a039092166020928302909101909101526001909301925b600190920191611664565b8360405190808252806020026020018201604052801561173e578160200160208202803883390190505b50915060009050600092505b84518310156117c857845160009086908590811061176457fe5b60209081029091010151600160a060020a0316146117bd57848381518110151561178a57fe5b9060200190602002015182828151811015156117a257fe5b600160a060020a039092166020928302909101909101526001015b60019092019161174a565b50949350505050565b600160a060020a031660009081526002602081905260409091208054600182015491909201549192909160ff6101008204811692620100009092041690565b600061182c61181e846130c9565b611827846130c9565b6130f4565b9392505050565b6000908152600460208190526040909120805460018201546002830154600384015494840154600585015460069095015493969295919491939092565b3360009081526002602081905260408220015462010000900460ff16806118a15750600054600160a060020a031633145b15156118f9576040805160e560020a62461bcd02815260206004820152602f602482015260008051602061350f833981519152604482015260008051602061348f833981519152606482015290519081900360840190fd5b6000841161193f576040805160e560020a62461bcd02815260206004820152601e60248201526000805160206134ef833981519152604482015290519081900360640190fd5b60008481526004602052604081205411611991576040805160e560020a62461bcd02815260206004820152601e60248201526000805160206134cf833981519152604482015290519081900360640190fd5b81518351146119ea576040805160e560020a62461bcd02815260206004820152601b60248201527f4f776e657273206461746120646f6573206e6f74206d617463682e0000000000604482015290519081900360640190fd5b60008481526004602090815260409091208451611a0f92600990920191860190613400565b5060008481526004602090815260409091208351611a3592600a90920191850190613400565b506001949350505050565b6000918252600460208190526040909220909101541490565b6000818152600460209081526040808320600b8101546007820180548451601f60026001841615610100026000190190931692909204918201879004870281018701909552808552606096879687968796929592949360088601936009870193600a880193600160a060020a03909216928791830182828015611b1d5780601f10611af257610100808354040283529160200191611b1d565b820191906000526020600020905b815481529060010190602001808311611b0057829003601f168201915b5050875460408051602060026001851615610100026000190190941693909304601f8101849004840282018401909252818152959a5089945092508401905082828015611bab5780601f10611b8057610100808354040283529160200191611bab565b820191906000526020600020905b815481529060010190602001808311611b8e57829003601f168201915b5050505050935082805480602002602001604051908101604052809291908181526020018280548015611bfe57602002820191906000526020600020905b81548152600190910190602001808311611be9575b5050505050925081805480602002602001604051908101604052809291908181526020018280548015611c5157602002820191906000526020600020905b81548152600190910190602001808311611c3c575b50505050509150955095509550955095505091939590929450565b6000818152600460209081526040808320805460018083015460028085015460078601805488516000199682161561010002969096011692909204601f810189900489028501890190975286845288978897606097969592939291839190830182828015611d1b5780601f10611cf057610100808354040283529160200191611d1b565b820191906000526020600020905b815481529060010190602001808311611cfe57829003601f168201915b505050505090509450945094509450509193509193565b600054600160a060020a03163314611dba576040805160e560020a62461bcd02815260206004820152602e60248201527f596f7520617265206e6f7420746865206f776e65722e20596f7520617265206e60448201527f6f7420617574686f72697a65642e000000000000000000000000000000000000606482015290519081900360840190fd5b600160a060020a0381161515611e1c576040805160e560020a62461bcd028152602060048201526030602482015260008051602061346f83398151915260448201526000805160206134af833981519152606482015290519081900360840190fd5b600160a060020a0316600090815260026020819052604090912001805461ff0019169055565b60015490565b60608060008060608060608060606000600380549050604051908082528060200260200182016040528015611e87578160200160208202803883390190505b509850600097508796505b60035487101561204f57611ed36004600060038a815481101515611eb257fe5b6000918252602080832090910154835282019290925260400190205461311b565b9550611f0f6004600060038a815481101515611eeb57fe5b6000918252602080832090910154835282019290925260400190206001015461311b565b9450611f4b6004600060038a815481101515611f2757fe5b6000918252602080832090910154835282019290925260400190206002015461311b565b9350611f876004600060038a815481101515611f6357fe5b6000918252602080832090910154835282019290925260400190206003015461311b565b9250611f928e6114b7565b158015611fa45750611fa4868f611810565b80611fc55750611fb38d6114b7565b158015611fc55750611fc5858e611810565b80611fe65750611fd48c6114b7565b158015611fe65750611fe6848d611810565b806120075750611ff58b6114b7565b1580156120075750612007838c611810565b1561204457600380548890811061201a57fe5b9060005260206000200154898881518110151561203357fe5b602090810290910101526001909701965b600190960195611e92565b87604051908082528060200260200182016040528015612079578160200160208202803883390190505b50915060009050600096505b88518710156120ed5788516000908a908990811061209f57fe5b60209081029091010151146120e25788878151811015156120bc57fe5b9060200190602002015182828151811015156120d457fe5b602090810290910101526001015b600190960195612085565b509c9b505050505050505050505050565b60608060008060606000600380549050604051908082528060200260200182016040528015612137578160200160208202803883390190505b509450600093508392505b6003548310156122865789600019166004600060038681548110151561216457fe5b6000918252602080832090910154835282019290925260400190205414806121c0575088600019166004600060038681548110151561219f57fe5b60009182526020808320909101548352820192909252604001902060010154145b806121ff57508760001916600460006003868154811015156121de57fe5b60009182526020808320909101548352820192909252604001902060020154145b8061223e575086600019166004600060038681548110151561221d57fe5b60009182526020808320909101548352820192909252604001902060030154145b1561227b57600380548490811061225157fe5b9060005260206000200154858481518110151561226a57fe5b602090810290910101526001909301925b600190920191612142565b836040519080825280602002602001820160405280156122b0578160200160208202803883390190505b50915060009050600092505b84518310156123245784516000908690859081106122d657fe5b60209081029091010151146123195784838151811015156122f357fe5b90602001906020020151828281518110151561230b57fe5b602090810290910101526001015b6001909201916122bc565b5098975050505050505050565b600054600160a060020a031681565b600091825260046020526040909120600501541490565b600180548290811061236557fe5b600091825260209091200154600160a060020a0316905081565b33600090815260026020819052604082200154819062010000900460ff16806123b25750600054600160a060020a031633145b151561240a576040805160e560020a62461bcd02815260206004820152602f602482015260008051602061350f833981519152604482015260008051602061348f833981519152606482015290519081900360840190fd5b60008b11612450576040805160e560020a62461bcd02815260206004820152601e60248201526000805160206134ef833981519152604482015290519081900360640190fd5b60008b815260046020526040812054116124a2576040805160e560020a62461bcd02815260206004820152601e60248201526000805160206134cf833981519152604482015290519081900360640190fd5b82518451146124fb576040805160e560020a62461bcd02815260206004820152601b60248201527f4f776e657273206461746120646f6573206e6f74206d617463682e0000000000604482015290519081900360640190fd5b5060008a8152600460208181526040909220600381018c90559081018a905560058101899055600681018890558651909161253d916007840191890190613382565b5084516125539060088301906020880190613382565b5083516125699060098301906020870190613400565b50825161257f90600a8301906020860190613400565b503381600b0160006101000a815481600160a060020a030219169083600160a060020a0316021790555033600160a060020a03168b600019167fb18ff714db266186b00d156a6fbcb98d7d286375a19f3dc9b189eca961aaa4808c8c8c8c8c8c8c8c60405180896000191660001916815260200188600019166000191681526020018760001916600019168152602001866000191660001916815260200180602001806020018060200180602001858103855289818151815260200191508051906020019080838360005b8381101561266257818101518382015260200161264a565b50505050905090810190601f16801561268f5780820380516001836020036101000a031916815260200191505b5085810384528851815288516020918201918a019080838360005b838110156126c25781810151838201526020016126aa565b50505050905090810190601f1680156126ef5780820380516001836020036101000a031916815260200191505b508581038352875181528751602091820191808a01910280838360005b8381101561272457818101518382015260200161270c565b50505050905001858103825286818151815260200191508051906020019060200280838360005b8381101561276357818101518382015260200161274b565b505050509050019c5050505050505050505050505060405180910390a35060019a9950505050505050505050565b606080600080606060006001805490506040519080825280602002602001820160405280156127ca578160200160208202803883390190505b509450600093508392505b60015483101561288657600260006001858154811015156127f257fe5b6000918252602080832090910154600160a060020a0316835282019290925260400190206002015460ff62010000909104161561287b57600180548490811061283757fe5b6000918252602090912001548551600160a060020a039091169086908590811061285d57fe5b600160a060020a039092166020928302909101909101526001909301925b6001909201916127d5565b836040519080825280602002602001820160405280156128b0578160200160208202803883390190505b50915060009050600092505b84518310156117c85784516000908690859081106128d657fe5b60209081029091010151600160a060020a03161461292f5784838151811015156128fc57fe5b90602001906020020151828281518110151561291457fe5b600160a060020a039092166020928302909101909101526001015b6001909201916128bc565b6060600180548060200260200160405190810160405280929190818152602001828054801561299257602002820191906000526020600020905b8154600160a060020a03168152600190910190602001808311612974575b5050505050905090565b600080805b600354811015610fe6578360001916600460006003848154811015156129c357fe5b6000918252602080832090910154835282019290925260400190206004015414156129f15760019150610fe6565b6001016129a1565b3360009081526002602081905260408220015462010000900460ff1680612a2a5750600054600160a060020a031633145b1515612a82576040805160e560020a62461bcd02815260206004820152602f602482015260008051602061350f833981519152604482015260008051602061348f833981519152606482015290519081900360840190fd5b60008311612ac8576040805160e560020a62461bcd02815260206004820152601e60248201526000805160206134ef833981519152604482015290519081900360640190fd5b60008381526004602052604081205411612b1a576040805160e560020a62461bcd02815260206004820152601e60248201526000805160206134cf833981519152604482015290519081900360640190fd5b6000838152600460209081526040909120835161161692600790920191850190613382565b600260208190526000918252604090912080546001820154919092015460ff808216916101008104821691620100009091041685565b3360009081526002602081905260409091200154610100900460ff1680612ba65750600054600160a060020a031633145b1515612c22576040805160e560020a62461bcd02815260206004820152603460248201527f596f7520617265206e6f7420612061646d696e6973747261746f722e20596f7560448201527f20617265206e6f7420617574686f72697a65642e000000000000000000000000606482015290519081900360840190fd5b600160a060020a0381161515612c84576040805160e560020a62461bcd028152602060048201526030602482015260008051602061346f83398151915260448201526000805160206134af833981519152606482015290519081900360840190fd5b600160a060020a0316600090815260026020819052604090912001805462ff000019169055565b6060600380548060200260200160405190810160405280929190818152602001828054801561299257602002820191906000526020600020905b81548152600190910190602001808311612ce5575050505050905090565b600160a060020a03166000908152600260208190526040909120015462010000900460ff1690565b3360009081526002602081905260409091200154610100900460ff1680612d5c5750600054600160a060020a031633145b1515612dd8576040805160e560020a62461bcd02815260206004820152603460248201527f596f7520617265206e6f7420612061646d696e6973747261746f722e20596f7560448201527f20617265206e6f7420617574686f72697a65642e000000000000000000000000606482015290519081900360840190fd5b600160a060020a0383161515612e3a576040805160e560020a62461bcd028152602060048201526030602482015260008051602061346f83398151915260448201526000805160206134af833981519152606482015290519081900360840190fd5b600160a060020a0383166000908152600260208190526040909120015460ff1615612e9957600160a060020a03831660009081526002602081905260409091208381556001810183905501805462ff0000191662010000179055610f84565b6040805160a0810182528381526020808201848152600183850181815260006060860181815260808701848152600160a060020a038c16808452600297889052988320975188559451878501559151959094018054915193511515620100000262ff0000199415156101000261ff001997151560ff1990941693909317969096169190911792909216939093179055815480830183559190527fb10e2d527612073b26eecdfd717e6a320cf44b4afac2b0732d9fcbe2b7fa0cf601805473ffffffffffffffffffffffffffffffffffffffff19169091179055505050565b600054600160a060020a03163314612fff576040805160e560020a62461bcd02815260206004820152602e60248201527f596f7520617265206e6f7420746865206f776e65722e20596f7520617265206e60448201527f6f7420617574686f72697a65642e000000000000000000000000000000000000606482015290519081900360840190fd5b600160a060020a0381161515613061576040805160e560020a62461bcd028152602060048201526030602482015260008051602061346f83398151915260448201526000805160206134af833981519152606482015290519081900360840190fd5b60008054604051600160a060020a03808516939216917f8be0079c531659141344cd1fd0a4f28419497f9722a3daafe3b4186f6b6457e091a36000805473ffffffffffffffffffffffffffffffffffffffff1916600160a060020a0392909216919091179055565b6130d161343d565b50604080518082019091528151815260209182019181019190915290565b511590565b602080830151835183519284015160009361311292918491906132c9565b14159392505050565b6040805160208082528183019092526060918291600091829182918591908082016104008038833901905050945060009350600092505b60208310156131df576008830260020a870291507fff000000000000000000000000000000000000000000000000000000000000008216156131d45781858581518110151561319d57fe5b9060200101907effffffffffffffffffffffffffffffffffffffffffffffffffffffffffffff1916908160001a9053506001909301925b600190920191613152565b836040519080825280601f01601f19166020018201604052801561320d578160200160208202803883390190505b509050600092505b838310156132bf57848381518110151561322b57fe5b9060200101517f010000000000000000000000000000000000000000000000000000000000000090047f010000000000000000000000000000000000000000000000000000000000000002818481518110151561328457fe5b9060200101907effffffffffffffffffffffffffffffffffffffffffffffffffffffffffffff1916908160001a905350600190920191613215565b9695505050505050565b60008080808080808a8911613370576020891161333b5760018960200360080260020a03196001029450848851169350888b8b010395508486511692505b8284146133315789861161331d57899650613374565b600019909501805190959085169250613307565b8886019650613374565b8888209150888b038a0195505b898610613370575087852081811415613365578886019650613374565b600186039550613348565b8996505b505050505050949350505050565b828054600181600116156101000203166002900490600052602060002090601f016020900481019282601f106133c357805160ff19168380011785556133f0565b828001600101855582156133f0579182015b828111156133f05782518255916020019190600101906133d5565b506133fc929150613454565b5090565b8280548282559060005260206000209081019282156133f0579160200282015b828111156133f05782518255602090920191600190910190613420565b604080518082019091526000808252602082015290565b6114a191905b808211156133fc576000815560010161345a5600596f7520617474656d7074656420746f20616464207065726d697373696f6e736e6f7420617574686f72697a65642e000000000000000000000000000000000020746f2030783020616464726573732e000000000000000000000000000000005468652076656869636c65206973206e6f7420726567697374657265642e00004e756d62657220706c6174652063616e206e6f7420626520656d7074792e0000596f7520617265206e6f74206120656d706c6f7965652e20596f752061726520a165627a7a723058202316bbb4f0bf091115339899ac4dc744e37f00b3b714103ad66863c04d5eb4390029",
  "source": "pragma solidity ^0.4.24;\n//pragma experimental ABIEncoderV2;\n\nimport \"./strings.sol\";\nimport \"./authorizable.sol\";\n\n\ncontract VehicleFactory is Authorizable {\n\n    using Strings for *;\n\n    // Structs\n    struct Vehicle {\n        // Inmutable\n        bytes32 numberPlate;\n        bytes32 brand;\n        bytes32 model;\n\n        // Mutable\n        bytes32 color;\n        bytes32 serialNumber; // chassis\n        bytes32 motorNumber;\n        bytes32 reason;\n\n        string photos;\n        string documents;\n        bytes32[] ownersIds;\n        bytes32[] ownersNames;\n\n        address employeeAddress;\n    }\n\n    // Global variables\n    bytes32[] private vehiclesNumberPlate;\n    mapping (bytes32 => Vehicle) private vehicles;\n    \n    // Events\n    event VehicleRegistered\n    (\n        bytes32 indexed numberPlate, bytes32 brand, bytes32 model,\n        bytes32 color, bytes32 serialNumber, bytes32 motorNumber, bytes32 reason,\n        string photos, string documents, bytes32[] ownersId, bytes32[] ownersNames,\n        address indexed employeeAddress\n    );\n\n    event VehicleUpdated\n    (\n        bytes32 indexed numberPlate,\n        bytes32 color, bytes32 serialNumber, bytes32 motorNumber, bytes32 reason,\n        string photos, string documents, bytes32[] ownersId, bytes32[] ownersNames,\n        address indexed employeeAddress\n    );\n\n\n    // Methods: GET\n    function getVehiclesCount() \n    public view returns (uint) {\n        return vehiclesNumberPlate.length;\n    }\n\n    function getVehicles() \n    public view returns (bytes32[]) {\n        return vehiclesNumberPlate;\n    }\n\n    function getVehiclesFiltered\n    (\n        bytes32 _numberPlate, \n        bytes32 _brand, bytes32 _model,\n        bytes32 _color\n    )\n    public view returns (bytes32[]) {\n        bytes32[] memory vehiclesFiltered = new bytes32[](vehiclesNumberPlate.length);\n        uint count = 0;\n        uint i = 0;\n        for(i = 0; i<vehiclesNumberPlate.length; i++) {\n            if( vehicles[vehiclesNumberPlate[i]].numberPlate == _numberPlate ||\n                vehicles[vehiclesNumberPlate[i]].brand == _brand ||\n                vehicles[vehiclesNumberPlate[i]].model == _model ||\n                vehicles[vehiclesNumberPlate[i]].color == _color) {\n                vehiclesFiltered[i] = vehiclesNumberPlate[i];\n                count++;\n            }\n        }\n\n        bytes32[] memory vehiclesResult = new bytes32[](count);\n        uint j = 0;\n        for(i = 0; i<vehiclesFiltered.length; i++) {\n            if(vehiclesFiltered[i] != bytes32(0)) {\n                vehiclesResult[j] = vehiclesFiltered[i];\n                j++;\n            }\n        }\n        return vehiclesResult;\n    }\n\n    function getVehiclesFilteredWithContains\n    (\n        string _numberPlate, \n        string _brand, string _model,\n        string _color\n    )\n    public view returns (bytes32[]) {\n        bytes32[] memory vehiclesFiltered = new bytes32[](vehiclesNumberPlate.length);\n        uint count = 0;\n        uint i = 0;\n        for(i = 0; i<vehiclesNumberPlate.length; i++) {\n            string memory numberPlate = bytes32ToString(vehicles[vehiclesNumberPlate[i]].numberPlate);\n            string memory brand = bytes32ToString(vehicles[vehiclesNumberPlate[i]].brand);\n            string memory model = bytes32ToString(vehicles[vehiclesNumberPlate[i]].model);\n            string memory color = bytes32ToString(vehicles[vehiclesNumberPlate[i]].color);\n\n            if(!isEmpty(_numberPlate) && contains(numberPlate, _numberPlate) ||\n                !isEmpty(_brand) && contains(brand, _brand) ||\n                !isEmpty(_model) && contains(model, _model) ||\n                !isEmpty(_color) && contains(color, _color)) {\n                vehiclesFiltered[i] = vehiclesNumberPlate[i];\n                count++;\n            }\n        }\n\n        bytes32[] memory vehiclesResult = new bytes32[](count);\n        uint j = 0;\n        for(i = 0; i<vehiclesFiltered.length; i++) {\n            if(vehiclesFiltered[i] != bytes32(0)) {\n                vehiclesResult[j] = vehiclesFiltered[i];\n                j++;\n            }\n        }\n        return vehiclesResult;\n    }\n\n    function getVehicle\n    (\n        bytes32 _numberPlate\n    )\n    public view returns \n    (\n        bytes32, bytes32, bytes32,\n        bytes32, bytes32, bytes32, bytes32\n    ) {\n        Vehicle storage vehicle = vehicles[_numberPlate];\n        return (\n            vehicle.numberPlate, vehicle.brand, vehicle.model,\n            vehicle.color, vehicle.serialNumber, vehicle.motorNumber, vehicle.reason\n        );\n    }\n\n    function getVehicleDetail\n    (\n        bytes32 _numberPlate\n    )\n    public view returns\n    (\n        string, string, bytes32[], bytes32[],\n        address\n    ) {\n        Vehicle storage vehicle = vehicles[_numberPlate];\n        return (\n            vehicle.photos, vehicle.documents, vehicle.ownersIds, vehicle.ownersNames,\n            vehicle.employeeAddress\n        );\n    }\n\n    function getVehicleFiltered\n    (\n        bytes32 _numberPlate\n    )\n    public view returns \n    (\n        bytes32, bytes32, bytes32, string\n    ) {\n        Vehicle storage vehicle = vehicles[_numberPlate];\n        return (\n            vehicle.numberPlate, vehicle.brand, vehicle.model, vehicle.photos\n        );\n    }\n\n    // Methods: EXISTS\n    function vehicleExists\n    (\n        bytes32 _numberPlate\n    )\n    public view returns (bool) {\n        return vehicles[_numberPlate].numberPlate > 0;\n    }\n\n    function serialNumberExists\n    (\n        bytes32 _serialNumber\n    )\n    public view returns (bool) {\n        bool exists;\n        uint i = 0;\n        for(i = 0; i<vehiclesNumberPlate.length; i++) {\n            if( vehicles[vehiclesNumberPlate[i]].serialNumber == _serialNumber) {\n                exists = true;\n                break;\n            }\n        }\n        return exists;\n    }\n\n    function motorNumberExists\n    (\n        bytes32 _motorNumber\n    )\n    public view returns (bool) {\n        bool exists;\n        uint i = 0;\n        for(i = 0; i<vehiclesNumberPlate.length; i++) {\n            if( vehicles[vehiclesNumberPlate[i]].motorNumber == _motorNumber) {\n                exists = true;\n                break;\n            }\n        }\n        return exists;\n    }\n\n    function serialNumberSelfExists\n    (\n        bytes32 _numberPlate, bytes32 _serialNumber\n    )\n    public view returns (bool) {\n        return vehicles[_numberPlate].serialNumber == _serialNumber;\n    }\n\n    function motorNumberSelfExists\n    (\n        bytes32 _numberPlate, bytes32 _motorNumber\n    )\n    public view returns (bool) {\n        return vehicles[_numberPlate].motorNumber == _motorNumber;\n    }\n\n    // Methods: POST\n    function registerVehicle\n    (\n        bytes32 _numberPlate, bytes32 _brand, bytes32 _model,\n        bytes32 _color, bytes32 _serialNumber, bytes32 _motorNumber, bytes32 _reason,\n        string _photos, string _documents, bytes32[] _ownersId, bytes32[] _ownersNames\n    )\n    public onlyEmployee returns (bool) {\n        require(_numberPlate > 0, \"Number plate can not be empty.\");\n        require(vehicles[_numberPlate].numberPlate <= 0, \"The vehicle is already registered.\");\n        require(_ownersId.length == _ownersNames.length, \"Owners data does not match.\");\n\n        Vehicle storage vehicle = vehicles[_numberPlate];\n        vehicle.numberPlate = _numberPlate;\n        vehicle.brand = _brand;\n        vehicle.model = _model;\n\n        vehicle.color = _color;\n        vehicle.serialNumber = _serialNumber;\n        vehicle.motorNumber = _motorNumber;\n        vehicle.reason = _reason;\n\n        vehicle.photos = _photos;\n        vehicle.documents = _documents;\n        vehicle.ownersIds = _ownersId;\n        vehicle.ownersNames = _ownersNames;\n\n        vehicle.employeeAddress = msg.sender;\n\n        vehiclesNumberPlate.push(_numberPlate);\n\n        emit VehicleRegistered(\n            _numberPlate, _brand, _model, _color, _serialNumber, _motorNumber, _reason,\n            _photos, _documents, _ownersId, _ownersNames, msg.sender\n        );\n        return true;\n    }\n    \n    function updateVehicle\n    (\n        bytes32 _numberPlate,\n        bytes32 _color, bytes32 _serialNumber, bytes32 _motorNumber, bytes32 _reason,\n        string _photos, string _documents, bytes32[] _ownersId, bytes32[] _ownersNames\n    )\n    public onlyEmployee returns (bool) {\n        require(_numberPlate > 0, \"Number plate can not be empty.\");\n        require(vehicles[_numberPlate].numberPlate > 0, \"The vehicle is not registered.\");\n        require(_ownersId.length == _ownersNames.length, \"Owners data does not match.\");\n\n        Vehicle storage vehicle = vehicles[_numberPlate];\n        vehicle.color = _color;\n        vehicle.serialNumber = _serialNumber;\n        vehicle.motorNumber = _motorNumber;\n        vehicle.reason = _reason;\n\n        vehicle.photos = _photos;\n        vehicle.documents = _documents;\n        vehicle.ownersIds = _ownersId;\n        vehicle.ownersNames = _ownersNames;\n\n        vehicle.employeeAddress = msg.sender;\n\n        emit VehicleUpdated(\n            _numberPlate, _color, _serialNumber, _motorNumber, _reason,\n            _photos, _documents, _ownersId, _ownersNames,\n            msg.sender\n        );\n        return true;\n    }\n\n    function updateVehiclePhotos\n    (\n        bytes32 _numberPlate,\n        string _photos\n    )\n    public onlyEmployee returns (bool) {\n        require(_numberPlate > 0, \"Number plate can not be empty.\");\n        require(vehicles[_numberPlate].numberPlate > 0, \"The vehicle is not registered.\");\n\n        vehicles[_numberPlate].photos = _photos;\n        return true;\n    }\n\n    function updateVehicleDocuments\n    (\n        bytes32 _numberPlate,\n        string _documents\n    )\n    public onlyEmployee returns (bool) {\n        require(_numberPlate > 0, \"Number plate can not be empty.\");\n        require(vehicles[_numberPlate].numberPlate > 0, \"The vehicle is not registered.\");\n\n        vehicles[_numberPlate].documents = _documents;\n        return true;\n    }\n\n    function updateVehicleOwner\n    (\n        bytes32 _numberPlate,\n        bytes32[] _ownersId, bytes32[] _ownersNames\n    )\n    public onlyEmployee returns (bool) {\n        require(_numberPlate > 0, \"Number plate can not be empty.\");\n        require(vehicles[_numberPlate].numberPlate > 0, \"The vehicle is not registered.\");\n        require(_ownersId.length == _ownersNames.length, \"Owners data does not match.\");\n\n        vehicles[_numberPlate].ownersIds = _ownersId;\n        vehicles[_numberPlate].ownersNames = _ownersNames;\n        return true;\n    }\n\n\n    // Methods: UTILS\n    function bytes32ToString(bytes32 x) internal pure returns (string) {\n        bytes memory bytesString = new bytes(32);\n        uint charCount = 0;\n        for (uint j = 0; j < 32; j++) {\n            byte char = byte(bytes32(uint(x) * 2 ** (8 * j)));\n            if (char != 0) {\n                bytesString[charCount] = char;\n                charCount++;\n            }\n        }\n        bytes memory bytesStringTrimmed = new bytes(charCount);\n        for (j = 0; j < charCount; j++) {\n            bytesStringTrimmed[j] = bytesString[j];\n        }\n        return string(bytesStringTrimmed);\n    }\n\n    function contains\n    (\n        string word, string filter\n    )\n    public pure returns (bool) {\n        return Strings.contains(Strings.toSlice(word), Strings.toSlice(filter));\n    }\n\n    function isEmpty\n    (\n        string word\n    )\n    public pure returns (bool) {\n        return Strings.empty(Strings.toSlice(word));\n    }\n}",
  "sourcePath": "/Users/helmutcutipa/Desktop/Desarrollo/blockchain/crypto-vehicle/src/smartContracts/contracts/VehicleFactory.sol",
  "compiler": {
    "name": "solc",
    "version": "0.4.24+commit.e67f0147.Emscripten.clang"
  },
  "schemaVersion": "2.0.1",
  "updatedAt": "2018-10-04T00:41:43.848Z"
}