{
  "contractName": "VehicleFactory",
  "abi": [
    {
      "constant": true,
      "inputs": [
        {
          "name": "_employeeAddress",
          "type": "address"
        }
      ],
      "name": "isAdministrator",
      "outputs": [
        {
          "name": "",
          "type": "bool"
        }
      ],
      "payable": false,
      "stateMutability": "view",
      "type": "function"
    },
    {
      "constant": false,
      "inputs": [
        {
          "name": "_toAdd",
          "type": "address"
        },
        {
          "name": "_dni",
          "type": "bytes32"
        },
        {
          "name": "_name",
          "type": "bytes32"
        }
      ],
      "name": "setAdministrator",
      "outputs": [],
      "payable": false,
      "stateMutability": "nonpayable",
      "type": "function"
    },
    {
      "constant": true,
      "inputs": [
        {
          "name": "_employeeAddress",
          "type": "address"
        }
      ],
      "name": "getEmployee",
      "outputs": [
        {
          "name": "",
          "type": "bytes32"
        },
        {
          "name": "",
          "type": "bytes32"
        },
        {
          "name": "",
          "type": "bool"
        },
        {
          "name": "",
          "type": "bool"
        }
      ],
      "payable": false,
      "stateMutability": "view",
      "type": "function"
    },
    {
      "constant": false,
      "inputs": [
        {
          "name": "_toRemove",
          "type": "address"
        }
      ],
      "name": "removeAdministrator",
      "outputs": [],
      "payable": false,
      "stateMutability": "nonpayable",
      "type": "function"
    },
    {
      "constant": true,
      "inputs": [],
      "name": "getEmployeesCount",
      "outputs": [
        {
          "name": "",
          "type": "uint256"
        }
      ],
      "payable": false,
      "stateMutability": "view",
      "type": "function"
    },
    {
      "constant": true,
      "inputs": [],
      "name": "owner",
      "outputs": [
        {
          "name": "",
          "type": "address"
        }
      ],
      "payable": false,
      "stateMutability": "view",
      "type": "function"
    },
    {
      "constant": true,
      "inputs": [
        {
          "name": "",
          "type": "uint256"
        }
      ],
      "name": "employeesAccounts",
      "outputs": [
        {
          "name": "",
          "type": "address"
        }
      ],
      "payable": false,
      "stateMutability": "view",
      "type": "function"
    },
    {
      "constant": true,
      "inputs": [
        {
          "name": "",
          "type": "address"
        }
      ],
      "name": "employees",
      "outputs": [
        {
          "name": "dni",
          "type": "bytes32"
        },
        {
          "name": "name",
          "type": "bytes32"
        },
        {
          "name": "isAdministrator",
          "type": "bool"
        },
        {
          "name": "isEmployee",
          "type": "bool"
        }
      ],
      "payable": false,
      "stateMutability": "view",
      "type": "function"
    },
    {
      "constant": false,
      "inputs": [
        {
          "name": "_toRemove",
          "type": "address"
        }
      ],
      "name": "removeEmployee",
      "outputs": [],
      "payable": false,
      "stateMutability": "nonpayable",
      "type": "function"
    },
    {
      "constant": true,
      "inputs": [
        {
          "name": "_employeeAddress",
          "type": "address"
        }
      ],
      "name": "isEmployee",
      "outputs": [
        {
          "name": "",
          "type": "bool"
        }
      ],
      "payable": false,
      "stateMutability": "view",
      "type": "function"
    },
    {
      "constant": false,
      "inputs": [
        {
          "name": "_toAdd",
          "type": "address"
        },
        {
          "name": "_dni",
          "type": "bytes32"
        },
        {
          "name": "_name",
          "type": "bytes32"
        }
      ],
      "name": "setEmployee",
      "outputs": [],
      "payable": false,
      "stateMutability": "nonpayable",
      "type": "function"
    },
    {
      "constant": false,
      "inputs": [
        {
          "name": "_newOwner",
          "type": "address"
        }
      ],
      "name": "transferOwnership",
      "outputs": [],
      "payable": false,
      "stateMutability": "nonpayable",
      "type": "function"
    },
    {
      "anonymous": false,
      "inputs": [
        {
          "indexed": true,
          "name": "numberPlate",
          "type": "bytes32"
        },
        {
          "indexed": false,
          "name": "brand",
          "type": "bytes32"
        },
        {
          "indexed": false,
          "name": "model",
          "type": "bytes32"
        },
        {
          "indexed": false,
          "name": "color",
          "type": "bytes32"
        },
        {
          "indexed": false,
          "name": "serialNumber",
          "type": "bytes32"
        },
        {
          "indexed": false,
          "name": "motorNumber",
          "type": "bytes32"
        },
        {
          "indexed": false,
          "name": "reason",
          "type": "bytes32"
        },
        {
          "indexed": false,
          "name": "photos",
          "type": "string"
        },
        {
          "indexed": false,
          "name": "documents",
          "type": "string"
        },
        {
          "indexed": false,
          "name": "ownersId",
          "type": "bytes32[]"
        },
        {
          "indexed": false,
          "name": "ownersNames",
          "type": "bytes32[]"
        },
        {
          "indexed": true,
          "name": "employeeAddress",
          "type": "address"
        }
      ],
      "name": "VehicleRegistered",
      "type": "event"
    },
    {
      "anonymous": false,
      "inputs": [
        {
          "indexed": true,
          "name": "numberPlate",
          "type": "bytes32"
        },
        {
          "indexed": false,
          "name": "color",
          "type": "bytes32"
        },
        {
          "indexed": false,
          "name": "serialNumber",
          "type": "bytes32"
        },
        {
          "indexed": false,
          "name": "motorNumber",
          "type": "bytes32"
        },
        {
          "indexed": false,
          "name": "reason",
          "type": "bytes32"
        },
        {
          "indexed": false,
          "name": "photos",
          "type": "string"
        },
        {
          "indexed": false,
          "name": "documents",
          "type": "string"
        },
        {
          "indexed": false,
          "name": "ownersId",
          "type": "bytes32[]"
        },
        {
          "indexed": false,
          "name": "ownersNames",
          "type": "bytes32[]"
        },
        {
          "indexed": true,
          "name": "employeeAddress",
          "type": "address"
        }
      ],
      "name": "VehicleUpdated",
      "type": "event"
    },
    {
      "anonymous": false,
      "inputs": [
        {
          "indexed": true,
          "name": "previousOwner",
          "type": "address"
        },
        {
          "indexed": true,
          "name": "_newOwner",
          "type": "address"
        }
      ],
      "name": "OwnershipTransferred",
      "type": "event"
    },
    {
      "constant": true,
      "inputs": [],
      "name": "getVehiclesCount",
      "outputs": [
        {
          "name": "",
          "type": "uint256"
        }
      ],
      "payable": false,
      "stateMutability": "view",
      "type": "function"
    },
    {
      "constant": true,
      "inputs": [],
      "name": "getVehicles",
      "outputs": [
        {
          "name": "",
          "type": "bytes32[]"
        }
      ],
      "payable": false,
      "stateMutability": "view",
      "type": "function"
    },
    {
      "constant": true,
      "inputs": [
        {
          "name": "_numberPlate",
          "type": "bytes32"
        },
        {
          "name": "_brand",
          "type": "bytes32"
        },
        {
          "name": "_model",
          "type": "bytes32"
        },
        {
          "name": "_color",
          "type": "bytes32"
        }
      ],
      "name": "getVehiclesFiltered",
      "outputs": [
        {
          "name": "",
          "type": "bytes32[]"
        }
      ],
      "payable": false,
      "stateMutability": "view",
      "type": "function"
    },
    {
      "constant": true,
      "inputs": [
        {
          "name": "_numberPlate",
          "type": "string"
        },
        {
          "name": "_brand",
          "type": "string"
        },
        {
          "name": "_model",
          "type": "string"
        },
        {
          "name": "_color",
          "type": "string"
        }
      ],
      "name": "getVehiclesFilteredWithContains",
      "outputs": [
        {
          "name": "",
          "type": "bytes32[]"
        }
      ],
      "payable": false,
      "stateMutability": "view",
      "type": "function"
    },
    {
      "constant": true,
      "inputs": [
        {
          "name": "_numberPlate",
          "type": "bytes32"
        }
      ],
      "name": "getVehicle",
      "outputs": [
        {
          "name": "",
          "type": "bytes32"
        },
        {
          "name": "",
          "type": "bytes32"
        },
        {
          "name": "",
          "type": "bytes32"
        },
        {
          "name": "",
          "type": "bytes32"
        },
        {
          "name": "",
          "type": "bytes32"
        },
        {
          "name": "",
          "type": "bytes32"
        },
        {
          "name": "",
          "type": "bytes32"
        }
      ],
      "payable": false,
      "stateMutability": "view",
      "type": "function"
    },
    {
      "constant": true,
      "inputs": [
        {
          "name": "_numberPlate",
          "type": "bytes32"
        }
      ],
      "name": "getVehicleDetail",
      "outputs": [
        {
          "name": "",
          "type": "string"
        },
        {
          "name": "",
          "type": "string"
        },
        {
          "name": "",
          "type": "bytes32[]"
        },
        {
          "name": "",
          "type": "bytes32[]"
        },
        {
          "name": "",
          "type": "address"
        }
      ],
      "payable": false,
      "stateMutability": "view",
      "type": "function"
    },
    {
      "constant": true,
      "inputs": [
        {
          "name": "_numberPlate",
          "type": "bytes32"
        }
      ],
      "name": "getVehicleFiltered",
      "outputs": [
        {
          "name": "",
          "type": "bytes32"
        },
        {
          "name": "",
          "type": "bytes32"
        },
        {
          "name": "",
          "type": "bytes32"
        },
        {
          "name": "",
          "type": "string"
        }
      ],
      "payable": false,
      "stateMutability": "view",
      "type": "function"
    },
    {
      "constant": true,
      "inputs": [
        {
          "name": "_numberPlate",
          "type": "bytes32"
        }
      ],
      "name": "vehicleExists",
      "outputs": [
        {
          "name": "",
          "type": "bool"
        }
      ],
      "payable": false,
      "stateMutability": "view",
      "type": "function"
    },
    {
      "constant": true,
      "inputs": [
        {
          "name": "_serialNumber",
          "type": "bytes32"
        }
      ],
      "name": "serialNumberExists",
      "outputs": [
        {
          "name": "",
          "type": "bool"
        }
      ],
      "payable": false,
      "stateMutability": "view",
      "type": "function"
    },
    {
      "constant": true,
      "inputs": [
        {
          "name": "_motorNumber",
          "type": "bytes32"
        }
      ],
      "name": "motorNumberExists",
      "outputs": [
        {
          "name": "",
          "type": "bool"
        }
      ],
      "payable": false,
      "stateMutability": "view",
      "type": "function"
    },
    {
      "constant": true,
      "inputs": [
        {
          "name": "_numberPlate",
          "type": "bytes32"
        },
        {
          "name": "_serialNumber",
          "type": "bytes32"
        }
      ],
      "name": "serialNumberSelfExists",
      "outputs": [
        {
          "name": "",
          "type": "bool"
        }
      ],
      "payable": false,
      "stateMutability": "view",
      "type": "function"
    },
    {
      "constant": true,
      "inputs": [
        {
          "name": "_numberPlate",
          "type": "bytes32"
        },
        {
          "name": "_motorNumber",
          "type": "bytes32"
        }
      ],
      "name": "motorNumberSelfExists",
      "outputs": [
        {
          "name": "",
          "type": "bool"
        }
      ],
      "payable": false,
      "stateMutability": "view",
      "type": "function"
    },
    {
      "constant": false,
      "inputs": [
        {
          "name": "_numberPlate",
          "type": "bytes32"
        },
        {
          "name": "_brand",
          "type": "bytes32"
        },
        {
          "name": "_model",
          "type": "bytes32"
        },
        {
          "name": "_color",
          "type": "bytes32"
        },
        {
          "name": "_serialNumber",
          "type": "bytes32"
        },
        {
          "name": "_motorNumber",
          "type": "bytes32"
        },
        {
          "name": "_reason",
          "type": "bytes32"
        },
        {
          "name": "_photos",
          "type": "string"
        },
        {
          "name": "_documents",
          "type": "string"
        },
        {
          "name": "_ownersId",
          "type": "bytes32[]"
        },
        {
          "name": "_ownersNames",
          "type": "bytes32[]"
        }
      ],
      "name": "registerVehicle",
      "outputs": [
        {
          "name": "",
          "type": "bool"
        }
      ],
      "payable": false,
      "stateMutability": "nonpayable",
      "type": "function"
    },
    {
      "constant": false,
      "inputs": [
        {
          "name": "_numberPlate",
          "type": "bytes32"
        },
        {
          "name": "_color",
          "type": "bytes32"
        },
        {
          "name": "_serialNumber",
          "type": "bytes32"
        },
        {
          "name": "_motorNumber",
          "type": "bytes32"
        },
        {
          "name": "_reason",
          "type": "bytes32"
        },
        {
          "name": "_photos",
          "type": "string"
        },
        {
          "name": "_documents",
          "type": "string"
        },
        {
          "name": "_ownersId",
          "type": "bytes32[]"
        },
        {
          "name": "_ownersNames",
          "type": "bytes32[]"
        }
      ],
      "name": "updateVehicle",
      "outputs": [
        {
          "name": "",
          "type": "bool"
        }
      ],
      "payable": false,
      "stateMutability": "nonpayable",
      "type": "function"
    },
    {
      "constant": false,
      "inputs": [
        {
          "name": "_numberPlate",
          "type": "bytes32"
        },
        {
          "name": "_photos",
          "type": "string"
        }
      ],
      "name": "updateVehiclePhotos",
      "outputs": [
        {
          "name": "",
          "type": "bool"
        }
      ],
      "payable": false,
      "stateMutability": "nonpayable",
      "type": "function"
    },
    {
      "constant": false,
      "inputs": [
        {
          "name": "_numberPlate",
          "type": "bytes32"
        },
        {
          "name": "_documents",
          "type": "string"
        }
      ],
      "name": "updateVehicleDocuments",
      "outputs": [
        {
          "name": "",
          "type": "bool"
        }
      ],
      "payable": false,
      "stateMutability": "nonpayable",
      "type": "function"
    },
    {
      "constant": false,
      "inputs": [
        {
          "name": "_numberPlate",
          "type": "bytes32"
        },
        {
          "name": "_ownersId",
          "type": "bytes32[]"
        },
        {
          "name": "_ownersNames",
          "type": "bytes32[]"
        }
      ],
      "name": "updateVehicleOwner",
      "outputs": [
        {
          "name": "",
          "type": "bool"
        }
      ],
      "payable": false,
      "stateMutability": "nonpayable",
      "type": "function"
    },
    {
      "constant": true,
      "inputs": [
        {
          "name": "word",
          "type": "string"
        },
        {
          "name": "filter",
          "type": "string"
        }
      ],
      "name": "contains",
      "outputs": [
        {
          "name": "",
          "type": "bool"
        }
      ],
      "payable": false,
      "stateMutability": "pure",
      "type": "function"
    },
    {
      "constant": true,
      "inputs": [
        {
          "name": "word",
          "type": "string"
        }
      ],
      "name": "isEmpty",
      "outputs": [
        {
          "name": "",
          "type": "bool"
        }
      ],
      "payable": false,
      "stateMutability": "pure",
      "type": "function"
    }
  ],
  "bytecode": "0x608060405260008054600160a060020a031916331790556130a3806100256000396000f30060806040526004361061018a5763ffffffff7c01000000000000000000000000000000000000000000000000000000006000350416630a2eb301811461018f57806314a5d6da146101c4578063177c4940146101ed578063197fa4b5146102055780631f8787dc1461032c578063249c76fd1461035357806327341c8a1461036b5780632a96ab90146103c457806332648e09146104225780633fb18aec1461046b578063501df3f114610502578063528b7021146105525780635823aaef146105e55780635f3ced4e14610600578063637947551461079557806368fa81341461083e57806375b784261461085f57806376287d34146108745780637c3fa493146109d75780638da5cb5b146109f85780639890369b14610a29578063a7536ce714610a44578063a8cb9d0314610a5c578063b77c8f7014610b78578063c68ea5cd14610b90578063d067894714610bee578063d108177a14610c0f578063e6b7e20714610c30578063ea66543f14610c45578063ed13e2a814610c66578063f2fde38b14610c8d575b600080fd5b34801561019b57600080fd5b506101b0600160a060020a0360043516610cae565b604080519115158252519081900360200190f35b3480156101d057600080fd5b506101eb600160a060020a0360043516602435604435610cd0565b005b3480156101f957600080fd5b506101b0600435610ed3565b34801561021157600080fd5b50604080516020600460e43581810135601f81018490048402850184019095528484526101b094823594602480359560443595606435956084359560a4359560c4359536956101049492939190920191819084018382808284375050604080516020601f89358b018035918201839004830284018301909452808352979a999881019791965091820194509250829150840183828082843750506040805187358901803560208181028481018201909552818452989b9a998901989297509082019550935083925085019084908082843750506040805187358901803560208181028481018201909552818452989b9a998901989297509082019550935083925085019084908082843750949750610f379650505050505050565b34801561033857600080fd5b506103416113e6565b60408051918252519081900360200190f35b34801561035f57600080fd5b506101b06004356113ed565b34801561037757600080fd5b506040805160206004803580820135601f81018490048402850184019095528484526101b09436949293602493928401919081908401838280828437509497506114009650505050505050565b3480156103d057600080fd5b5060408051602060046024803582810135601f81018590048502860185019096528585526101b09583359536956044949193909101919081908401838280828437509497506114199650505050505050565b34801561042e57600080fd5b50610443600160a060020a0360043516611568565b6040805194855260208501939093529015158383015215156060830152519081900360800190f35b34801561047757600080fd5b506040805160206004803580820135601f81018490048402850184019095528484526101b094369492936024939284019190819084018382808284375050604080516020601f89358b018035918201839004830284018301909452808352979a9998810197919650918201945092508291508401838280828437509497506115a29650505050505050565b34801561050e57600080fd5b5061051a6004356115c5565b604080519788526020880196909652868601949094526060860192909252608085015260a084015260c0830152519081900360e00190f35b34801561055e57600080fd5b506040805160206004602480358281013584810280870186019097528086526101b096843596369660449591949091019291829185019084908082843750506040805187358901803560208181028481018201909552818452989b9a9989019892975090820195509350839250850190849080828437509497506116029650505050505050565b3480156105f157600080fd5b506101b06004356024356117d1565b34801561060c57600080fd5b506106186004356117ea565b604051808060200180602001806020018060200186600160a060020a0316600160a060020a0316815260200185810385528a818151815260200191508051906020019080838360005b83811015610679578181015183820152602001610661565b50505050905090810190601f1680156106a65780820380516001836020036101000a031916815260200191505b5085810384528951815289516020918201918b019080838360005b838110156106d95781810151838201526020016106c1565b50505050905090810190601f1680156107065780820380516001836020036101000a031916815260200191505b508581038352885181528851602091820191808b01910280838360005b8381101561073b578181015183820152602001610723565b50505050905001858103825287818151815260200191508051906020019060200280838360005b8381101561077a578181015183820152602001610762565b50505050905001995050505050505050505060405180910390f35b3480156107a157600080fd5b506107ad6004356119fd565b60408051858152602080820186905291810184905260806060820181815284519183019190915283519192909160a084019185019080838360005b838110156108005781810151838201526020016107e8565b50505050905090810190601f16801561082d5780820380516001836020036101000a031916815260200191505b509550505050505060405180910390f35b34801561084a57600080fd5b506101eb600160a060020a0360043516611ac3565b34801561086b57600080fd5b50610341611bd2565b34801561088057600080fd5b506040805160206004803580820135601f810184900484028501840190955284845261098794369492936024939284019190819084018382808284375050604080516020601f89358b018035918201839004830284018301909452808352979a99988101979196509182019450925082915084018382808284375050604080516020601f89358b018035918201839004830284018301909452808352979a99988101979196509182019450925082915084018382808284375050604080516020601f89358b018035918201839004830284018301909452808352979a999881019791965091820194509250829150840183828082843750949750611bd89650505050505050565b60408051602080825283518183015283519192839290830191858101910280838360005b838110156109c35781810151838201526020016109ab565b505050509050019250505060405180910390f35b3480156109e357600080fd5b50610987600435602435604435606435611e8e565b348015610a0457600080fd5b50610a0d6120c1565b60408051600160a060020a039092168252519081900360200190f35b348015610a3557600080fd5b506101b06004356024356120d0565b348015610a5057600080fd5b50610a0d6004356120e7565b348015610a6857600080fd5b50604080516020600460a43581810135601f81018490048402850184019095528484526101b09482359460248035956044359560643595608435953695929460c494920191819084018382808284375050604080516020601f89358b018035918201839004830284018301909452808352979a999881019791965091820194509250829150840183828082843750506040805187358901803560208181028481018201909552818452989b9a998901989297509082019550935083925085019084908082843750506040805187358901803560208181028481018201909552818452989b9a99890198929750908201955093508392508501908490808284375094975061210f9650505050505050565b348015610b8457600080fd5b506101b0600435612520565b348015610b9c57600080fd5b5060408051602060046024803582810135601f81018590048502860185019096528585526101b095833595369560449491939091019190819084018382808284375094975061257d9650505050505050565b348015610bfa57600080fd5b50610443600160a060020a03600435166126c2565b348015610c1b57600080fd5b506101eb600160a060020a03600435166126ee565b348015610c3c57600080fd5b5061098761281e565b348015610c5157600080fd5b506101b0600160a060020a0360043516612877565b348015610c7257600080fd5b506101eb600160a060020a036004351660243560443561289e565b348015610c9957600080fd5b506101eb600160a060020a0360043516612ac0565b600160a060020a03166000908152600260208190526040909120015460ff1690565b600054600160a060020a03163314610d58576040805160e560020a62461bcd02815260206004820152602e60248201527f596f7520617265206e6f7420746865206f776e65722e20596f7520617265206e60448201527f6f7420617574686f72697a65642e000000000000000000000000000000000000606482015290519081900360840190fd5b600160a060020a0383161515610dba576040805160e560020a62461bcd0281526020600482015260306024820152600080516020612fb88339815191526044820152600080516020612ff8833981519152606482015290519081900360840190fd5b600160a060020a03831660009081526002602081905260409091200154610100900460ff1615610e1057600160a060020a038316600090815260026020819052604090912001805460ff19166001179055610ece565b604080516080810182528381526020808201848152600183850181815260608501828152600160a060020a038a166000818152600296879052978820965187559351868401559051949093018054935115156101000261ff001995151560ff199095169490941794909416929092179092558054808201825592527fb10e2d527612073b26eecdfd717e6a320cf44b4afac2b0732d9fcbe2b7fa0cf6909101805473ffffffffffffffffffffffffffffffffffffffff191690911790555b505050565b600080805b600354811015610f3057836000191660046000600384815481101515610efa57fe5b600091825260208083209091015483528201929092526040019020600501541415610f285760019150610f30565b600101610ed8565b5092915050565b336000908152600260208190526040822001548190610100900460ff1680610f695750600054600160a060020a031633145b1515610fc1576040805160e560020a62461bcd02815260206004820152602f60248201526000805160206130588339815191526044820152600080516020612fd8833981519152606482015290519081900360840190fd5b60008d11611007576040805160e560020a62461bcd02815260206004820152601e6024820152600080516020613038833981519152604482015290519081900360640190fd5b60008d8152600460205260408120541115611092576040805160e560020a62461bcd02815260206004820152602260248201527f5468652076656869636c6520697320616c72656164792072656769737465726560448201527f642e000000000000000000000000000000000000000000000000000000000000606482015290519081900360840190fd5b82518451146110eb576040805160e560020a62461bcd02815260206004820152601b60248201527f4f776e657273206461746120646f6573206e6f74206d617463682e0000000000604482015290519081900360640190fd5b5060008c81526004602081815260409092208e8155600181018e9055600281018d9055600381018c90559081018a905560058101899055600681018890558651909161113e916007840191890190612ecb565b5084516111549060088301906020880190612ecb565b50835161116a9060098301906020870190612f49565b50825161118090600a8301906020860190612f49565b503381600b0160006101000a815481600160a060020a030219169083600160a060020a0316021790555060038d908060018154018082558091505090600182039060005260206000200160009091929091909150906000191690555033600160a060020a03168d600019167f5adf0cfe500edb47a40576e1399771b724a14e37497b17a7cc841cfa443722c88e8e8e8e8e8e8e8e8e8e604051808b600019166000191681526020018a60001916600019168152602001896000191660001916815260200188600019166000191681526020018760001916600019168152602001866000191660001916815260200180602001806020018060200180602001858103855289818151815260200191508051906020019080838360005b838110156112b357818101518382015260200161129b565b50505050905090810190601f1680156112e05780820380516001836020036101000a031916815260200191505b5085810384528851815288516020918201918a019080838360005b838110156113135781810151838201526020016112fb565b50505050905090810190601f1680156113405780820380516001836020036101000a031916815260200191505b508581038352875181528751602091820191808a01910280838360005b8381101561137557818101518382015260200161135d565b50505050905001858103825286818151815260200191508051906020019060200280838360005b838110156113b457818101518382015260200161139c565b505050509050019e50505050505050505050505050505060405180910390a35060019c9b505050505050505050505050565b6003545b90565b6000908152600460205260408120541190565b600061141361140e83612c12565b612c38565b92915050565b33600090815260026020819052604082200154610100900460ff16806114495750600054600160a060020a031633145b15156114a1576040805160e560020a62461bcd02815260206004820152602f60248201526000805160206130588339815191526044820152600080516020612fd8833981519152606482015290519081900360840190fd5b600083116114e7576040805160e560020a62461bcd02815260206004820152601e6024820152600080516020613038833981519152604482015290519081900360640190fd5b60008381526004602052604081205411611539576040805160e560020a62461bcd02815260206004820152601e6024820152600080516020613018833981519152604482015290519081900360640190fd5b6000838152600460209081526040909120835161155e92600890920191850190612ecb565b5060019392505050565b600160a060020a031660009081526002602081905260409091208054600182015491909201549192909160ff808216926101009092041690565b60006115be6115b084612c12565b6115b984612c12565b612c3d565b9392505050565b6000908152600460208190526040909120805460018201546002830154600384015494840154600585015460069095015493969295919491939092565b33600090815260026020819052604082200154610100900460ff16806116325750600054600160a060020a031633145b151561168a576040805160e560020a62461bcd02815260206004820152602f60248201526000805160206130588339815191526044820152600080516020612fd8833981519152606482015290519081900360840190fd5b600084116116d0576040805160e560020a62461bcd02815260206004820152601e6024820152600080516020613038833981519152604482015290519081900360640190fd5b60008481526004602052604081205411611722576040805160e560020a62461bcd02815260206004820152601e6024820152600080516020613018833981519152604482015290519081900360640190fd5b815183511461177b576040805160e560020a62461bcd02815260206004820152601b60248201527f4f776e657273206461746120646f6573206e6f74206d617463682e0000000000604482015290519081900360640190fd5b600084815260046020908152604090912084516117a092600990920191860190612f49565b50600084815260046020908152604090912083516117c692600a90920191850190612f49565b506001949350505050565b6000918252600460208190526040909220909101541490565b6000818152600460209081526040808320600b8101546007820180548451601f60026001841615610100026000190190931692909204918201879004870281018701909552808552606096879687968796929592949360088601936009870193600a880193600160a060020a039092169287918301828280156118ae5780601f10611883576101008083540402835291602001916118ae565b820191906000526020600020905b81548152906001019060200180831161189157829003601f168201915b5050875460408051602060026001851615610100026000190190941693909304601f8101849004840282018401909252818152959a508994509250840190508282801561193c5780601f106119115761010080835404028352916020019161193c565b820191906000526020600020905b81548152906001019060200180831161191f57829003601f168201915b505050505093508280548060200260200160405190810160405280929190818152602001828054801561198f57602002820191906000526020600020905b8154815260019091019060200180831161197a575b50505050509250818054806020026020016040519081016040528092919081815260200182805480156119e257602002820191906000526020600020905b815481526001909101906020018083116119cd575b50505050509150955095509550955095505091939590929450565b6000818152600460209081526040808320805460018083015460028085015460078601805488516000199682161561010002969096011692909204601f810189900489028501890190975286845288978897606097969592939291839190830182828015611aac5780601f10611a8157610100808354040283529160200191611aac565b820191906000526020600020905b815481529060010190602001808311611a8f57829003601f168201915b505050505090509450945094509450509193509193565b600054600160a060020a03163314611b4b576040805160e560020a62461bcd02815260206004820152602e60248201527f596f7520617265206e6f7420746865206f776e65722e20596f7520617265206e60448201527f6f7420617574686f72697a65642e000000000000000000000000000000000000606482015290519081900360840190fd5b600160a060020a0381161515611bad576040805160e560020a62461bcd0281526020600482015260306024820152600080516020612fb88339815191526044820152600080516020612ff8833981519152606482015290519081900360840190fd5b600160a060020a0316600090815260026020819052604090912001805460ff19169055565b60015490565b60608060008060608060608060606000600380549050604051908082528060200260200182016040528015611c17578160200160208202803883390190505b509850600097508796505b600354871015611ddf57611c636004600060038a815481101515611c4257fe5b60009182526020808320909101548352820192909252604001902054612c64565b9550611c9f6004600060038a815481101515611c7b57fe5b60009182526020808320909101548352820192909252604001902060010154612c64565b9450611cdb6004600060038a815481101515611cb757fe5b60009182526020808320909101548352820192909252604001902060020154612c64565b9350611d176004600060038a815481101515611cf357fe5b60009182526020808320909101548352820192909252604001902060030154612c64565b9250611d228e611400565b158015611d345750611d34868f6115a2565b80611d555750611d438d611400565b158015611d555750611d55858e6115a2565b80611d765750611d648c611400565b158015611d765750611d76848d6115a2565b80611d975750611d858b611400565b158015611d975750611d97838c6115a2565b15611dd4576003805488908110611daa57fe5b90600052602060002001548988815181101515611dc357fe5b602090810290910101526001909701965b600190960195611c22565b87604051908082528060200260200182016040528015611e09578160200160208202803883390190505b50915060009050600096505b8851871015611e7d5788516000908a9089908110611e2f57fe5b6020908102909101015114611e72578887815181101515611e4c57fe5b906020019060200201518282815181101515611e6457fe5b602090810290910101526001015b600190960195611e15565b509c9b505050505050505050505050565b60608060008060606000600380549050604051908082528060200260200182016040528015611ec7578160200160208202803883390190505b509450600093508392505b60035483101561201657896000191660046000600386815481101515611ef457fe5b600091825260208083209091015483528201929092526040019020541480611f505750886000191660046000600386815481101515611f2f57fe5b60009182526020808320909101548352820192909252604001902060010154145b80611f8f5750876000191660046000600386815481101515611f6e57fe5b60009182526020808320909101548352820192909252604001902060020154145b80611fce5750866000191660046000600386815481101515611fad57fe5b60009182526020808320909101548352820192909252604001902060030154145b1561200b576003805484908110611fe157fe5b90600052602060002001548584815181101515611ffa57fe5b602090810290910101526001909301925b600190920191611ed2565b83604051908082528060200260200182016040528015612040578160200160208202803883390190505b50915060009050600092505b84518310156120b457845160009086908590811061206657fe5b60209081029091010151146120a957848381518110151561208357fe5b90602001906020020151828281518110151561209b57fe5b602090810290910101526001015b60019092019161204c565b5098975050505050505050565b600054600160a060020a031681565b600091825260046020526040909120600501541490565b60018054829081106120f557fe5b600091825260209091200154600160a060020a0316905081565b336000908152600260208190526040822001548190610100900460ff16806121415750600054600160a060020a031633145b1515612199576040805160e560020a62461bcd02815260206004820152602f60248201526000805160206130588339815191526044820152600080516020612fd8833981519152606482015290519081900360840190fd5b60008b116121df576040805160e560020a62461bcd02815260206004820152601e6024820152600080516020613038833981519152604482015290519081900360640190fd5b60008b81526004602052604081205411612231576040805160e560020a62461bcd02815260206004820152601e6024820152600080516020613018833981519152604482015290519081900360640190fd5b825184511461228a576040805160e560020a62461bcd02815260206004820152601b60248201527f4f776e657273206461746120646f6573206e6f74206d617463682e0000000000604482015290519081900360640190fd5b5060008a8152600460208181526040909220600381018c90559081018a90556005810189905560068101889055865190916122cc916007840191890190612ecb565b5084516122e29060088301906020880190612ecb565b5083516122f89060098301906020870190612f49565b50825161230e90600a8301906020860190612f49565b503381600b0160006101000a815481600160a060020a030219169083600160a060020a0316021790555033600160a060020a03168b600019167fb18ff714db266186b00d156a6fbcb98d7d286375a19f3dc9b189eca961aaa4808c8c8c8c8c8c8c8c60405180896000191660001916815260200188600019166000191681526020018760001916600019168152602001866000191660001916815260200180602001806020018060200180602001858103855289818151815260200191508051906020019080838360005b838110156123f15781810151838201526020016123d9565b50505050905090810190601f16801561241e5780820380516001836020036101000a031916815260200191505b5085810384528851815288516020918201918a019080838360005b83811015612451578181015183820152602001612439565b50505050905090810190601f16801561247e5780820380516001836020036101000a031916815260200191505b508581038352875181528751602091820191808a01910280838360005b838110156124b357818101518382015260200161249b565b50505050905001858103825286818151815260200191508051906020019060200280838360005b838110156124f25781810151838201526020016124da565b505050509050019c5050505050505050505050505060405180910390a35060019a9950505050505050505050565b600080805b600354811015610f305783600019166004600060038481548110151561254757fe5b6000918252602080832090910154835282019290925260400190206004015414156125755760019150610f30565b600101612525565b33600090815260026020819052604082200154610100900460ff16806125ad5750600054600160a060020a031633145b1515612605576040805160e560020a62461bcd02815260206004820152602f60248201526000805160206130588339815191526044820152600080516020612fd8833981519152606482015290519081900360840190fd5b6000831161264b576040805160e560020a62461bcd02815260206004820152601e6024820152600080516020613038833981519152604482015290519081900360640190fd5b6000838152600460205260408120541161269d576040805160e560020a62461bcd02815260206004820152601e6024820152600080516020613018833981519152604482015290519081900360640190fd5b6000838152600460209081526040909120835161155e92600790920191850190612ecb565b600260208190526000918252604090912080546001820154919092015460ff8082169161010090041684565b336000908152600260208190526040909120015460ff168061271a5750600054600160a060020a031633145b1515612796576040805160e560020a62461bcd02815260206004820152603460248201527f596f7520617265206e6f7420612061646d696e6973747261746f722e20596f7560448201527f20617265206e6f7420617574686f72697a65642e000000000000000000000000606482015290519081900360840190fd5b600160a060020a03811615156127f8576040805160e560020a62461bcd0281526020600482015260306024820152600080516020612fb88339815191526044820152600080516020612ff8833981519152606482015290519081900360840190fd5b600160a060020a0316600090815260026020819052604090912001805461ff0019169055565b6060600380548060200260200160405190810160405280929190818152602001828054801561286d57602002820191906000526020600020905b81548152600190910190602001808311612858575b5050505050905090565b600160a060020a031660009081526002602081905260409091200154610100900460ff1690565b336000908152600260208190526040909120015460ff16806128ca5750600054600160a060020a031633145b1515612946576040805160e560020a62461bcd02815260206004820152603460248201527f596f7520617265206e6f7420612061646d696e6973747261746f722e20596f7560448201527f20617265206e6f7420617574686f72697a65642e000000000000000000000000606482015290519081900360840190fd5b600160a060020a03831615156129a8576040805160e560020a62461bcd0281526020600482015260306024820152600080516020612fb88339815191526044820152600080516020612ff8833981519152606482015290519081900360840190fd5b600160a060020a03831660009081526002602081905260409091200154610100900460ff1615612a0057600160a060020a038316600090815260026020819052604090912001805461ff001916610100179055610ece565b6040805160808101825283815260208082018481526000838501818152600160608601818152600160a060020a038b16808552600296879052978420965187559351868201559051949093018054925115156101000261ff001995151560ff199094169390931794909416919091179092558054808201825591527fb10e2d527612073b26eecdfd717e6a320cf44b4afac2b0732d9fcbe2b7fa0cf601805473ffffffffffffffffffffffffffffffffffffffff19169091179055505050565b600054600160a060020a03163314612b48576040805160e560020a62461bcd02815260206004820152602e60248201527f596f7520617265206e6f7420746865206f776e65722e20596f7520617265206e60448201527f6f7420617574686f72697a65642e000000000000000000000000000000000000606482015290519081900360840190fd5b600160a060020a0381161515612baa576040805160e560020a62461bcd0281526020600482015260306024820152600080516020612fb88339815191526044820152600080516020612ff8833981519152606482015290519081900360840190fd5b60008054604051600160a060020a03808516939216917f8be0079c531659141344cd1fd0a4f28419497f9722a3daafe3b4186f6b6457e091a36000805473ffffffffffffffffffffffffffffffffffffffff1916600160a060020a0392909216919091179055565b612c1a612f86565b50604080518082019091528151815260209182019181019190915290565b511590565b6020808301518351835192840151600093612c5b9291849190612e12565b14159392505050565b6040805160208082528183019092526060918291600091829182918591908082016104008038833901905050945060009350600092505b6020831015612d28576008830260020a870291507fff00000000000000000000000000000000000000000000000000000000000000821615612d1d57818585815181101515612ce657fe5b9060200101907effffffffffffffffffffffffffffffffffffffffffffffffffffffffffffff1916908160001a9053506001909301925b600190920191612c9b565b836040519080825280601f01601f191660200182016040528015612d56578160200160208202803883390190505b509050600092505b83831015612e08578483815181101515612d7457fe5b9060200101517f010000000000000000000000000000000000000000000000000000000000000090047f0100000000000000000000000000000000000000000000000000000000000000028184815181101515612dcd57fe5b9060200101907effffffffffffffffffffffffffffffffffffffffffffffffffffffffffffff1916908160001a905350600190920191612d5e565b9695505050505050565b60008080808080808a8911612eb95760208911612e845760018960200360080260020a03196001029450848851169350888b8b010395508486511692505b828414612e7a57898611612e6657899650612ebd565b600019909501805190959085169250612e50565b8886019650612ebd565b8888209150888b038a0195505b898610612eb9575087852081811415612eae578886019650612ebd565b600186039550612e91565b8996505b505050505050949350505050565b828054600181600116156101000203166002900490600052602060002090601f016020900481019282601f10612f0c57805160ff1916838001178555612f39565b82800160010185558215612f39579182015b82811115612f39578251825591602001919060010190612f1e565b50612f45929150612f9d565b5090565b828054828255906000526020600020908101928215612f39579160200282015b82811115612f395782518255602090920191600190910190612f69565b604080518082019091526000808252602082015290565b6113ea91905b80821115612f455760008155600101612fa35600596f7520617474656d7074656420746f20616464207065726d697373696f6e736e6f7420617574686f72697a65642e000000000000000000000000000000000020746f2030783020616464726573732e000000000000000000000000000000005468652076656869636c65206973206e6f7420726567697374657265642e00004e756d62657220706c6174652063616e206e6f7420626520656d7074792e0000596f7520617265206e6f74206120656d706c6f7965652e20596f752061726520a165627a7a7230582004ad2649c25e5bca8c40acbc8d722165e44b86dbe80cecac9df7816d7f2d45f50029",
  "source": "pragma solidity ^0.4.24;\n//pragma experimental ABIEncoderV2;\n\nimport \"./strings.sol\";\nimport \"./authorizable.sol\";\n\n\ncontract VehicleFactory is Authorizable {\n\n    using Strings for *;\n\n    // Structs\n    struct Vehicle {\n        // Inmutable\n        bytes32 numberPlate;\n        bytes32 brand;\n        bytes32 model;\n\n        // Mutable\n        bytes32 color;\n        bytes32 serialNumber; // chassis\n        bytes32 motorNumber;\n        bytes32 reason;\n\n        string photos;\n        string documents;\n        bytes32[] ownersIds;\n        bytes32[] ownersNames;\n\n        address employeeAddress;\n    }\n\n    // Global variables\n    bytes32[] private vehiclesNumberPlate;\n    mapping (bytes32 => Vehicle) private vehicles;\n    \n    // Events\n    event VehicleRegistered\n    (\n        bytes32 indexed numberPlate, bytes32 brand, bytes32 model,\n        bytes32 color, bytes32 serialNumber, bytes32 motorNumber, bytes32 reason,\n        string photos, string documents, bytes32[] ownersId, bytes32[] ownersNames,\n        address indexed employeeAddress\n    );\n\n    event VehicleUpdated\n    (\n        bytes32 indexed numberPlate,\n        bytes32 color, bytes32 serialNumber, bytes32 motorNumber, bytes32 reason,\n        string photos, string documents, bytes32[] ownersId, bytes32[] ownersNames,\n        address indexed employeeAddress\n    );\n\n\n    // Methods: GET\n    function getVehiclesCount() \n    public view returns (uint) {\n        return vehiclesNumberPlate.length;\n    }\n\n    function getVehicles() \n    public view returns (bytes32[]) {\n        return vehiclesNumberPlate;\n    }\n\n    function getVehiclesFiltered\n    (\n        bytes32 _numberPlate, \n        bytes32 _brand, bytes32 _model,\n        bytes32 _color\n    )\n    public view returns (bytes32[]) {\n        bytes32[] memory vehiclesFiltered = new bytes32[](vehiclesNumberPlate.length);\n        uint count = 0;\n        uint i = 0;\n        for(i = 0; i<vehiclesNumberPlate.length; i++) {\n            if( vehicles[vehiclesNumberPlate[i]].numberPlate == _numberPlate ||\n                vehicles[vehiclesNumberPlate[i]].brand == _brand ||\n                vehicles[vehiclesNumberPlate[i]].model == _model ||\n                vehicles[vehiclesNumberPlate[i]].color == _color) {\n                vehiclesFiltered[i] = vehiclesNumberPlate[i];\n                count++;\n            }\n        }\n\n        bytes32[] memory vehiclesResult = new bytes32[](count);\n        uint j = 0;\n        for(i = 0; i<vehiclesFiltered.length; i++) {\n            if(vehiclesFiltered[i] != bytes32(0)) {\n                vehiclesResult[j] = vehiclesFiltered[i];\n                j++;\n            }\n        }\n        return vehiclesResult;\n    }\n\n    function getVehiclesFilteredWithContains\n    (\n        string _numberPlate, \n        string _brand, string _model,\n        string _color\n    )\n    public view returns (bytes32[]) {\n        bytes32[] memory vehiclesFiltered = new bytes32[](vehiclesNumberPlate.length);\n        uint count = 0;\n        uint i = 0;\n        for(i = 0; i<vehiclesNumberPlate.length; i++) {\n            string memory numberPlate = bytes32ToString(vehicles[vehiclesNumberPlate[i]].numberPlate);\n            string memory brand = bytes32ToString(vehicles[vehiclesNumberPlate[i]].brand);\n            string memory model = bytes32ToString(vehicles[vehiclesNumberPlate[i]].model);\n            string memory color = bytes32ToString(vehicles[vehiclesNumberPlate[i]].color);\n\n            if(!isEmpty(_numberPlate) && contains(numberPlate, _numberPlate) ||\n                !isEmpty(_brand) && contains(brand, _brand) ||\n                !isEmpty(_model) && contains(model, _model) ||\n                !isEmpty(_color) && contains(color, _color)) {\n                vehiclesFiltered[i] = vehiclesNumberPlate[i];\n                count++;\n            }\n        }\n\n        bytes32[] memory vehiclesResult = new bytes32[](count);\n        uint j = 0;\n        for(i = 0; i<vehiclesFiltered.length; i++) {\n            if(vehiclesFiltered[i] != bytes32(0)) {\n                vehiclesResult[j] = vehiclesFiltered[i];\n                j++;\n            }\n        }\n        return vehiclesResult;\n    }\n\n    function getVehicle\n    (\n        bytes32 _numberPlate\n    )\n    public view returns \n    (\n        bytes32, bytes32, bytes32,\n        bytes32, bytes32, bytes32, bytes32\n    ) {\n        Vehicle storage vehicle = vehicles[_numberPlate];\n        return (\n            vehicle.numberPlate, vehicle.brand, vehicle.model,\n            vehicle.color, vehicle.serialNumber, vehicle.motorNumber, vehicle.reason\n        );\n    }\n\n    function getVehicleDetail\n    (\n        bytes32 _numberPlate\n    )\n    public view returns\n    (\n        string, string, bytes32[], bytes32[],\n        address\n    ) {\n        Vehicle storage vehicle = vehicles[_numberPlate];\n        return (\n            vehicle.photos, vehicle.documents, vehicle.ownersIds, vehicle.ownersNames,\n            vehicle.employeeAddress\n        );\n    }\n\n    function getVehicleFiltered\n    (\n        bytes32 _numberPlate\n    )\n    public view returns \n    (\n        bytes32, bytes32, bytes32, string\n    ) {\n        Vehicle storage vehicle = vehicles[_numberPlate];\n        return (\n            vehicle.numberPlate, vehicle.brand, vehicle.model, vehicle.photos\n        );\n    }\n\n    // Methods: EXISTS\n    function vehicleExists\n    (\n        bytes32 _numberPlate\n    )\n    public view returns (bool) {\n        return vehicles[_numberPlate].numberPlate > 0;\n    }\n\n    function serialNumberExists\n    (\n        bytes32 _serialNumber\n    )\n    public view returns (bool) {\n        bool exists;\n        uint i = 0;\n        for(i = 0; i<vehiclesNumberPlate.length; i++) {\n            if( vehicles[vehiclesNumberPlate[i]].serialNumber == _serialNumber) {\n                exists = true;\n                break;\n            }\n        }\n        return exists;\n    }\n\n    function motorNumberExists\n    (\n        bytes32 _motorNumber\n    )\n    public view returns (bool) {\n        bool exists;\n        uint i = 0;\n        for(i = 0; i<vehiclesNumberPlate.length; i++) {\n            if( vehicles[vehiclesNumberPlate[i]].motorNumber == _motorNumber) {\n                exists = true;\n                break;\n            }\n        }\n        return exists;\n    }\n\n    function serialNumberSelfExists\n    (\n        bytes32 _numberPlate, bytes32 _serialNumber\n    )\n    public view returns (bool) {\n        return vehicles[_numberPlate].serialNumber == _serialNumber;\n    }\n\n    function motorNumberSelfExists\n    (\n        bytes32 _numberPlate, bytes32 _motorNumber\n    )\n    public view returns (bool) {\n        return vehicles[_numberPlate].motorNumber == _motorNumber;\n    }\n\n    // Methods: POST\n    function registerVehicle\n    (\n        bytes32 _numberPlate, bytes32 _brand, bytes32 _model,\n        bytes32 _color, bytes32 _serialNumber, bytes32 _motorNumber, bytes32 _reason,\n        string _photos, string _documents, bytes32[] _ownersId, bytes32[] _ownersNames\n    )\n    public onlyEmployee returns (bool) {\n        require(_numberPlate > 0, \"Number plate can not be empty.\");\n        require(vehicles[_numberPlate].numberPlate <= 0, \"The vehicle is already registered.\");\n        require(_ownersId.length == _ownersNames.length, \"Owners data does not match.\");\n\n        Vehicle storage vehicle = vehicles[_numberPlate];\n        vehicle.numberPlate = _numberPlate;\n        vehicle.brand = _brand;\n        vehicle.model = _model;\n\n        vehicle.color = _color;\n        vehicle.serialNumber = _serialNumber;\n        vehicle.motorNumber = _motorNumber;\n        vehicle.reason = _reason;\n\n        vehicle.photos = _photos;\n        vehicle.documents = _documents;\n        vehicle.ownersIds = _ownersId;\n        vehicle.ownersNames = _ownersNames;\n\n        vehicle.employeeAddress = msg.sender;\n\n        vehiclesNumberPlate.push(_numberPlate);\n\n        emit VehicleRegistered(\n            _numberPlate, _brand, _model, _color, _serialNumber, _motorNumber, _reason,\n            _photos, _documents, _ownersId, _ownersNames, msg.sender\n        );\n        return true;\n    }\n    \n    function updateVehicle\n    (\n        bytes32 _numberPlate,\n        bytes32 _color, bytes32 _serialNumber, bytes32 _motorNumber, bytes32 _reason,\n        string _photos, string _documents, bytes32[] _ownersId, bytes32[] _ownersNames\n    )\n    public onlyEmployee returns (bool) {\n        require(_numberPlate > 0, \"Number plate can not be empty.\");\n        require(vehicles[_numberPlate].numberPlate > 0, \"The vehicle is not registered.\");\n        require(_ownersId.length == _ownersNames.length, \"Owners data does not match.\");\n\n        Vehicle storage vehicle = vehicles[_numberPlate];\n        vehicle.color = _color;\n        vehicle.serialNumber = _serialNumber;\n        vehicle.motorNumber = _motorNumber;\n        vehicle.reason = _reason;\n\n        vehicle.photos = _photos;\n        vehicle.documents = _documents;\n        vehicle.ownersIds = _ownersId;\n        vehicle.ownersNames = _ownersNames;\n\n        vehicle.employeeAddress = msg.sender;\n\n        emit VehicleUpdated(\n            _numberPlate, _color, _serialNumber, _motorNumber, _reason,\n            _photos, _documents, _ownersId, _ownersNames,\n            msg.sender\n        );\n        return true;\n    }\n\n    function updateVehiclePhotos\n    (\n        bytes32 _numberPlate,\n        string _photos\n    )\n    public onlyEmployee returns (bool) {\n        require(_numberPlate > 0, \"Number plate can not be empty.\");\n        require(vehicles[_numberPlate].numberPlate > 0, \"The vehicle is not registered.\");\n\n        vehicles[_numberPlate].photos = _photos;\n        return true;\n    }\n\n    function updateVehicleDocuments\n    (\n        bytes32 _numberPlate,\n        string _documents\n    )\n    public onlyEmployee returns (bool) {\n        require(_numberPlate > 0, \"Number plate can not be empty.\");\n        require(vehicles[_numberPlate].numberPlate > 0, \"The vehicle is not registered.\");\n\n        vehicles[_numberPlate].documents = _documents;\n        return true;\n    }\n\n    function updateVehicleOwner\n    (\n        bytes32 _numberPlate,\n        bytes32[] _ownersId, bytes32[] _ownersNames\n    )\n    public onlyEmployee returns (bool) {\n        require(_numberPlate > 0, \"Number plate can not be empty.\");\n        require(vehicles[_numberPlate].numberPlate > 0, \"The vehicle is not registered.\");\n        require(_ownersId.length == _ownersNames.length, \"Owners data does not match.\");\n\n        vehicles[_numberPlate].ownersIds = _ownersId;\n        vehicles[_numberPlate].ownersNames = _ownersNames;\n        return true;\n    }\n\n\n    // Methods: UTILS\n    function bytes32ToString(bytes32 x) internal pure returns (string) {\n        bytes memory bytesString = new bytes(32);\n        uint charCount = 0;\n        for (uint j = 0; j < 32; j++) {\n            byte char = byte(bytes32(uint(x) * 2 ** (8 * j)));\n            if (char != 0) {\n                bytesString[charCount] = char;\n                charCount++;\n            }\n        }\n        bytes memory bytesStringTrimmed = new bytes(charCount);\n        for (j = 0; j < charCount; j++) {\n            bytesStringTrimmed[j] = bytesString[j];\n        }\n        return string(bytesStringTrimmed);\n    }\n\n    function contains\n    (\n        string word, string filter\n    )\n    public pure returns (bool) {\n        return Strings.contains(Strings.toSlice(word), Strings.toSlice(filter));\n    }\n\n    function isEmpty\n    (\n        string word\n    )\n    public pure returns (bool) {\n        return Strings.empty(Strings.toSlice(word));\n    }\n}",
  "sourcePath": "/Users/kenkina/Desktop/Dev/Ethereum/crypto-vehicle-npm/src/smartContracts/contracts/VehicleFactory.sol",
  "compiler": {
    "name": "solc",
    "version": "0.4.24+commit.e67f0147.Emscripten.clang"
  },
  "schemaVersion": "2.0.1",
  "updatedAt": "2018-09-18T11:44:46.901Z"
}