{
  "contractName": "Authorizable",
  "abi": [
    {
      "constant": true,
      "inputs": [],
      "name": "owner",
      "outputs": [
        {
          "name": "",
          "type": "address"
        }
      ],
      "payable": false,
      "stateMutability": "view",
      "type": "function"
    },
    {
      "constant": true,
      "inputs": [
        {
          "name": "",
          "type": "uint256"
        }
      ],
      "name": "employeesAccounts",
      "outputs": [
        {
          "name": "",
          "type": "address"
        }
      ],
      "payable": false,
      "stateMutability": "view",
      "type": "function"
    },
    {
      "constant": true,
      "inputs": [
        {
          "name": "",
          "type": "address"
        }
      ],
      "name": "employees",
      "outputs": [
        {
          "name": "dni",
          "type": "bytes32"
        },
        {
          "name": "name",
          "type": "bytes32"
        },
        {
          "name": "isInArray",
          "type": "bool"
        },
        {
          "name": "isAdministrator",
          "type": "bool"
        },
        {
          "name": "isEmployee",
          "type": "bool"
        }
      ],
      "payable": false,
      "stateMutability": "view",
      "type": "function"
    },
    {
      "constant": false,
      "inputs": [
        {
          "name": "_newOwner",
          "type": "address"
        }
      ],
      "name": "transferOwnership",
      "outputs": [],
      "payable": false,
      "stateMutability": "nonpayable",
      "type": "function"
    },
    {
      "anonymous": false,
      "inputs": [
        {
          "indexed": true,
          "name": "previousOwner",
          "type": "address"
        },
        {
          "indexed": true,
          "name": "_newOwner",
          "type": "address"
        }
      ],
      "name": "OwnershipTransferred",
      "type": "event"
    },
    {
      "constant": true,
      "inputs": [
        {
          "name": "_employeeAddress",
          "type": "address"
        }
      ],
      "name": "isEmployee",
      "outputs": [
        {
          "name": "",
          "type": "bool"
        }
      ],
      "payable": false,
      "stateMutability": "view",
      "type": "function"
    },
    {
      "constant": true,
      "inputs": [
        {
          "name": "_employeeAddress",
          "type": "address"
        }
      ],
      "name": "isAdministrator",
      "outputs": [
        {
          "name": "",
          "type": "bool"
        }
      ],
      "payable": false,
      "stateMutability": "view",
      "type": "function"
    },
    {
      "constant": true,
      "inputs": [],
      "name": "getOnlyEmployeesAddresses",
      "outputs": [
        {
          "name": "",
          "type": "address[]"
        }
      ],
      "payable": false,
      "stateMutability": "view",
      "type": "function"
    },
    {
      "constant": true,
      "inputs": [],
      "name": "getOnlyAdministratorsAddresses",
      "outputs": [
        {
          "name": "",
          "type": "address[]"
        }
      ],
      "payable": false,
      "stateMutability": "view",
      "type": "function"
    },
    {
      "constant": true,
      "inputs": [],
      "name": "getEmployeesAddresses",
      "outputs": [
        {
          "name": "",
          "type": "address[]"
        }
      ],
      "payable": false,
      "stateMutability": "view",
      "type": "function"
    },
    {
      "constant": true,
      "inputs": [],
      "name": "getEmployeesCount",
      "outputs": [
        {
          "name": "",
          "type": "uint256"
        }
      ],
      "payable": false,
      "stateMutability": "view",
      "type": "function"
    },
    {
      "constant": true,
      "inputs": [
        {
          "name": "_employeeAddress",
          "type": "address"
        }
      ],
      "name": "getEmployee",
      "outputs": [
        {
          "name": "",
          "type": "bytes32"
        },
        {
          "name": "",
          "type": "bytes32"
        },
        {
          "name": "",
          "type": "bool"
        },
        {
          "name": "",
          "type": "bool"
        }
      ],
      "payable": false,
      "stateMutability": "view",
      "type": "function"
    },
    {
      "constant": false,
      "inputs": [
        {
          "name": "_toAdd",
          "type": "address"
        },
        {
          "name": "_dni",
          "type": "bytes32"
        },
        {
          "name": "_name",
          "type": "bytes32"
        }
      ],
      "name": "setAdministrator",
      "outputs": [],
      "payable": false,
      "stateMutability": "nonpayable",
      "type": "function"
    },
    {
      "constant": false,
      "inputs": [
        {
          "name": "_toRemove",
          "type": "address"
        }
      ],
      "name": "removeAdministrator",
      "outputs": [],
      "payable": false,
      "stateMutability": "nonpayable",
      "type": "function"
    },
    {
      "constant": false,
      "inputs": [
        {
          "name": "_toAdd",
          "type": "address"
        },
        {
          "name": "_dni",
          "type": "bytes32"
        },
        {
          "name": "_name",
          "type": "bytes32"
        }
      ],
      "name": "setEmployee",
      "outputs": [],
      "payable": false,
      "stateMutability": "nonpayable",
      "type": "function"
    },
    {
      "constant": false,
      "inputs": [
        {
          "name": "_toRemove",
          "type": "address"
        }
      ],
      "name": "removeEmployee",
      "outputs": [],
      "payable": false,
      "stateMutability": "nonpayable",
      "type": "function"
    }
  ],
  "bytecode": "0x608060405260008054600160a060020a031916331790556110b2806100256000396000f3006080604052600436106100da5763ffffffff7c01000000000000000000000000000000000000000000000000000000006000350416630a2eb30181146100df57806314a5d6da146101145780632e05daaf1461013d57806332648e09146101a257806368fa8134146101eb57806375b784261461020c5780638da5cb5b14610233578063a7536ce714610264578063b2aa367b1461027c578063b5976f5d14610291578063d0678947146102a6578063d108177a146102f6578063ea66543f14610317578063ed13e2a814610338578063f2fde38b1461035f575b600080fd5b3480156100eb57600080fd5b50610100600160a060020a0360043516610380565b604080519115158252519081900360200190f35b34801561012057600080fd5b5061013b600160a060020a03600435166024356044356103a7565b005b34801561014957600080fd5b506101526105cc565b60408051602080825283518183015283519192839290830191858101910280838360005b8381101561018e578181015183820152602001610176565b505050509050019250505060405180910390f35b3480156101ae57600080fd5b506101c3600160a060020a036004351661077d565b6040805194855260208501939093529015158383015215156060830152519081900360800190f35b3480156101f757600080fd5b5061013b600160a060020a03600435166107bc565b34801561021857600080fd5b506102216108cc565b60408051918252519081900360200190f35b34801561023f57600080fd5b506102486108d2565b60408051600160a060020a039092168252519081900360200190f35b34801561027057600080fd5b506102486004356108e1565b34801561028857600080fd5b50610152610909565b34801561029d57600080fd5b50610152610ab2565b3480156102b257600080fd5b506102c7600160a060020a0360043516610b14565b604080519586526020860194909452911515848401521515606084015215156080830152519081900360a00190f35b34801561030257600080fd5b5061013b600160a060020a0360043516610b4a565b34801561032357600080fd5b50610100600160a060020a0360043516610c80565b34801561034457600080fd5b5061013b600160a060020a0360043516602435604435610ca8565b34801561036b57600080fd5b5061013b600160a060020a0360043516610ef4565b600160a060020a031660009081526002602081905260409091200154610100900460ff1690565b600054600160a060020a0316331461042f576040805160e560020a62461bcd02815260206004820152602e60248201527f596f7520617265206e6f7420746865206f776e65722e20596f7520617265206e60448201527f6f7420617574686f72697a65642e000000000000000000000000000000000000606482015290519081900360840190fd5b600160a060020a0383161515610491576040805160e560020a62461bcd02815260206004820152603060248201526000805160206110478339815191526044820152600080516020611067833981519152606482015290519081900360840190fd5b600160a060020a0383166000908152600260208190526040909120015460ff16156104ee57600160a060020a03831660009081526002602081905260409091208381556001810183905501805461ff0019166101001790556105c7565b6040805160a081018252838152602080820184815260018385018181526060850182815260808601838152600160a060020a038b166000818152600297889052988920975188559451878501559151959094018054945191511515620100000262ff0000199215156101000261ff001997151560ff19909716969096179690961694909417169390931790915581548083018355919092527fb10e2d527612073b26eecdfd717e6a320cf44b4afac2b0732d9fcbe2b7fa0cf601805473ffffffffffffffffffffffffffffffffffffffff191690911790555b505050565b60608060008060606000600180549050604051908082528060200260200182016040528015610605578160200160208202803883390190505b509450600093508392505b6001548310156106c0576002600060018581548110151561062d57fe5b6000918252602080832090910154600160a060020a0316835282019290925260400190206002015460ff61010090910416156106b557600180548490811061067157fe5b6000918252602090912001548551600160a060020a039091169086908590811061069757fe5b600160a060020a039092166020928302909101909101526001909301925b600190920191610610565b836040519080825280602002602001820160405280156106ea578160200160208202803883390190505b50915060009050600092505b845183101561077457845160009086908590811061071057fe5b60209081029091010151600160a060020a03161461076957848381518110151561073657fe5b90602001906020020151828281518110151561074e57fe5b600160a060020a039092166020928302909101909101526001015b6001909201916106f6565b50949350505050565b600160a060020a031660009081526002602081905260409091208054600182015491909201549192909160ff6101008204811692620100009092041690565b600054600160a060020a03163314610844576040805160e560020a62461bcd02815260206004820152602e60248201527f596f7520617265206e6f7420746865206f776e65722e20596f7520617265206e60448201527f6f7420617574686f72697a65642e000000000000000000000000000000000000606482015290519081900360840190fd5b600160a060020a03811615156108a6576040805160e560020a62461bcd02815260206004820152603060248201526000805160206110478339815191526044820152600080516020611067833981519152606482015290519081900360840190fd5b600160a060020a0316600090815260026020819052604090912001805461ff0019169055565b60015490565b600054600160a060020a031681565b60018054829081106108ef57fe5b600091825260209091200154600160a060020a0316905081565b60608060008060606000600180549050604051908082528060200260200182016040528015610942578160200160208202803883390190505b509450600093508392505b6001548310156109fe576002600060018581548110151561096a57fe5b6000918252602080832090910154600160a060020a0316835282019290925260400190206002015460ff6201000090910416156109f35760018054849081106109af57fe5b6000918252602090912001548551600160a060020a03909116908690859081106109d557fe5b600160a060020a039092166020928302909101909101526001909301925b60019092019161094d565b83604051908082528060200260200182016040528015610a28578160200160208202803883390190505b50915060009050600092505b8451831015610774578451600090869085908110610a4e57fe5b60209081029091010151600160a060020a031614610aa7578483815181101515610a7457fe5b906020019060200201518282815181101515610a8c57fe5b600160a060020a039092166020928302909101909101526001015b600190920191610a34565b60606001805480602002602001604051908101604052809291908181526020018280548015610b0a57602002820191906000526020600020905b8154600160a060020a03168152600190910190602001808311610aec575b5050505050905090565b600260208190526000918252604090912080546001820154919092015460ff808216916101008104821691620100009091041685565b3360009081526002602081905260409091200154610100900460ff1680610b7b5750600054600160a060020a031633145b1515610bf7576040805160e560020a62461bcd02815260206004820152603460248201527f596f7520617265206e6f7420612061646d696e6973747261746f722e20596f7560448201527f20617265206e6f7420617574686f72697a65642e000000000000000000000000606482015290519081900360840190fd5b600160a060020a0381161515610c59576040805160e560020a62461bcd02815260206004820152603060248201526000805160206110478339815191526044820152600080516020611067833981519152606482015290519081900360840190fd5b600160a060020a0316600090815260026020819052604090912001805462ff000019169055565b600160a060020a03166000908152600260208190526040909120015462010000900460ff1690565b3360009081526002602081905260409091200154610100900460ff1680610cd95750600054600160a060020a031633145b1515610d55576040805160e560020a62461bcd02815260206004820152603460248201527f596f7520617265206e6f7420612061646d696e6973747261746f722e20596f7560448201527f20617265206e6f7420617574686f72697a65642e000000000000000000000000606482015290519081900360840190fd5b600160a060020a0383161515610db7576040805160e560020a62461bcd02815260206004820152603060248201526000805160206110478339815191526044820152600080516020611067833981519152606482015290519081900360840190fd5b600160a060020a0383166000908152600260208190526040909120015460ff1615610e1657600160a060020a03831660009081526002602081905260409091208381556001810183905501805462ff00001916620100001790556105c7565b6040805160a0810182528381526020808201848152600183850181815260006060860181815260808701848152600160a060020a038c16808452600297889052988320975188559451878501559151959094018054915193511515620100000262ff0000199415156101000261ff001997151560ff1990941693909317969096169190911792909216939093179055815480830183559190527fb10e2d527612073b26eecdfd717e6a320cf44b4afac2b0732d9fcbe2b7fa0cf601805473ffffffffffffffffffffffffffffffffffffffff19169091179055505050565b600054600160a060020a03163314610f7c576040805160e560020a62461bcd02815260206004820152602e60248201527f596f7520617265206e6f7420746865206f776e65722e20596f7520617265206e60448201527f6f7420617574686f72697a65642e000000000000000000000000000000000000606482015290519081900360840190fd5b600160a060020a0381161515610fde576040805160e560020a62461bcd02815260206004820152603060248201526000805160206110478339815191526044820152600080516020611067833981519152606482015290519081900360840190fd5b60008054604051600160a060020a03808516939216917f8be0079c531659141344cd1fd0a4f28419497f9722a3daafe3b4186f6b6457e091a36000805473ffffffffffffffffffffffffffffffffffffffff1916600160a060020a03929092169190911790555600596f7520617474656d7074656420746f20616464207065726d697373696f6e7320746f2030783020616464726573732e00000000000000000000000000000000a165627a7a723058203b22f0d626d8ff9bed43dee7947788c98d4d595697109c7f5e875f4c1397655b0029",
  "source": "pragma solidity ^0.4.24;\n\nimport \"./ownable.sol\";\n\n/**\n * @title Authorizable\n * @dev The Authorizable contract allows the owner to manage permissions.\n */\ncontract Authorizable is Ownable {\n\n    struct Employee {\n        bytes32 dni;\n        bytes32 name;\n        bool isInArray;\n        bool isAdministrator;\n        bool isEmployee;\n    }\n\n    address[] public employeesAccounts;\n    mapping (address => Employee) public employees;\n    \n\n    modifier onlyAdministrator() {\n        require(employees[msg.sender].isAdministrator || owner == msg.sender, \"You are not a administrator. You are not authorized.\");\n        _;\n    }\n\n    modifier onlyEmployee() {\n        require(employees[msg.sender].isEmployee || owner == msg.sender, \"You are not a employee. You are not authorized.\");\n        _;\n    }\n\n    function isEmployee(address _employeeAddress)\n    public view returns (bool) {\n        return employees[_employeeAddress].isEmployee;\n    }\n\n    function isAdministrator(address _employeeAddress)\n    public view returns (bool) {\n        return employees[_employeeAddress].isAdministrator;\n    }\n\n    function getOnlyEmployeesAddresses()\n    public view returns (address[]){\n        address[] memory employeesFiltered = new address[](employeesAccounts.length);\n        uint count = 0;\n        uint i = 0;\n        for(i = 0; i<employeesAccounts.length; i++) {\n            if(employees[employeesAccounts[i]].isEmployee) {\n                employeesFiltered[i] = employeesAccounts[i];\n                count++;\n            }\n        }\n\n        address[] memory employeesResult = new address[](count);\n        uint j = 0;\n        for(i = 0; i<employeesFiltered.length; i++) {\n            if(employeesFiltered[i] != address(0)) {\n                employeesResult[j] = employeesFiltered[i];\n                j++;\n            }\n        }\n        return employeesResult;\n    }\n\n    function getOnlyAdministratorsAddresses()\n    public view returns (address[]){\n        address[] memory employeesFiltered = new address[](employeesAccounts.length);\n        uint count = 0;\n        uint i = 0;\n        for(i = 0; i<employeesAccounts.length; i++) {\n            if(employees[employeesAccounts[i]].isAdministrator) {\n                employeesFiltered[i] = employeesAccounts[i];\n                count++;\n            }\n        }\n\n        address[] memory employeesResult = new address[](count);\n        uint j = 0;\n        for(i = 0; i<employeesFiltered.length; i++) {\n            if(employeesFiltered[i] != address(0)) {\n                employeesResult[j] = employeesFiltered[i];\n                j++;\n            }\n        }\n        return employeesResult;\n    }\n\n    function getEmployeesAddresses()\n    public view returns (address[]){\n        return employeesAccounts;\n    }\n\n    function getEmployeesCount() \n    public view returns (uint) {\n        return employeesAccounts.length;\n    }\n\n    function getEmployee(address _employeeAddress) \n    public view returns (bytes32, bytes32, bool, bool) {\n        Employee storage employee = employees[_employeeAddress];\n        return (employee.dni, employee.name, employee.isAdministrator, employee.isEmployee);\n    }\n\n    function setAdministrator(address _toAdd, bytes32 _dni, bytes32 _name) \n    public onlyOwner {\n        require(_toAdd != address(0), \"You attempted to add permissions to 0x0 address.\");\n\n        if(employees[_toAdd].isInArray) {\n            employees[_toAdd].dni = _dni;\n            employees[_toAdd].name = _name;\n            employees[_toAdd].isAdministrator = true;\n        } else {\n            employees[_toAdd] = Employee(_dni, _name, true, true, true);\n            employeesAccounts.push(_toAdd);\n        }\n    }\n\n    function removeAdministrator(address _toRemove) \n    public onlyOwner {\n        require(_toRemove != address(0), \"You attempted to add permissions to 0x0 address.\");\n        employees[_toRemove].isAdministrator = false;\n    }\n\n    function setEmployee(address _toAdd, bytes32 _dni, bytes32 _name) \n    public onlyAdministrator {\n        require(_toAdd != address(0), \"You attempted to add permissions to 0x0 address.\");\n\n        if(employees[_toAdd].isInArray) {\n            employees[_toAdd].dni = _dni;\n            employees[_toAdd].name = _name;\n            employees[_toAdd].isEmployee = true;\n        } else {\n            employees[_toAdd] = Employee(_dni, _name, true, false, true);\n            employeesAccounts.push(_toAdd);\n        }\n    }\n\n    function removeEmployee(address _toRemove) \n    public onlyAdministrator {\n        require(_toRemove != address(0), \"You attempted to add permissions to 0x0 address.\");\n        employees[_toRemove].isEmployee = false;\n        //employees[_toRemove].isAdministrator = false;\n    }\n}",
  "sourcePath": "/Users/kenkina/Desktop/Dev/Ethereum/crypto-vehicle-final/src/smartContracts/contracts/authorizable.sol",
  "compiler": {
    "name": "solc",
    "version": "0.4.24+commit.e67f0147.Emscripten.clang"
  },
  "schemaVersion": "2.0.1",
  "updatedAt": "2018-10-26T10:11:55.002Z"
}