{
  "contractName": "VehicleFactory",
  "abi": [
    {
      "constant": false,
      "inputs": [
        {
          "name": "_toAdd",
          "type": "address"
        },
        {
          "name": "_dni",
          "type": "bytes32"
        },
        {
          "name": "_name",
          "type": "bytes32"
        }
      ],
      "name": "setAdministrator",
      "outputs": [],
      "payable": false,
      "stateMutability": "nonpayable",
      "type": "function"
    },
    {
      "constant": true,
      "inputs": [
        {
          "name": "_employeeAddress",
          "type": "address"
        }
      ],
      "name": "getEmployee",
      "outputs": [
        {
          "name": "",
          "type": "bytes32"
        },
        {
          "name": "",
          "type": "bytes32"
        },
        {
          "name": "",
          "type": "bool"
        },
        {
          "name": "",
          "type": "bool"
        }
      ],
      "payable": false,
      "stateMutability": "view",
      "type": "function"
    },
    {
      "constant": false,
      "inputs": [
        {
          "name": "_toRemove",
          "type": "address"
        }
      ],
      "name": "removeAdministrator",
      "outputs": [],
      "payable": false,
      "stateMutability": "nonpayable",
      "type": "function"
    },
    {
      "constant": true,
      "inputs": [],
      "name": "getEmployeesCount",
      "outputs": [
        {
          "name": "",
          "type": "uint256"
        }
      ],
      "payable": false,
      "stateMutability": "view",
      "type": "function"
    },
    {
      "constant": true,
      "inputs": [],
      "name": "owner",
      "outputs": [
        {
          "name": "",
          "type": "address"
        }
      ],
      "payable": false,
      "stateMutability": "view",
      "type": "function"
    },
    {
      "constant": true,
      "inputs": [
        {
          "name": "",
          "type": "uint256"
        }
      ],
      "name": "employeesAccounts",
      "outputs": [
        {
          "name": "",
          "type": "address"
        }
      ],
      "payable": false,
      "stateMutability": "view",
      "type": "function"
    },
    {
      "constant": true,
      "inputs": [
        {
          "name": "",
          "type": "address"
        }
      ],
      "name": "employees",
      "outputs": [
        {
          "name": "dni",
          "type": "bytes32"
        },
        {
          "name": "name",
          "type": "bytes32"
        },
        {
          "name": "isAdministrator",
          "type": "bool"
        },
        {
          "name": "isEmployee",
          "type": "bool"
        }
      ],
      "payable": false,
      "stateMutability": "view",
      "type": "function"
    },
    {
      "constant": false,
      "inputs": [
        {
          "name": "_toRemove",
          "type": "address"
        }
      ],
      "name": "removeEmployee",
      "outputs": [],
      "payable": false,
      "stateMutability": "nonpayable",
      "type": "function"
    },
    {
      "constant": true,
      "inputs": [],
      "name": "getEmployeesAdress",
      "outputs": [
        {
          "name": "",
          "type": "address[]"
        }
      ],
      "payable": false,
      "stateMutability": "view",
      "type": "function"
    },
    {
      "constant": false,
      "inputs": [
        {
          "name": "_toAdd",
          "type": "address"
        },
        {
          "name": "_dni",
          "type": "bytes32"
        },
        {
          "name": "_name",
          "type": "bytes32"
        }
      ],
      "name": "setEmployee",
      "outputs": [],
      "payable": false,
      "stateMutability": "nonpayable",
      "type": "function"
    },
    {
      "constant": false,
      "inputs": [
        {
          "name": "_newOwner",
          "type": "address"
        }
      ],
      "name": "transferOwnership",
      "outputs": [],
      "payable": false,
      "stateMutability": "nonpayable",
      "type": "function"
    },
    {
      "inputs": [],
      "payable": false,
      "stateMutability": "nonpayable",
      "type": "constructor"
    },
    {
      "anonymous": false,
      "inputs": [
        {
          "indexed": true,
          "name": "previousOwner",
          "type": "address"
        },
        {
          "indexed": true,
          "name": "_newOwner",
          "type": "address"
        }
      ],
      "name": "OwnershipTransferred",
      "type": "event"
    },
    {
      "constant": true,
      "inputs": [],
      "name": "getVehiclesCount",
      "outputs": [
        {
          "name": "",
          "type": "uint256"
        }
      ],
      "payable": false,
      "stateMutability": "view",
      "type": "function"
    },
    {
      "constant": true,
      "inputs": [],
      "name": "getVehicles",
      "outputs": [
        {
          "name": "",
          "type": "bytes32[]"
        }
      ],
      "payable": false,
      "stateMutability": "view",
      "type": "function"
    },
    {
      "constant": true,
      "inputs": [
        {
          "name": "_numberPlate",
          "type": "bytes32"
        }
      ],
      "name": "getVehicle",
      "outputs": [
        {
          "name": "",
          "type": "bytes32"
        },
        {
          "name": "",
          "type": "bytes32"
        },
        {
          "name": "",
          "type": "bytes32"
        },
        {
          "name": "",
          "type": "bytes32"
        },
        {
          "name": "",
          "type": "bytes32"
        },
        {
          "name": "",
          "type": "bytes32"
        },
        {
          "name": "",
          "type": "bytes32"
        }
      ],
      "payable": false,
      "stateMutability": "view",
      "type": "function"
    },
    {
      "constant": false,
      "inputs": [
        {
          "name": "_numberPlate",
          "type": "bytes32"
        },
        {
          "name": "_brand",
          "type": "bytes32"
        },
        {
          "name": "_model",
          "type": "bytes32"
        },
        {
          "name": "_color",
          "type": "bytes32"
        },
        {
          "name": "_serialNumber",
          "type": "bytes32"
        },
        {
          "name": "_motorNumber",
          "type": "bytes32"
        },
        {
          "name": "_reason",
          "type": "bytes32"
        }
      ],
      "name": "addVehicle",
      "outputs": [],
      "payable": false,
      "stateMutability": "nonpayable",
      "type": "function"
    }
  ],
  "bytecode": "0x608060405234801561001057600080fd5b50336000806101000a81548173ffffffffffffffffffffffffffffffffffffffff021916908373ffffffffffffffffffffffffffffffffffffffff160217905550611a40806100606000396000f3006080604052600436106100db576000357c0100000000000000000000000000000000000000000000000000000000900463ffffffff16806314a5d6da146100e05780631f8787dc1461013f57806332648e091461016a578063501df3f1146101ee57806368fa81341461029557806375b78426146102d85780638da5cb5b14610303578063a7536ce71461035a578063d0678947146103c7578063d108177a1461044b578063d65a62e31461048e578063d75bbf9b146104fa578063e6b7e2071461057f578063ed13e2a8146105eb578063f2fde38b1461064a575b600080fd5b3480156100ec57600080fd5b5061013d600480360381019080803573ffffffffffffffffffffffffffffffffffffffff1690602001909291908035600019169060200190929190803560001916906020019092919050505061068d565b005b34801561014b57600080fd5b50610154610b3e565b6040518082815260200191505060405180910390f35b34801561017657600080fd5b506101ab600480360381019080803573ffffffffffffffffffffffffffffffffffffffff169060200190929190505050610b4b565b6040518085600019166000191681526020018460001916600019168152602001831515151581526020018215151515815260200194505050505060405180910390f35b3480156101fa57600080fd5b5061021d6004803603810190808035600019169060200190929190505050610bd2565b60405180886000191660001916815260200187600019166000191681526020018660001916600019168152602001856000191660001916815260200184600019166000191681526020018360001916600019168152602001826000191660001916815260200197505050505050505060405180910390f35b3480156102a157600080fd5b506102d6600480360381019080803573ffffffffffffffffffffffffffffffffffffffff169060200190929190505050610c38565b005b3480156102e457600080fd5b506102ed610c96565b6040518082815260200191505060405180910390f35b34801561030f57600080fd5b50610318610ca3565b604051808273ffffffffffffffffffffffffffffffffffffffff1673ffffffffffffffffffffffffffffffffffffffff16815260200191505060405180910390f35b34801561036657600080fd5b5061038560048036038101908080359060200190929190505050610cc8565b604051808273ffffffffffffffffffffffffffffffffffffffff1673ffffffffffffffffffffffffffffffffffffffff16815260200191505060405180910390f35b3480156103d357600080fd5b50610408600480360381019080803573ffffffffffffffffffffffffffffffffffffffff169060200190929190505050610d06565b6040518085600019166000191681526020018460001916600019168152602001831515151581526020018215151515815260200194505050505060405180910390f35b34801561045757600080fd5b5061048c600480360381019080803573ffffffffffffffffffffffffffffffffffffffff169060200190929190505050610d50565b005b34801561049a57600080fd5b506104a3610fba565b6040518080602001828103825283818151815260200191508051906020019060200280838360005b838110156104e65780820151818401526020810190506104cb565b505050509050019250505060405180910390f35b34801561050657600080fd5b5061057d6004803603810190808035600019169060200190929190803560001916906020019092919080356000191690602001909291908035600019169060200190929190803560001916906020019092919080356000191690602001909291908035600019169060200190929190505050611048565b005b34801561058b57600080fd5b50610594611345565b6040518080602001828103825283818151815260200191508051906020019060200280838360005b838110156105d75780820151818401526020810190506105bc565b505050509050019250505060405180910390f35b3480156105f757600080fd5b50610648600480360381019080803573ffffffffffffffffffffffffffffffffffffffff169060200190929190803560001916906020019092919080356000191690602001909291905050506113a1565b005b34801561065657600080fd5b5061068b600480360381019080803573ffffffffffffffffffffffffffffffffffffffff1690602001909291905050506117a1565b005b6000809054906101000a900473ffffffffffffffffffffffffffffffffffffffff1673ffffffffffffffffffffffffffffffffffffffff163373ffffffffffffffffffffffffffffffffffffffff16141515610777576040517f08c379a000000000000000000000000000000000000000000000000000000000815260040180806020018281038252602e8152602001807f596f7520617265206e6f7420746865206f776e65722e20596f7520617265206e81526020017f6f7420617574686f72697a65642e00000000000000000000000000000000000081525060400191505060405180910390fd5b600073ffffffffffffffffffffffffffffffffffffffff168373ffffffffffffffffffffffffffffffffffffffff1614151515610842576040517f08c379a00000000000000000000000000000000000000000000000000000000081526004018080602001828103825260308152602001807f596f7520617474656d7074656420746f20616464207065726d697373696f6e7381526020017f20746f2030783020616464726573732e0000000000000000000000000000000081525060400191505060405180910390fd5b600260008473ffffffffffffffffffffffffffffffffffffffff1673ffffffffffffffffffffffffffffffffffffffff16815260200190815260200160002060020160019054906101000a900460ff1680156108eb5750600260008473ffffffffffffffffffffffffffffffffffffffff1673ffffffffffffffffffffffffffffffffffffffff16815260200190815260200160002060020160009054906101000a900460ff16155b15610950576001600260008573ffffffffffffffffffffffffffffffffffffffff1673ffffffffffffffffffffffffffffffffffffffff16815260200190815260200160002060020160006101000a81548160ff021916908315150217905550610b39565b600260008473ffffffffffffffffffffffffffffffffffffffff1673ffffffffffffffffffffffffffffffffffffffff16815260200190815260200160002060020160019054906101000a900460ff161580156109fa5750600260008473ffffffffffffffffffffffffffffffffffffffff1673ffffffffffffffffffffffffffffffffffffffff16815260200190815260200160002060020160009054906101000a900460ff16155b15610a665760018390806001815401808255809150509060018203906000526020600020016000909192909190916101000a81548173ffffffffffffffffffffffffffffffffffffffff021916908373ffffffffffffffffffffffffffffffffffffffff160217905550505b608060405190810160405280836000191681526020018260001916815260200160011515815260200160011515815250600260008573ffffffffffffffffffffffffffffffffffffffff1673ffffffffffffffffffffffffffffffffffffffff168152602001908152602001600020600082015181600001906000191690556020820151816001019060001916905560408201518160020160006101000a81548160ff02191690831515021790555060608201518160020160016101000a81548160ff0219169083151502179055509050505b505050565b6000600380549050905090565b6000806000806000600260008773ffffffffffffffffffffffffffffffffffffffff1673ffffffffffffffffffffffffffffffffffffffff1681526020019081526020016000209050806000015481600101548260020160009054906101000a900460ff168360020160019054906101000a900460ff169450945094509450509193509193565b600080600080600080600080600460008a6000191660001916815260200190815260200160002090508060000154816001015482600201548360030154846004015485600501548660060154975097509750975097509750975050919395979092949650565b6000600260008373ffffffffffffffffffffffffffffffffffffffff1673ffffffffffffffffffffffffffffffffffffffff16815260200190815260200160002060020160006101000a81548160ff02191690831515021790555050565b6000600180549050905090565b6000809054906101000a900473ffffffffffffffffffffffffffffffffffffffff1681565b600181815481101515610cd757fe5b906000526020600020016000915054906101000a900473ffffffffffffffffffffffffffffffffffffffff1681565b60026020528060005260406000206000915090508060000154908060010154908060020160009054906101000a900460ff16908060020160019054906101000a900460ff16905084565b600260003373ffffffffffffffffffffffffffffffffffffffff1673ffffffffffffffffffffffffffffffffffffffff16815260200190815260200160002060020160009054906101000a900460ff1680610df757503373ffffffffffffffffffffffffffffffffffffffff166000809054906101000a900473ffffffffffffffffffffffffffffffffffffffff1673ffffffffffffffffffffffffffffffffffffffff16145b1515610e91576040517f08c379a00000000000000000000000000000000000000000000000000000000081526004018080602001828103825260348152602001807f596f7520617265206e6f7420612061646d696e6973747261746f722e20596f7581526020017f20617265206e6f7420617574686f72697a65642e00000000000000000000000081525060400191505060405180910390fd5b600073ffffffffffffffffffffffffffffffffffffffff168173ffffffffffffffffffffffffffffffffffffffff1614151515610f5c576040517f08c379a00000000000000000000000000000000000000000000000000000000081526004018080602001828103825260308152602001807f596f7520617474656d7074656420746f20616464207065726d697373696f6e7381526020017f20746f2030783020616464726573732e0000000000000000000000000000000081525060400191505060405180910390fd5b6000600260008373ffffffffffffffffffffffffffffffffffffffff1673ffffffffffffffffffffffffffffffffffffffff16815260200190815260200160002060020160016101000a81548160ff02191690831515021790555050565b6060600180548060200260200160405190810160405280929190818152602001828054801561103e57602002820191906000526020600020905b8160009054906101000a900473ffffffffffffffffffffffffffffffffffffffff1673ffffffffffffffffffffffffffffffffffffffff1681526020019060010190808311610ff4575b5050505050905090565b6000600260003373ffffffffffffffffffffffffffffffffffffffff1673ffffffffffffffffffffffffffffffffffffffff16815260200190815260200160002060020160019054906101000a900460ff16806110f157503373ffffffffffffffffffffffffffffffffffffffff166000809054906101000a900473ffffffffffffffffffffffffffffffffffffffff1673ffffffffffffffffffffffffffffffffffffffff16145b151561118b576040517f08c379a000000000000000000000000000000000000000000000000000000000815260040180806020018281038252602f8152602001807f596f7520617265206e6f74206120656d706c6f7965652e20596f75206172652081526020017f6e6f7420617574686f72697a65642e000000000000000000000000000000000081525060400191505060405180910390fd5b6000600102600460008a60001916600019168152602001908152602001600020600001546000191614151561124e576040517f08c379a00000000000000000000000000000000000000000000000000000000081526004018080602001828103825260228152602001807f5468652076656869636c6520697320616c72656164792072656769737465726581526020017f642e00000000000000000000000000000000000000000000000000000000000081525060400191505060405180910390fd5b6004600089600019166000191681526020019081526020016000209050878160000181600019169055508681600101816000191690555085816002018160001916905550848160030181600019169055508381600401816000191690555082816005018160001916905550818160060181600019169055503381600a0160006101000a81548173ffffffffffffffffffffffffffffffffffffffff021916908373ffffffffffffffffffffffffffffffffffffffff16021790555060038890806001815401808255809150509060018203906000526020600020016000909192909190915090600019169055505050505050505050565b6060600380548060200260200160405190810160405280929190818152602001828054801561139757602002820191906000526020600020905b8154600019168152602001906001019080831161137f575b5050505050905090565b600260003373ffffffffffffffffffffffffffffffffffffffff1673ffffffffffffffffffffffffffffffffffffffff16815260200190815260200160002060020160009054906101000a900460ff168061144857503373ffffffffffffffffffffffffffffffffffffffff166000809054906101000a900473ffffffffffffffffffffffffffffffffffffffff1673ffffffffffffffffffffffffffffffffffffffff16145b15156114e2576040517f08c379a00000000000000000000000000000000000000000000000000000000081526004018080602001828103825260348152602001807f596f7520617265206e6f7420612061646d696e6973747261746f722e20596f7581526020017f20617265206e6f7420617574686f72697a65642e00000000000000000000000081525060400191505060405180910390fd5b600073ffffffffffffffffffffffffffffffffffffffff168373ffffffffffffffffffffffffffffffffffffffff16141515156115ad576040517f08c379a00000000000000000000000000000000000000000000000000000000081526004018080602001828103825260308152602001807f596f7520617474656d7074656420746f20616464207065726d697373696f6e7381526020017f20746f2030783020616464726573732e0000000000000000000000000000000081525060400191505060405180910390fd5b600260008473ffffffffffffffffffffffffffffffffffffffff1673ffffffffffffffffffffffffffffffffffffffff16815260200190815260200160002060020160019054906101000a900460ff161515611663576001600260008573ffffffffffffffffffffffffffffffffffffffff1673ffffffffffffffffffffffffffffffffffffffff16815260200190815260200160002060020160016101000a81548160ff02191690831515021790555061179c565b608060405190810160405280836000191681526020018260001916815260200160001515815260200160011515815250600260008573ffffffffffffffffffffffffffffffffffffffff1673ffffffffffffffffffffffffffffffffffffffff168152602001908152602001600020600082015181600001906000191690556020820151816001019060001916905560408201518160020160006101000a81548160ff02191690831515021790555060608201518160020160016101000a81548160ff02191690831515021790555090505060018390806001815401808255809150509060018203906000526020600020016000909192909190916101000a81548173ffffffffffffffffffffffffffffffffffffffff021916908373ffffffffffffffffffffffffffffffffffffffff160217905550505b505050565b6000809054906101000a900473ffffffffffffffffffffffffffffffffffffffff1673ffffffffffffffffffffffffffffffffffffffff163373ffffffffffffffffffffffffffffffffffffffff1614151561188b576040517f08c379a000000000000000000000000000000000000000000000000000000000815260040180806020018281038252602e8152602001807f596f7520617265206e6f7420746865206f776e65722e20596f7520617265206e81526020017f6f7420617574686f72697a65642e00000000000000000000000000000000000081525060400191505060405180910390fd5b600073ffffffffffffffffffffffffffffffffffffffff168173ffffffffffffffffffffffffffffffffffffffff1614151515611956576040517f08c379a00000000000000000000000000000000000000000000000000000000081526004018080602001828103825260308152602001807f596f7520617474656d7074656420746f20616464207065726d697373696f6e7381526020017f20746f2030783020616464726573732e0000000000000000000000000000000081525060400191505060405180910390fd5b8073ffffffffffffffffffffffffffffffffffffffff166000809054906101000a900473ffffffffffffffffffffffffffffffffffffffff1673ffffffffffffffffffffffffffffffffffffffff167f8be0079c531659141344cd1fd0a4f28419497f9722a3daafe3b4186f6b6457e060405160405180910390a3806000806101000a81548173ffffffffffffffffffffffffffffffffffffffff021916908373ffffffffffffffffffffffffffffffffffffffff160217905550505600a165627a7a723058200f7206c91d7786fac14a574cac5a7e3c0bdfcd685c397f4ffd8aba511743cec00029",
  "source": "pragma solidity ^0.4.24;\n//pragma experimental ABIEncoderV2;\n\nimport \"./authorizable.sol\";\n\n\ncontract VehicleFactory is Authorizable {\n\n    constructor() public {\n        \n    }\n\n    struct Vehicle {\n        // Inmutable\n        bytes32 numberPlate;\n        bytes32 brand;\n        bytes32 model;\n\n        // Mutable\n        bytes32 color;\n        bytes32 serialNumber; // chassis\n        bytes32 motorNumber;\n        bytes32 reason;\n\n        bytes32[] photos;\n        bytes32[] documents;\n        VehicleOwner[] owners;\n        address employeeAddress;\n    }\n\n    struct VehicleOwner {\n        uint dni;\n        bytes32 name;\n    }\n\n\n    bytes32[] private vehiclesNumberPlate;\n    mapping (bytes32 => Vehicle) private vehicles;\n    \n\n    function _compareStrings (string a, string b) \n    private pure returns (bool) {\n        return keccak256(abi.encodePacked(a)) == keccak256(abi.encodePacked(b));\n    }\n\n    function getVehiclesCount() \n    public view returns (uint) {\n        return vehiclesNumberPlate.length;\n    }\n\n    function getVehicles() \n    public view returns (bytes32[]) {\n        return vehiclesNumberPlate;\n    }\n\n    function getVehicle\n    (\n        bytes32 _numberPlate\n    )\n    public view returns (bytes32, bytes32, bytes32, bytes32, bytes32, bytes32, bytes32) {\n        //bytes32 numberPlateKey = keccak256(abi.encodePacked(_numberPlate));\n        Vehicle storage vehicle = vehicles[_numberPlate];\n\n        return (\n            vehicle.numberPlate, vehicle.brand, vehicle.model,\n            vehicle.color, vehicle.serialNumber, vehicle.motorNumber, vehicle.reason\n        );\n    }\n\n    function addVehicle\n    (\n        bytes32 _numberPlate, bytes32 _brand, bytes32 _model,\n        bytes32 _color, bytes32 _serialNumber, bytes32 _motorNumber, bytes32 _reason//,\n        //bytes32[] _photos, bytes32[] _documents, VehicleOwner[] _owners\n    )\n    public onlyEmployee {\n        //bytes32 numberPlateKey = keccak256(abi.encodePacked(_numberPlate));\n        //require(_compareStrings(vehicles[_numberPlate].numberPlate, \"\"), \"The vehicle is already registered.\");\n        require(vehicles[_numberPlate].numberPlate == 0, \"The vehicle is already registered.\");\n\n        Vehicle storage vehicle = vehicles[_numberPlate];\n        vehicle.numberPlate = _numberPlate;\n        vehicle.brand = _brand;\n        vehicle.model = _model;\n\n        vehicle.color = _color;\n        vehicle.serialNumber = _serialNumber;\n        vehicle.motorNumber = _motorNumber;\n        vehicle.reason = _reason;\n\n        //vehicle.photos = _photos;\n        //vehicle.documents = _documents;\n        //vehicle.owners = _owners;\n        vehicle.employeeAddress = msg.sender;\n\n        vehiclesNumberPlate.push(_numberPlate);\n    }\n\n\n}",
  "sourcePath": "C:\\ethereum_projects\\crypto-vehicle\\src\\client\\contracts\\VehicleFactory.sol",
  "compiler": {
    "name": "solc",
    "version": "0.4.24+commit.e67f0147.Emscripten.clang"
  },
  "schemaVersion": "2.0.1",
  "updatedAt": "2018-09-07T03:57:56.052Z"
}